S014000046696E616C50726F6A6563742E737265634F
S113000018F09FE518F09FE518F09FE518F09FE5BC
S113001018F09FE518F09FE518F09FE518F09FE5AC
S11300204000000040100000441000004810000090
S11300304C1000003C100000501000005410000050
S1130040260000EA8C609FE5000056E380402DE91D
S1130050016046E21E00000A7C509FE50000A0E318
S11300600010A0E30C2015E510E015E5084015E5A7
S113007002005EE1042082000900000A000054E34B
S11300800700000A0270A0E102C0A0E10C00BEE873
S11300900C00ACE80C3067E0030054E10C20A0E154
S11300A0F9FFFF1A04E015E500005EE30230A01139
S11300B00300000A0300A3E803C062E00C005EE151
S11300C0FBFFFF1A016046E2010076E3145085E26B
S11300D0E3FFFF1ABF0300EB01000000945E000081
S11300E03C108FE21600A0E3563412EF000050E3F8
S11300F0080000BA28209FE51CD09FE5080092E57F
S1130100000050E300D0A01110109FE5040092E518
S1130110000050E300008115C9FFFFEAF8FFFF3F2C
S1130120D8620000C865000000D01FE5C4FFFFEAE4
S1130130F8FFFF3F08402DE92C009FE52C309FE598
S1130140033060E0060053E30100008A0840BDE884
S11301501EFF2FE118309FE5000053E3FAFFFF0A6A
S11301600FE0A0E113FF2FE1F7FFFFEAE0620000D8
S1130170E36200000000000008402DE934009FE520
S113018034309FE5033060E04331A0E1A33F83E0D6
S1130190C310B0E10100001A0840BDE81EFF2FE1C2
S11301A018209FE5000052E3FAFFFF0A0FE0A0E1E8
S11301B012FF2FE1F7FFFFEAE0620000E0620000B7
S11301C00000000010402DE92C409FE50030D4E5EC
S11301D0000053E30600001AD5FFFFEB1C309FE537
S11301E0000053E318009F1500F020130130A0E332
S11301F00030C4E51040BDE81EFF2FE1E0620000BE
S113020000000000E010000008402DE934309FE5B4
S1130210000053E330009F1530109F1500F02013A9
S11302202C009FE5003090E5000053E30300000A32
S113023020309FE5000053E30FE0A01113FF2F11BE
S11302400840BDE8CBFFFFEA00000000E01000001A
S1130250E4620000985E00000000000030002DE918
S1130260FC3206E3003040E3000093E504C093E56C
S1130270084093E50C5093E5102093E5141093E5A2
S1130280183093E5010053E30500001A4A10A0E377
S11302907220A0E30150A0E10240A0E101C0A0E16E
S11302A00200A0E1FC3206E3003040E31C3093E599
S11302B0010053E30500001A6810A0E37220A0E3D4
S11302C00150A0E10240A0E101C0A0E10200A0E1D0
S11302D0FC3206E3003040E3203093E5010053E3B1
S11302E00500001A8610A0E37220A0E30150A0E1EB
S11302F00240A0E101C0A0E10200A0E1FC3206E35B
S1130300003040E3243093E5010053E30500001A74
S11303104A10A0E39020A0E30150A0E10240A0E134
S113032001C0A0E10200A0E1FC3206E3003040E39A
S1130330283093E5010053E30500001A6810A0E398
S11303409020A0E30150A0E10240A0E101C0A0E19F
S11303500200A0E1FC3206E3003040E32C3093E5D8
S1130360010053E30500001A8610A0E39020A0E3E7
S11303700150A0E10240A0E101C0A0E10200A0E11F
S1130380FC3206E3003040E3303093E5010053E3F0
S11303901500001A0E0000EA8610A0E3AE20A0E3C8
S11303A00150A0E10240A0E101C0A0E10200A0E1EF
S11303B0FC3206E3003040E3000083E504C083E53B
S11303C0084083E50C5083E5102083E5141083E591
S11303D0160000EA4A10A0E3AE20A0E30150A0E119
S11303E00240A0E101C0A0E10200A0E1FC3206E36A
S11303F0003040E3343093E5010053E30500001A74
S11304006810A0E3AE20A0E30150A0E10240A0E107
S113041001C0A0E10200A0E1FC3206E3003040E3A9
S1130420383093E5010053E3E0FFFF1AD9FFFFEAF8
S11304303000BDE81EFF2FE1F8452DE90040A0E3A0
S1130440FC5206E3005040E30080E0E3B56108E3BA
S11304504E6B41E34B7FA0E301A0A0E33C3095E564
S1130460030153E30800001A403085E2902085E23E
S1130470022094E7032084E7E03085E2132E85E22E
S1130480022094E7032084E70A0000EA3C3095E563
S1130490320353E30700001A063D85E2902085E20B
S11304A0022094E7032084E71D3E85E2132E85E2B3
S11304B0022094E7032084E7223E85E2030094E7C8
S11304C0902085E2023094E7033080E0023084E734
S11304D0272E85E202C094E7131E85E2012094E7EB
S11304E002208CE0012084E7050D53E30D0000DABF
S11304F0010050E30B00001A223E85E2038084E7EA
S1130500E70100EB902085E29630C1E0C03FA0E116
S1130510C13263E0970363E04D3F83E2023083E23C
S1130520023084E72B0000EA000053E30C0000AA29
S1130530010070E30A00001A223E85E203A084E76A
S1130540D70100EB903085E29620C1E0C02FA0E1F6
S1130550C12262E0970260E0000060E2030084E7E9
S11305601C0000EA000052E30C0000AA01007CE336
S11305700A00001A273E85E203A084E7C80100EBC5
S1130580133E85E29620C1E0C02FA0E1C12262E0C3
S1130590970260E0000060E2030084E70D0000EAD7
S11305A0F00052E30B0000DA01005CE30900001ADA
S11305B0273E85E2038084E7B90100EB133E85E220
S11305C09620C1E0C02FA0E1C12262E0970260E062
S11305D0F00080E2030084E7044084E2300054E346
S11305E09DFFFF1AF885BDE8FC3206E3003040E3C6
S11305F03C3093E58000A0E1011583E0B02081E167
S11306001EFF2FE1F84F2DE90070A0E10160A0E189
S11306100080E0E3E4A001E300A040E300B0A0E335
S1130620A39F01E30A0000EA070084E00610A0E1AA
S1130630F220F5E1EBFFFFEB014084E25A0054E3C2
S1130640F8FFFF1A5A8088E2016086E2090058E147
S1130650F88FBD0888508AE00B40A0E1F1FFFFEA63
S1130660F84F2DE90070A0E10160A0E10080E0E313
S113067040B09FE50090A0E383A300E30A0000EAF2
S1130680070084E00610A0E1F220F5E1D5FFFFEBBE
S1130690014084E21E0054E3F8FFFF1A1E8088E242
S11306A0016086E20A0058E1F88FBD0888508BE0AB
S11306B00940A0E1F1FFFFEA2C500000F84F2DE9BA
S11306C00080A0E10170A0E100A0E0E350B09FE54C
S11306D00090A0E3FF6F0FE30E0000EAB220F5E103
S11306E0060052E10300000A080084E00710A0E1BC
S11306F07220BFE6BBFFFFEB014084E21E0054E31F
S1130700F5FFFF1A1EA08AE2017087E2833300E33B
S113071003005AE1F88FBD088A508BE00940A0E13C
S1130720EDFFFFEA3457000038402DE90040A0E314
S1130730FC5206E3005040E3903085E2030094E766
S1130740050D50E30400008A133E85E2031094E78C
S1130750F00051E30000008AD7FFFFEB044084E27D
S1130760300054E3F3FFFF1AFC3206E3003040E3A9
S1130770000093E5041093E5B8FFFFEB3880BDE873
S1130780F0412DE9FC3206E3003040E33C3093E5D0
S1130790030153E33000000AFC3206E3003040E377
S11307A03C3093E50050A0E30580A0E1FC6206E341
S11307B0006040E3120000EA063D86E2030095E78C
S11307C01D3E86E2031095E7000084E0011087E0F7
S11307D00820A0E183FFFFEB014084E21E0054E304
S11307E0F4FFFF1A017087E21E0057E30100000ABC
S11307F00840A0E1EFFFFFEA045085E2300055E332
S1130800F081BD080870A0E1F8FFFFEA403086E2FD
S1130810030095E7E03086E2031095E7000084E0EA
S1130820011087E00820A0E16EFFFFEB014084E2A5
S11308301E0054E3F4FFFF1A017087E21E0057E321
S11308400100000A0840A0E1EFFFFFEA045085E23E
S1130850300055E30400001AF081BDE80050A0E325
S11308600580A0E1FC6206E3006040E30870A0E1BB
S1130870F3FFFFEA70402DE90050A0E30560A0E11A
S1130880090000EA0500A0E10410A0E10620A0E1AF
S113089054FFFFEB014084E2F00054E3F8FFFF1A39
S11308A0015085E2050D55E37080BD080640A0E1C6
S11308B0F3FFFFEA70402DE90050A0E30560A0E1DA
S11308C0090000EA0500A0E10410A0E10620A0E16F
S11308D044FFFFEB014084E2F00054E3F8FFFF1A09
S11308E0015085E2050D55E37080BD080640A0E186
S11308F0F3FFFFEAFF3F03E3203F4FE30120A0E3C0
S1130900DF2F03E5D33F13E5010013E31EFF2F019F
S1130910FF2F03E3202F4FE3D33F12E5010013E33E
S1130920FCFFFF1A1EFF2FE1F84F2DE9FC4206E3FE
S1130930004040E30130A0E32C3084E5FF5F03E393
S1130940205F4FE33233A0E3DB3F05E5E8FFFFEB35
S1130950DF3F15E53C3084E50331A0E3DB3F05E5EB
S1130960DB3F15E53C3084E5D1FFFFEBC0FFFFEB37
S11309700040A0E30460A0E1FC5206E3005040E321
S113098056A505E355A545E3B58108E34E8B41E340
S11309904BBFA0E30490A0E1030016E32000001A7B
S11309A0BF0000EB907085E29810C2E0C03FA0E168
S11309B0C23263E09B0360E0000060E2070084E76A
S11309C0B70000EB9A20C3E0C03F43E0833083E0EC
S11309D0000063E0000260E08030A0E14A3083E27E
S11309E0132E85E2023084E7222E85E20110A0E373
S11309F0021084E7272E85E2029084E7072094E71B
S1130A00061D85E2012084E71D1E85E2013084E78E
S1130A10401085E2012084E7E02085E2023084E78B
S1130A206B0000EAC63FA0E1233FA0E1032086E07B
S1130A30032002E2023063E0010053E32100001AC4
S1130A40970000EB907085E29830C2E0C03FA0E1CF
S1130A50C23263E09B0363E04D3F83E2023083E2F2
S1130A60073084E78E0000EB9A10C3E0C03F43E0F8
S1130A70833083E0000063E0000260E08030A0E1A6
S1130A804A3083E2132E85E2023084E7222E85E287
S1130A900010E0E3021084E7272E85E2029084E749
S1130AA0072094E7061D85E2012084E71D1E85E2E8
S1130AB0013084E7401085E2012084E7E02085E2EC
S1130AC0023084E7420000EA020053E32000001AE7
S1130AD0730000EB907085E29A20C3E0C03F43E0CE
S1130AE0833083E0000063E0000260E08000A0E166
S1130AF0720080E2070084E7690000EB9830C2E0EE
S1130B00C03FA0E1C23263E09B0360E0000060E20A
S1130B10133E85E2030084E7223E85E2039084E7E6
S1130B20273E85E20120A0E3032084E7073094E711
S1130B30062D85E2023084E71D2E85E2020084E75B
S1130B40402085E2023084E7E03085E2030084E758
S1130B501F0000EA520000EB907085E29A10C3E097
S1130B60C03F43E0833083E0000063E0000260E0C4
S1130B708000A0E1720080E2070084E7480000EBF7
S1130B809830C2E0C03FA0E1C23263E09B0360E062
S1130B90EF0080E2133E85E2030084E7223E85E213
S1130BA0039084E7273E85E20010E0E3031084E726
S1130BB0073094E7062D85E2023084E71D2E85E296
S1130BC0020084E7402085E2023084E7E03085E2D9
S1130BD0030084E7016086E2044084E20C0056E3EB
S1130BE06CFFFF1A7260A0E34A50A0E3FC4206E3E4
S1130BF0004040E3FF7F03E3207F4FE3DFFEFFEB92
S1130C000600A0E10510A0E17DFEFFEBC032D4E5B3
S1130C10000053E3F88FBD188FFDFFEBC1FEFFEB1F
S1130C2004FEFFEB32FFFFEBDB3F17E53C3084E5CE
S1130C30F1FFFFEA0010A0E10000A0E308402DE965
S1130C400020A0E10030A0E12C0000EB0840BDE84A
S1130C501EFF2FE108402DE90010A0E30040A0E1B1
S1130C60630000EB18309FE5000093E53C3090E50D
S1130C70000053E30FE0A01113FF2F110400A0E1C3
S1130C80E70000EB3C5E000010309FE5003093E588
S1130C900020A0E3A80083E5AC2083E51EFF2FE13C
S1130CA0A85E000004402DE544309FE500C093E5B4
S1130CB040409FE5A8209CE5920404E0AC109CE52C
S1130CC034309FE5934124E0920381E00120A0E3C6
S1130CD0002092E0011084E00030A0E30130A3E0A2
S1130CE0A8208CE5AC308CE50201C3E31000BDE81C
S1130CF01EFF2FE1A85E00002DF451582D7F954C66
S1130D00E4C09FE5F0412DE900409CE548C194E52D
S1130D1000005CE353CF840204509CE548C1840581
S1130D201F0055E310D04DE20060A0E1150000DA89
S1130D30B8009FE5000050E30100001A0000E0E362
S1130D40180000EA190EA0E30C108DE508208DE5CB
S1130D5004308DE500F020E300C050E20C109DE566
S1130D6008209DE504309DE5F3FFFF0A485194E512
S1130D700000A0E304008CE500508CE548C184E544
S1130D8088018CE58C018CE5000056E304409CE569
S1130D900700001A023084E2014084E203118CE768
S1130DA004408CE50000A0E310D08DE2F041BDE8E2
S1130DB01EFF2FE10100A0E31004A0E104818CE0F8
S1130DC0020056E388719CE5083188E58C319C0566
S1130DD0007087E1000083010850A0E1882088E5C5
S1130DE088718CE58C018C05E9FFFFEA3C5E00000C
S1130DF000000000F04F2DE968319FE5003093E5D5
S1130E0014D04DE204308DE5523F83E208008DE5B5
S1130E100C308DE50170A0E10180A0E304309DE574
S1130E20486193E5000056E30CB09DE53300000AE9
S1130E30045096E5014055E288A086521F50855221
S1130E4005518A500700005A290000EA003095E550
S1130E50070053E10500000A014044E2010074E385
S1130E60045045E22200000A000057E3F6FFFF1A8F
S1130E70043096E505206AE0013043E2022086E072
S1130E80040053E1783012E50010A01304408605F5
S1130E9078100215000053E3EEFFFF0A1824A0E1C6
S1130EA0881196E5010012E1049096E51600000A07
S1130EB08C1196E5010012E11600001A08009DE568
S1130EC0801015E50FE0A0E113FF2FE1043096E553
S1130ED0090053E1D0FFFF1A00309BE5060053E1FF
S1130EE0CDFFFF1A014044E2010074E3045045E2DF
S1130EF0DCFFFF1A70109FE5000051E30900001A9F
S1130F0014D08DE2F04FBDE81EFF2FE10FE0A0E109
S1130F1013FF2FE1ECFFFFEA800015E50FE0A0E1ED
S1130F2013FF2FE1E8FFFFEA043096E5000053E3E6
S1130F30003096E50800001A000053E30600000A9A
S1130F400600A0E100308BE500F020E300609BE5A3
S1130F50000056E3B5FFFF1AE8FFFFEA06B0A0E180
S1130F600360A0E1F9FFFFEA3C5E0000000000001E
S1130F7008402DE910309FE5000053E30C009F1555
S1130F802BFFFF1B0840BDE81EFF2FE1645E00003D
S1130F90940F000038402DE930509FE530409FE524
S1130FA0044065E04441B0E1045185100400000AA6
S1130FB0043035E50FE0A0E113FF2FE1014054E2D6
S1130FC0FAFFFF1AA61300EB3840BDE81EFF2FE11D
S1130FD07C5E0000805E000008402DE91D0000EBEF
S1130FE030309FE5000053E3000093150300A00197
S1130FF024309FE5000053E3001093150310A00173
S11310000020A0E347FEFFEB10309FE5000053E310
S11310100FFFFF1BFEFFFFEA0000000000000000BE
S1131020540C000004E02DE51800A0E304109FE533
S1131030563412EFFEFFFFEA26000200FEFFFFEA2D
S1131040FEFFFFEAFEFFFFEAFEFFFFEAFEFFFFEA04
S1131050FEFFFFEAFEFFFFEA70402DE96C509FE5BA
S11310606C609FE5066065E04661B0E1045045129E
S11310700040A0130500000A0430B5E5014084E2F5
S11310800FE0A0E113FF2FE1040056E1F9FFFF1A7E
S113109040509FE540609FE5066065E0681300EB03
S11310A04661B0E1045045120040A0130500000A57
S11310B00430B5E5014084E20FE0A0E113FF2FE125
S11310C0040056E1F9FFFF1A7040BDE81EFF2FE14E
S11310D05C5E00005C5E00005C5E0000645E00001C
S10710E00000000008
S11310E4FFFFFFFFFFFFFFFFFFFFFFFFFFFFFFFF08
S11310F4FFFFFFFFFFFFFFFFFFFFFFFFFFFFFFFFF8
S1131104FFFFFFFFFFFFFFFFFFFFFFFFFFFFFFFFE7
S1131114FFFFFFFFFFFFFFFFFFFFFFFFFFFFFFFFD7
S1131124FFFFFFFFFFFFFFFFFFFFFFFFFFFFFFFFC7
S1131134FFFFFFFFFFFFFFFFFFFFFFFFFFFFFFFFB7
S1131144FFFFFFFFFFFFFFFFFFFFFFFFFFFFFFFFA7
S1131154FFFFFFFFFFFFFFFFFFFFFFFFFFFFFFFF97
S1131164FFFFFFFFFFFFFFFFFFFFFFFFFFFFFFFF87
S1131174FFFFFFFFFFFFFFFFFFFFFFFFFFFFFFFF77
S1131184FFFFFFFFFFFFFFFFFFFFFFFFFFFFFFFF67
S1131194FFFFFFFFFFFFE4FBE4FBE4FBE4FBE4FBF2
S11311A4E4FBE4FBE4FBE4FBE4FBE4FBE4FBE4FB3F
S11311B4E4FBE4FBE4FBE4FBE4FBE4FBE4FBE4FB2F
S11311C4E4FBE4FBE4FBE4FBE4FBE4FBE4FBE4FB1F
S11311D4FFFFE4FBE4FBE4FBE4FBE4FBE4FBE4FBF0
S11311E4E4FBE4FBE4FBE4FBE4FBE4FBE4FBE4FBFF
S11311F4E4FBE4FBE4FBE4FBE4FBE4FBE4FBE4FBEF
S1131204E4FBE4FBE4FBE4FBE4FBE4FBE4FBFFFFBF
S1131214E4FBE4FBE4FBE4FBE4FBE4FBE4FBE4FBCE
S1131224E4FBE4FBE4FBE4FBE4FBE4FBE4FBE4FBBE
S1131234E4FBE4FBE4FBE4FBE4FBE4FBE4FBE4FBAE
S1131244E4FBE4FBE4FBFFFFFFFFE4FBE4FBE4FB60
S1131254E4FBE4FBE4FBE4FBE4FBE4FBE4FBE4FB8E
S1131264E4FBE4FBE4FBE4FBE4FBE4FBE4FBE4FB7E
S1131274E4FBE4FBE4FBE4FBE4FBE4FBE4FBE4FB6E
S1131284E4FBE4FBFFFFE4FBE4FBE4FBE4FBE4FB3F
S1131294E4FBE4FBE4FBE4FBE4FBE4FBE4FBE4FB4E
S11312A4E4FBE4FBE4FBE4FBE4FBE4FBE4FBE4FB3E
S11312B4E4FBE4FBE4FBE4FBE4FBE4FBE4FBE4FB2E
S11312C4E4FBFFFFE4FBE4FBE4FBE4FBE4FBE4FBFF
S11312D4E4FBE4FBE4FBE4FBE4FBE4FBE4FBE4FB0E
S11312E4E4FBE4FBE4FBE4FBE4FBE4FBE4FBE4FBFE
S11312F4E4FBE4FBE4FBE4FBE4FBFFFFFFFFE4FBB0
S1131304E4FBE4FBE4FBE4FBE4FBE4FBE4FBE4FBDD
S1131314E4FBE4FBE4FBE4FBE4FBE4FBE4FBE4FBCD
S1131324E4FBE4FBE4FBE4FBE4FBE4FBE4FBE4FBBD
S1131334E4FBE4FBE4FBE4FBFFFFE4FBE4FBE4FB8E
S1131344E4FBE4FBE4FBE4FBE4FBE4FBE4FBE4FB9D
S1131354E4FBE4FBE4FBE4FBE4FBE4FBE4FBE4FB8D
S1131364E4FBE4FBE4FBE4FBE4FBE4FBE4FBE4FB7D
S1131374E4FBE4FBE4FBFFFFE4FBE4FBE4FBE4FB4E
S1131384E4FBE4FBE4FBE4FBE4FBE4FBE4FBE4FB5D
S1131394E4FBE4FBE4FBE4FBE4FBE4FBE4FBE4FB4D
S11313A4E4FBE4FBE4FBE4FBE4FBE4FBE4FBFFFF1E
S11313B4FFFFE4FBE4FBE4FBE4FBE4FBE4FBE4FB0E
S11313C4E4FBE4FBE4FBE4FBE4FBE4FBE4FBE4FB1D
S11313D4E4FBE4FBE4FBE4FBE4FBE4FBE4FBE4FB0D
S11313E4E4FBE4FBE4FBE4FBE4FBE4FBFFFFE4FBDE
S11313F4E4FBE4FBE4FBE4FBE4FBE4FBE4FBE4FBED
S1131404E4FBE4FBE4FBE4FBE4FBE4FBE4FBE4FBDC
S1131414E4FBE4FBE4FBE4FBE4FBE4FBE4FBE4FBCC
S1131424E4FBE4FBE4FBE4FBE4FBFFFFE4FBE4FB9D
S1131434E4FBE4FBE4FBE4FBE4FBE4FBE4FBE4FBAC
S1131444E4FBE4FBE4FBE4FBE4FBE4FBE4FBE4FB9C
S1131454E4FBE4FBE4FBE4FBE4FBE4FBE4FBE4FB8C
S1131464E4FBFFFFFFFFE4FBE4FBE4FBE4FBE4FB3E
S1131474E4FBE4FBE4FBE4FBE4FBE4FBE4FBE4FB6C
S1131484E4FBE4FBE4FBE4FBE4FBE4FBE4FBE4FB5C
S1131494E4FBE4FBE4FBE4FBE4FBE4FBE4FBE4FB4C
S11314A4FFFFE4FBE4FBE4FBE4FBE4FBE4FBE4FB1D
S11314B4E4FBE4FBE4FBE4FBE4FBE4FBE4FBE4FB2C
S11314C4E4FBE4FBE4FBE4FBE4FBE4FBE4FBE4FB1C
S11314D4E4FBE4FBE4FBE4FBE4FBE4FBE4FBFFFFED
S11314E4E4FBE4FBE4FBE4FBE4FBE4FBE4FBE4FBFC
S11314F4E4FBE4FBE4FBE4FBE4FBE4FBE4FBE4FBEC
S1131504E4FBE4FBE4FBE4FBE4FBE4FBE4FBE4FBDB
S1131514E4FBE4FBE4FBFFFFFFFFE4FBE4FBE4FB8D
S1131524E4FBE4FBE4FBE4FBE4FBE4FBE4FBE4FBBB
S1131534E4FBE4FBE4FBE4FBE4FBE4FBE4FBE4FBAB
S1131544E4FBE4FBE4FBE4FBE4FBE4FBE4FBE4FB9B
S1131554E4FBE4FBFFFFE4FBE4FBE4FBE4FBE4FB6C
S1131564E4FBE4FBE4FBE4FBE4FBE4FBE4FBE4FB7B
S1131574E4FBE4FBE4FBE4FBE4FBE4FBE4FBE4FB6B
S1131584E4FBE4FBE4FBE4FBE4FBE4FBE4FBE4FB5B
S1131594E4FBFFFFE4FBE4FBE4FBE4FBE4FBE4FB2C
S11315A4E4FBE4FBE4FBE4FBE4FBE4FBE4FBE4FB3B
S11315B4E4FBE4FBE4FBE4FBE4FBE4FBE4FBE4FB2B
S11315C4E4FBE4FBE4FBE4FBE4FBFFFFFFFFE4FBDD
S11315D4E4FBE4FBE4FBE4FBE4FBE4FBE4FBE4FB0B
S11315E4E4FBE4FBE4FBE4FBE4FBE4FBE4FBE4FBFB
S11315F4E4FBE4FBE4FBE4FBE4FBE4FBE4FBE4FBEB
S1131604E4FBE4FBE4FBE4FBFFFFE4FBE4FBE4FBBB
S1131614E4FBE4FBE4FBE4FBE4FBE4FBE4FBE4FBCA
S1131624E4FBE4FBE4FBE4FBE4FBE4FBE4FBE4FBBA
S1131634E4FBE4FBE4FBE4FBE4FBE4FBE4FBE4FBAA
S1131644E4FBE4FBE4FBFFFFE4FBE4FBE4FBE4FB7B
S1131654E4FBE4FBE4FBE4FBE4FBE4FBE4FBE4FB8A
S1131664E4FBE4FBE4FBE4FBE4FBE4FBE4FBE4FB7A
S1131674E4FBE4FBE4FBE4FBE4FBE4FBE4FBFFFF4B
S1131684FFFFE4FBE4FBE4FBE4FBE4FBE4FBE4FB3B
S1131694E4FBE4FBE4FBE4FBE4FBE4FBE4FBE4FB4A
S11316A4E4FBE4FBE4FBE4FBE4FBE4FBE4FBE4FB3A
S11316B4E4FBE4FBE4FBE4FBE4FBE4FBFFFFE4FB0B
S11316C4E4FBE4FBE4FBE4FBE4FBE4FBE4FBE4FB1A
S11316D4E4FBE4FBE4FBE4FBE4FBE4FBE4FBE4FB0A
S11316E4E4FBE4FBE4FBE4FBE4FBE4FBE4FBE4FBFA
S11316F4E4FBE4FBE4FBE4FBE4FBFFFFE4FBE4FBCB
S1131704E4FBE4FBE4FBE4FBE4FBE4FBE4FBE4FBD9
S1131714E4FBE4FBE4FBE4FBE4FBE4FBE4FBE4FBC9
S1131724E4FBE4FBE4FBE4FBE4FBE4FBE4FBE4FBB9
S1131734E4FBFFFFFFFFE4FBE4FBE4FBE4FBE4FB6B
S1131744E4FBE4FBE4FBE4FBE4FBE4FBE4FBE4FB99
S1131754E4FBE4FBE4FBE4FBE4FBE4FBE4FBE4FB89
S1131764E4FBE4FBE4FBE4FBE4FBE4FBE4FBE4FB79
S1131774FFFFE4FBE4FBE4FBE4FBE4FBE4FBE4FB4A
S1131784E4FBE4FBE4FBE4FBE4FBE4FBE4FBE4FB59
S1131794E4FBE4FBE4FBE4FBE4FBE4FBE4FBE4FB49
S11317A4E4FBE4FBE4FBE4FBE4FBE4FBE4FBFFFF1A
S11317B4E4FBE4FBE4FBE4FBE4FBE4FBE4FBE4FB29
S11317C4E4FBE4FBE4FBE4FBE4FBE4FBE4FBE4FB19
S11317D4E4FBE4FBE4FBE4FBE4FBE4FBE4FBE4FB09
S11317E4E4FBE4FBE4FBFFFFFFFFE4FBE4FBE4FBBB
S11317F4E4FBE4FBE4FBE4FBE4FBE4FBE4FBE4FBE9
S1131804E4FBE4FBE4FBE4FBE4FBE4FBE4FBE4FBD8
S1131814E4FBE4FBE4FBE4FBE4FBE4FBE4FBE4FBC8
S1131824E4FBE4FBFFFFE4FBE4FBE4FBE4FBE4FB99
S1131834E4FBE4FBE4FBE4FBE4FBE4FBE4FBE4FBA8
S1131844E4FBE4FBE4FBE4FBE4FBE4FBE4FBE4FB98
S1131854E4FBE4FBE4FBE4FBE4FBE4FBE4FBE4FB88
S1131864E4FBFFFFE4FBE4FBE4FBE4FBE4FBE4FB59
S1131874E4FBE4FBE4FBE4FBE4FBE4FBE4FBE4FB68
S1131884E4FBE4FBE4FBE4FBE4FBE4FBE4FBE4FB58
S1131894E4FBE4FBE4FBE4FBE4FBFFFFFFFFE4FB0A
S11318A4E4FBE4FBE4FBE4FBE4FBE4FBE4FBE4FB38
S11318B4E4FBE4FBE4FBE4FBE4FBE4FBE4FBE4FB28
S11318C4E4FBE4FBE4FBE4FBE4FBE4FBE4FBE4FB18
S11318D4E4FBE4FBE4FBE4FBFFFFE4FBE4FBE4FBE9
S11318E4E4FBE4FBE4FBE4FBE4FBE4FBE4FBE4FBF8
S11318F4E4FBE4FBE4FBE4FBE4FBE4FBE4FBE4FBE8
S1131904E4FBE4FBE4FBE4FBE4FBE4FBE4FBE4FBD7
S1131914E4FBE4FBE4FBFFFFE4FBE4FBE4FBE4FBA8
S1131924E4FBE4FBE4FBE4FBE4FBE4FBE4FBE4FBB7
S1131934E4FBE4FBE4FBE4FBE4FBE4FBE4FBE4FBA7
S1131944E4FBE4FBE4FBE4FBE4FBE4FBE4FBFFFF78
S1131954FFFFE4FBE4FBE4FBE4FBE4FBE4FBE4FB68
S1131964E4FBE4FBE4FBE4FBE4FBE4FBE4FBE4FB77
S1131974E4FBE4FBE4FBE4FBE4FBE4FBE4FBE4FB67
S1131984E4FBE4FBE4FBE4FBE4FBE4FBFFFFE4FB38
S1131994E4FBE4FBE4FBE4FBE4FBE4FBE4FBE4FB47
S11319A4E4FBE4FBE4FBE4FBE4FBE4FBE4FBE4FB37
S11319B4E4FBE4FBE4FBE4FBE4FBE4FBE4FBE4FB27
S11319C4E4FBE4FBE4FBE4FBE4FBFFFFE4FBE4FBF8
S11319D4E4FBE4FBE4FBE4FBE4FBE4FBE4FBE4FB07
S11319E4E4FBE4FBE4FBE4FBE4FBE4FBE4FBE4FBF7
S11319F4E4FBE4FBE4FBE4FBE4FBE4FBE4FBE4FBE7
S1131A04E4FBFFFFFFFFE4FBE4FBE4FBE4FBE4FB98
S1131A14E4FBE4FBE4FBE4FBE4FBE4FBE4FBE4FBC6
S1131A24E4FBE4FBE4FBE4FBE4FBE4FBE4FBE4FBB6
S1131A34E4FBE4FBE4FBE4FBE4FBE4FBE4FBE4FBA6
S1131A44FFFFE4FBE4FBE4FBE4FBE4FBE4FBE4FB77
S1131A54E4FBE4FBE4FBE4FBE4FBE4FBE4FBE4FB86
S1131A64E4FBE4FBE4FBE4FBE4FBE4FBE4FBE4FB76
S1131A74E4FBE4FBE4FBE4FBE4FBE4FBE4FBFFFF47
S1131A84E4FBE4FBE4FBE4FBE4FBE4FBE4FBE4FB56
S1131A94E4FBE4FBE4FBE4FBE4FBE4FBE4FBE4FB46
S1131AA4E4FBE4FBE4FBE4FBE4FBE4FBE4FBE4FB36
S1131AB4E4FBE4FBE4FBFFFFFFFFE4FBE4FBE4FBE8
S1131AC4E4FBE4FBE4FBE4FBE4FBE4FBE4FBE4FB16
S1131AD4E4FBE4FBE4FBE4FBE4FBE4FBE4FBE4FB06
S1131AE4E4FBE4FBE4FBE4FBE4FBE4FBE4FBE4FBF6
S1131AF4E4FBE4FBFFFFE4FBE4FBE4FBE4FBE4FBC7
S1131B04E4FBE4FBE4FBE4FBE4FBE4FBE4FBE4FBD5
S1131B14E4FBE4FBE4FBE4FBE4FBE4FBE4FBE4FBC5
S1131B24E4FBE4FBE4FBE4FBE4FBE4FBE4FBE4FBB5
S1131B34E4FBFFFFE4FBE4FBE4FBE4FBE4FBE4FB86
S1131B44E4FBE4FBE4FBE4FBE4FBE4FBE4FBE4FB95
S1131B54E4FBE4FBE4FBE4FBE4FBE4FBE4FBE4FB85
S1131B64E4FBE4FBE4FBE4FBE4FBFFFFFFFFE4FB37
S1131B74E4FBE4FBE4FBE4FBE4FBE4FBE4FBE4FB65
S1131B84E4FBE4FBE4FBE4FBE4FBE4FBE4FBE4FB55
S1131B94E4FBE4FBE4FBE4FBE4FBE4FBE4FBE4FB45
S1131BA4E4FBE4FBE4FBE4FBFFFFE4FBE4FBE4FB16
S1131BB4E4FBE4FBE4FBE4FBE4FBE4FBE4FBE4FB25
S1131BC4E4FBE4FBE4FBE4FBE4FBE4FBE4FBE4FB15
S1131BD4E4FBE4FBE4FBE4FBE4FBE4FBE4FBE4FB05
S1131BE4E4FBE4FBE4FBFFFFE4FBE4FBE4FBE4FBD6
S1131BF4E4FBE4FBE4FBE4FBE4FBE4FBE4FBE4FBE5
S1131C04E4FBE4FBE4FBE4FBE4FBE4FBE4FBE4FBD4
S1131C14E4FBE4FBE4FBE4FBE4FBE4FBE4FBFFFFA5
S1131C24FFFFE4FBE4FBE4FBE4FBE4FBE4FBE4FB95
S1131C34E4FBE4FBE4FBE4FBE4FBE4FBE4FBE4FBA4
S1131C44E4FBE4FBE4FBE4FBE4FBE4FBE4FBE4FB94
S1131C54E4FBE4FBE4FBE4FBE4FBE4FBFFFFE4FB65
S1131C64E4FBE4FBE4FBE4FBE4FBE4FBE4FBE4FB74
S1131C74E4FBE4FBE4FBE4FBE4FBE4FBE4FBE4FB64
S1131C84E4FBE4FBE4FBE4FBE4FBE4FBE4FBE4FB54
S1131C94E4FBE4FBE4FBE4FBE4FBFFFFE4FBE4FB25
S1131CA4E4FBE4FBE4FBE4FBE4FBE4FBE4FBE4FB34
S1131CB4E4FBE4FBE4FBE4FBE4FBE4FBE4FBE4FB24
S1131CC4E4FBE4FBE4FBE4FBE4FBE4FBE4FBE4FB14
S1131CD4E4FBFFFFFFFFE4FBE4FBE4FBE4FBE4FBC6
S1131CE4E4FBE4FBE4FBE4FBE4FBE4FBE4FBE4FBF4
S1131CF4E4FBE4FBE4FBE4FBE4FBE4FBE4FBE4FBE4
S1131D04E4FBE4FBE4FBE4FBE4FBE4FBE4FBE4FBD3
S1131D14FFFFE4FBE4FBE4FBE4FBE4FBE4FBE4FBA4
S1131D24E4FBE4FBE4FBE4FBE4FBE4FBE4FBE4FBB3
S1131D34E4FBE4FBE4FBE4FBE4FBE4FBE4FBE4FBA3
S1131D44E4FBE4FBE4FBE4FBE4FBE4FBE4FBFFFF74
S1131D54E4FBE4FBE4FBE4FBE4FBE4FBE4FBE4FB83
S1131D64E4FBE4FBE4FBE4FBE4FBE4FBE4FBE4FB73
S1131D74E4FBE4FBE4FBE4FBE4FBE4FBE4FBE4FB63
S1131D84E4FBE4FBE4FBFFFFFFFFE4FBE4FBE4FB15
S1131D94E4FBE4FBE4FBE4FBE4FBE4FBE4FBE4FB43
S1131DA4E4FBE4FBE4FBE4FBE4FBE4FBE4FBE4FB33
S1131DB4E4FBE4FBE4FBE4FBE4FBE4FBE4FBE4FB23
S1131DC4E4FBE4FBFFFFE4FBE4FBE4FBE4FBE4FBF4
S1131DD4E4FBE4FBE4FBE4FBE4FBE4FBE4FBE4FB03
S1131DE4E4FBE4FBE4FBE4FBE4FBE4FBE4FBE4FBF3
S1131DF4E4FBE4FBE4FBE4FBE4FBE4FBE4FBE4FBE3
S1131E04E4FBFFFFE4FBE4FBE4FBE4FBE4FBE4FBB3
S1131E14E4FBE4FBE4FBE4FBE4FBE4FBE4FBE4FBC2
S1131E24E4FBE4FBE4FBE4FBE4FBE4FBE4FBE4FBB2
S1131E34E4FBE4FBE4FBE4FBE4FBFFFFFFFFE4FB64
S1131E44E4FBE4FBE4FBE4FBE4FBE4FBE4FBE4FB92
S1131E54E4FBE4FBE4FBE4FBE4FBE4FBE4FBE4FB82
S1131E64E4FBE4FBE4FBE4FBE4FBE4FBE4FBE4FB72
S1131E74E4FBE4FBE4FBE4FBFFFFE4FBE4FBE4FB43
S1131E84E4FBE4FBE4FBE4FBE4FBE4FBE4FBE4FB52
S1131E94E4FBE4FBE4FBE4FBE4FBE4FBE4FBE4FB42
S1131EA4E4FBE4FBE4FBE4FBE4FBE4FBE4FBE4FB32
S1131EB4E4FBE4FBE4FBFFFFE4FBE4FBE4FBE4FB03
S1131EC4E4FBE4FBE4FBE4FBE4FBE4FBE4FBE4FB12
S1131ED4E4FBE4FBE4FBE4FBE4FBE4FBE4FBE4FB02
S1131EE4E4FBE4FBE4FBE4FBE4FBE4FBE4FBFFFFD3
S1131EF4FFFFE4FBE4FBE4FBE4FBE4FBE4FBE4FBC3
S1131F04E4FBE4FBE4FBE4FBE4FBE4FBE4FBE4FBD1
S1131F14E4FBE4FBE4FBE4FBE4FBE4FBE4FBE4FBC1
S1131F24E4FBE4FBE4FBE4FBE4FBE4FBFFFFE4FB92
S1131F34E4FBE4FBE4FBE4FBE4FBE4FBE4FBE4FBA1
S1131F44E4FBE4FBE4FBE4FBE4FBE4FBE4FBE4FB91
S1131F54E4FBE4FBE4FBE4FBE4FBE4FBE4FBE4FB81
S1131F64E4FBE4FBE4FBE4FBE4FBFFFFE4FBE4FB52
S1131F74E4FBE4FBE4FBE4FBE4FBE4FBE4FBE4FB61
S1131F84E4FBE4FBE4FBE4FBE4FBE4FBE4FBE4FB51
S1131F94E4FBE4FBE4FBE4FBE4FBE4FBE4FBE4FB41
S1131FA4E4FBFFFFFFFFE4FBE4FBE4FBE4FBE4FBF3
S1131FB4E4FBE4FBE4FBE4FBE4FBE4FBE4FBE4FB21
S1131FC4E4FBE4FBE4FBE4FBE4FBE4FBE4FBE4FB11
S1131FD4E4FBE4FBE4FBE4FBE4FBE4FBE4FBE4FB01
S1131FE4FFFFE4FBE4FBE4FBE4FBE4FBE4FBE4FBD2
S1131FF4E4FBE4FBE4FBE4FBE4FBE4FBE4FBE4FBE1
S1132004E4FBE4FBE4FBE4FBE4FBE4FBE4FBE4FBD0
S1132014E4FBE4FBE4FBE4FBE4FBE4FBE4FBFFFFA1
S1132024E4FBE4FBE4FBE4FBE4FBE4FBE4FBE4FBB0
S1132034E4FBE4FBE4FBE4FBE4FBE4FBE4FBE4FBA0
S1132044E4FBE4FBE4FBE4FBE4FBE4FBE4FBE4FB90
S1132054E4FBE4FBE4FBFFFFFFFFE4FBE4FBE4FB42
S1132064E4FBE4FBE4FBE4FBE4FBE4FBE4FBE4FB70
S1132074E4FBE4FBE4FBE4FBE4FBE4FBE4FBE4FB60
S1132084E4FBE4FBE4FBE4FBE4FBE4FBE4FBE4FB50
S1132094E4FBE4FBFFFFE4FBE4FBE4FBE4FBE4FB21
S11320A4E4FBE4FBE4FBE4FBE4FBE4FBE4FBE4FB30
S11320B4E4FBE4FBE4FBE4FBE4FBE4FBE4FBE4FB20
S11320C4E4FBE4FBE4FBE4FBE4FBE4FBE4FBE4FB10
S11320D4E4FBFFFFE4FBE4FBE4FBE4FBE4FBE4FBE1
S11320E4E4FBE4FBE4FBE4FBE4FBE4FBE4FBE4FBF0
S11320F4E4FBE4FBE4FBE4FBE4FBE4FBE4FBE4FBE0
S1132104E4FBE4FBE4FBE4FBE4FBFFFFFFFFE4FB91
S1132114E4FBE4FBE4FBE4FBE4FBE4FBE4FBE4FBBF
S1132124E4FBE4FBE4FBE4FBE4FBE4FBE4FBE4FBAF
S1132134E4FBE4FBE4FBE4FBE4FBE4FBE4FBE4FB9F
S1132144E4FBE4FBE4FBE4FBFFFFE4FBE4FBE4FB70
S1132154E4FBE4FBE4FBE4FBE4FBE4FBE4FBE4FB7F
S1132164E4FBE4FBE4FBE4FBE4FBE4FBE4FBE4FB6F
S1132174E4FBE4FBE4FBE4FBE4FBE4FBE4FBE4FB5F
S1132184E4FBE4FBE4FBFFFFE4FBE4FBE4FBE4FB30
S1132194E4FBE4FBE4FBE4FBE4FBE4FBE4FBE4FB3F
S11321A4E4FBE4FBE4FBE4FBE4FBE4FBE4FBE4FB2F
S11321B4E4FBE4FBE4FBE4FBE4FBE4FBE4FBFFFF00
S11321C4FFFFE4FBE4FBE4FBE4FBE4FBE4FBE4FBF0
S11321D4E4FBE4FBE4FBE4FBE4FBE4FBE4FBE4FBFF
S11321E4E4FBE4FBE4FBE4FBE4FBE4FBE4FBE4FBEF
S11321F4E4FBE4FBE4FBE4FBE4FBE4FBFFFFE4FBC0
S1132204E4FBE4FBE4FBE4FBE4FBE4FBE4FBE4FBCE
S1132214E4FBE4FBE4FBE4FBE4FBE4FBE4FBE4FBBE
S1132224E4FBE4FBE4FBE4FBE4FBE4FBE4FBE4FBAE
S1132234E4FBE4FBE4FBE4FBE4FBFFFFE4FBE4FB7F
S1132244E4FBE4FBE4FBE4FBE4FBE4FBE4FBE4FB8E
S1132254E4FBE4FBE4FBE4FBE4FBE4FBE4FBE4FB7E
S1132264E4FBE4FBE4FBE4FBE4FBE4FBE4FBE4FB6E
S1132274E4FBFFFFFFFFE4FBE4FBE4FBE4FBE4FB20
S1132284E4FBE4FBE4FBE4FBE4FBE4FBE4FBE4FB4E
S1132294E4FBE4FBE4FBE4FBE4FBE4FBE4FBE4FB3E
S11322A4E4FBE4FBE4FBE4FBE4FBE4FBE4FBE4FB2E
S11322B4FFFFE4FBE4FBE4FBE4FBE4FBE4FBE4FBFF
S11322C4E4FBE4FBE4FBE4FBE4FBE4FBE4FBE4FB0E
S11322D4E4FBE4FBE4FBE4FBE4FBE4FBE4FBE4FBFE
S11322E4E4FBE4FBE4FBE4FBE4FBE4FBE4FBFFFFCF
S11322F4E4FBE4FBE4FBE4FBE4FBE4FBE4FBE4FBDE
S1132304E4FBE4FBE4FBE4FBE4FBE4FBE4FBE4FBCD
S1132314E4FBE4FBE4FBE4FBE4FBE4FBE4FBE4FBBD
S1132324E4FBE4FBE4FBFFFFFFFFE4FBE4FBE4FB6F
S1132334E4FBE4FBE4FBE4FBE4FBE4FBE4FBE4FB9D
S1132344E4FBE4FBE4FBE4FBE4FBE4FBE4FBE4FB8D
S1132354E4FBE4FBE4FBE4FBE4FBE4FBE4FBE4FB7D
S1132364E4FBE4FBFFFFE4FBE4FBE4FBE4FBE4FB4E
S1132374E4FBE4FBE4FBE4FBE4FBE4FBE4FBE4FB5D
S1132384E4FBE4FBE4FBE4FBE4FBE4FBE4FBE4FB4D
S1132394E4FBE4FBE4FBE4FBE4FBE4FBE4FBE4FB3D
S11323A4E4FBFFFFE4FBE4FBE4FBE4FBE4FBE4FB0E
S11323B4E4FBE4FBE4FBE4FBE4FBE4FBE4FBE4FB1D
S11323C4E4FBE4FBE4FBE4FBE4FBE4FBE4FBE4FB0D
S11323D4E4FBE4FBE4FBE4FBE4FBFFFFFFFFE4FBBF
S11323E4E4FBE4FBE4FBE4FBE4FBE4FBE4FBE4FBED
S11323F4E4FBE4FBE4FBE4FBE4FBE4FBE4FBE4FBDD
S1132404E4FBE4FBE4FBE4FBE4FBE4FBE4FBE4FBCC
S1132414E4FBE4FBE4FBE4FBFFFFE4FBE4FBE4FB9D
S1132424E4FBE4FBE4FBE4FBE4FBE4FBE4FBE4FBAC
S1132434E4FBE4FBE4FBE4FBE4FBE4FBE4FBE4FB9C
S1132444E4FBE4FBE4FBE4FBE4FBE4FBE4FBE4FB8C
S1132454E4FBE4FBE4FBFFFFE4FBE4FBE4FBE4FB5D
S1132464E4FBE4FBE4FBE4FBE4FBE4FBE4FBE4FB6C
S1132474E4FBE4FBE4FBE4FBE4FBE4FBE4FBE4FB5C
S1132484E4FBE4FBE4FBE4FBE4FBE4FBE4FBFFFF2D
S1132494FFFFE4FBE4FBE4FBE4FBE4FBE4FBE4FB1D
S11324A4E4FBE4FBE4FBE4FBE4FBE4FBE4FBE4FB2C
S11324B4E4FBE4FBE4FBE4FBE4FBE4FBE4FBE4FB1C
S11324C4E4FBE4FBE4FBE4FBE4FBE4FBFFFFE4FBED
S11324D4E4FBE4FBE4FBE4FBE4FBE4FBE4FBE4FBFC
S11324E4E4FBE4FBE4FBE4FBE4FBE4FBE4FBE4FBEC
S11324F4E4FBE4FBE4FBE4FBE4FBE4FBE4FBE4FBDC
S1132504E4FBE4FBE4FBE4FBE4FBFFFFE4FBE4FBAC
S1132514E4FBE4FBE4FBE4FBE4FBE4FBE4FBE4FBBB
S1132524E4FBE4FBE4FBE4FBE4FBE4FBE4FBE4FBAB
S1132534E4FBE4FBE4FBE4FBE4FBE4FBE4FBE4FB9B
S1132544E4FBFFFFFFFFE4FBE4FBE4FBE4FBE4FB4D
S1132554E4FBE4FBE4FBE4FBE4FBE4FBE4FBE4FB7B
S1132564E4FBE4FBE4FBE4FBE4FBE4FBE4FBE4FB6B
S1132574E4FBE4FBE4FBE4FBE4FBE4FBE4FBE4FB5B
S1132584FFFFE4FBE4FBE4FBE4FBE4FBE4FBE4FB2C
S1132594E4FBE4FBE4FBE4FBE4FBE4FBE4FBE4FB3B
S11325A4E4FBE4FBE4FBE4FBE4FBE4FBE4FBE4FB2B
S11325B4E4FBE4FBE4FBE4FBE4FBE4FBE4FBFFFFFC
S11325C4E4FBE4FBE4FBE4FBE4FBE4FBE4FBE4FB0B
S11325D4E4FBE4FBE4FBE4FBE4FBE4FBE4FBE4FBFB
S11325E4E4FBE4FBE4FBE4FBE4FBE4FBE4FBE4FBEB
S11325F4E4FBE4FBE4FBFFFFFFFFFFFFFFFFFFFF40
S1132604FFFFFFFFFFFFFFFFFFFFFFFFFFFFFFFFD2
S1132614FFFFFFFFFFFFFFFFFFFFFFFFFFFFFFFFC2
S1132624FFFFFFFFFFFFFFFFFFFFFFFFFFFFFFFFB2
S1132634FFFFFFFFFFFFFFFFFFFFFFFFFFFFFFFFA2
S1132644FFFFFFFFFFFFFFFFFFFFFFFFFFFFFFFF92
S1132654FFFFFFFFFFFFFFFFFFFFFFFFFFFFFFFF82
S1132664FFFFFFFFFFFFFFFFFFFFFFFFFFFFFFFF72
S1132674FFFFFFFFFFFFFFFFFFFFFFFFFFFFFFFF62
S1132684FFFFFFFFFFFFFFFFFFFFFFFFFFFFFFFF52
S1132694FFFFFFFFFFFFFFFFFFFFFFFFFFFFFFFF42
S11326A4FFFFFFFFFFFFFFFFFFFFFFFFFFFFE4FB51
S11326B4E4FBE4FBE4FBE4FBE4FBE4FBE4FBE4FB1A
S11326C4E4FBE4FBE4FBE4FBE4FBE4FBE4FBE4FB0A
S11326D4E4FBE4FBE4FBE4FBE4FBE4FBE4FBE4FBFA
S11326E4E4FBE4FBE4FBE4FBFFFFE4FBE4FBE4FBCB
S11326F4E4FBE4FBE4FBE4FBE4FBE4FBE4FBE4FBDA
S1132704E4FBE4FBE4FBE4FBE4FBE4FBE4FBE4FBC9
S1132714E4FBE4FBE4FBE4FBE4FBE4FBE4FBE4FBB9
S1132724E4FBE4FBE4FBFFFFE4FBE4FBE4FBE4FB8A
S1132734E4FBE4FBE4FBE4FBE4FBE4FBE4FBE4FB99
S1132744E4FBE4FBE4FBE4FBE4FBE4FBE4FBE4FB89
S1132754E4FBE4FBE4FBE4FBE4FBE4FBE4FBFFFF5A
S1132764FFFFE4FBE4FBE4FBE4FBE4FBE4FBE4FB4A
S1132774E4FBE4FBE4FBE4FBE4FBE4FBE4FBE4FB59
S1132784E4FBE4FBE4FBE4FBE4FBE4FBE4FBE4FB49
S1132794E4FBE4FBE4FBE4FBE4FBE4FBFFFFE4FB1A
S11327A4E4FBE4FBE4FBE4FBE4FBE4FBE4FBE4FB29
S11327B4E4FBE4FBE4FBE4FBE4FBE4FBE4FBE4FB19
S11327C4E4FBE4FBE4FBE4FBE4FBE4FBE4FBE4FB09
S11327D4E4FBE4FBE4FBE4FBE4FBFFFFE4FBE4FBDA
S11327E4E4FBE4FBE4FBE4FBE4FBE4FBE4FBE4FBE9
S11327F4E4FBE4FBE4FBE4FBE4FBE4FBE4FBE4FBD9
S1132804E4FBE4FBE4FBE4FBE4FBE4FBE4FBE4FBC8
S1132814E4FBFFFFFFFFE4FBE4FBE4FBE4FBE4FB7A
S1132824E4FBE4FBE4FBE4FBE4FBE4FBE4FBE4FBA8
S1132834E4FBE4FBE4FBE4FBE4FBE4FBE4FBE4FB98
S1132844E4FBE4FBE4FBE4FBE4FBE4FBE4FBE4FB88
S1132854FFFFE4FBE4FBE4FBE4FBE4FBE4FBE4FB59
S1132864E4FBE4FBE4FBE4FBE4FBE4FBE4FBE4FB68
S1132874E4FBE4FBE4FBE4FBE4FBE4FBE4FBE4FB58
S1132884E4FBE4FBE4FBE4FBE4FBE4FBE4FBFFFF29
S1132894E4FBE4FBE4FBE4FBE4FBE4FBE4FBE4FB38
S11328A4E4FBE4FBE4FBE4FBE4FBE4FBE4FBE4FB28
S11328B4E4FBE4FBE4FBE4FBE4FBE4FBE4FBE4FB18
S11328C4E4FBE4FBE4FBFFFFFFFFE4FBE4FBE4FBCA
S11328D4E4FBE4FBE4FBE4FBE4FBE4FBE4FBE4FBF8
S11328E4E4FBE4FBE4FBE4FBE4FBE4FBE4FBE4FBE8
S11328F4E4FBE4FBE4FBE4FBE4FBE4FBE4FBE4FBD8
S1132904E4FBE4FBFFFFE4FBE4FBE4FBE4FBE4FBA8
S1132914E4FBE4FBE4FBE4FBE4FBE4FBE4FBE4FBB7
S1132924E4FBE4FBE4FBE4FBE4FBE4FBE4FBE4FBA7
S1132934E4FBE4FBE4FBE4FBE4FBE4FBE4FBE4FB97
S1132944E4FBFFFFE4FBE4FBE4FBE4FBE4FBE4FB68
S1132954E4FBE4FBE4FBE4FBE4FBE4FBE4FBE4FB77
S1132964E4FBE4FBE4FBE4FBE4FBE4FBE4FBE4FB67
S1132974E4FBE4FBE4FBE4FBE4FBFFFFFFFFE4FB19
S1132984E4FBE4FBE4FBE4FBE4FBE4FBE4FBE4FB47
S1132994E4FBE4FBE4FBE4FBE4FBE4FBE4FBE4FB37
S11329A4E4FBE4FBE4FBE4FBE4FBE4FBE4FBE4FB27
S11329B4E4FBE4FBE4FBE4FBFFFFE4FBE4FBE4FBF8
S11329C4E4FBE4FBE4FBE4FBE4FBE4FBE4FBE4FB07
S11329D4E4FBE4FBE4FBE4FBE4FBE4FBE4FBE4FBF7
S11329E4E4FBE4FBE4FBE4FBE4FBE4FBE4FBE4FBE7
S11329F4E4FBE4FBE4FBFFFFE4FBE4FBE4FBE4FBB8
S1132A04E4FBE4FBE4FBE4FBE4FBE4FBE4FBE4FBC6
S1132A14E4FBE4FBE4FBE4FBE4FBE4FBE4FBE4FBB6
S1132A24E4FBE4FBE4FBE4FBE4FBE4FBE4FBFFFF87
S1132A34FFFFE4FBE4FBE4FBE4FBE4FBE4FBE4FB77
S1132A44E4FBE4FBE4FBE4FBE4FBE4FBE4FBE4FB86
S1132A54E4FBE4FBE4FBE4FBE4FBE4FBE4FBE4FB76
S1132A64E4FBE4FBE4FBE4FBE4FBE4FBFFFFE4FB47
S1132A74E4FBE4FBE4FBE4FBE4FBE4FBE4FBE4FB56
S1132A84E4FBE4FBE4FBE4FBE4FBE4FBE4FBE4FB46
S1132A94E4FBE4FBE4FBE4FBE4FBE4FBE4FBE4FB36
S1132AA4E4FBE4FBE4FBE4FBE4FBFFFFE4FBE4FB07
S1132AB4E4FBE4FBE4FBE4FBE4FBE4FBE4FBE4FB16
S1132AC4E4FBE4FBE4FBE4FBE4FBE4FBE4FBE4FB06
S1132AD4E4FBE4FBE4FBE4FBE4FBE4FBE4FBE4FBF6
S1132AE4E4FBFFFFFFFFE4FBE4FBE4FBE4FBE4FBA8
S1132AF4E4FBE4FBE4FBE4FBE4FBE4FBE4FBE4FBD6
S1132B04E4FBE4FBE4FBE4FBE4FBE4FBE4FBE4FBC5
S1132B14E4FBE4FBE4FBE4FBE4FBE4FBE4FBE4FBB5
S1132B24FFFFE4FBE4FBE4FBE4FBE4FBE4FBE4FB86
S1132B34E4FBE4FBE4FBE4FBE4FBE4FBE4FBE4FB95
S1132B44E4FBE4FBE4FBE4FBE4FBE4FBE4FBE4FB85
S1132B54E4FBE4FBE4FBE4FBE4FBE4FBE4FBFFFF56
S1132B64E4FBE4FBE4FBE4FBE4FBE4FBE4FBE4FB65
S1132B74E4FBE4FBE4FBE4FBE4FBE4FBE4FBE4FB55
S1132B84E4FBE4FBE4FBE4FBE4FBE4FBE4FBE4FB45
S1132B94E4FBE4FBE4FBFFFFFFFFE4FBE4FBE4FBF7
S1132BA4E4FBE4FBE4FBE4FBE4FBE4FBE4FBE4FB25
S1132BB4E4FBE4FBE4FBE4FBE4FBE4FBE4FBE4FB15
S1132BC4E4FBE4FBE4FBE4FBE4FBE4FBE4FBE4FB05
S1132BD4E4FBE4FBFFFFE4FBE4FBE4FBE4FBE4FBD6
S1132BE4E4FBE4FBE4FBE4FBE4FBE4FBE4FBE4FBE5
S1132BF4E4FBE4FBE4FBE4FBE4FBE4FBE4FBE4FBD5
S1132C04E4FBE4FBE4FBE4FBE4FBE4FBE4FBE4FBC4
S1132C14E4FBFFFFE4FBE4FBE4FBE4FBE4FBE4FB95
S1132C24E4FBE4FBE4FBE4FBE4FBE4FBE4FBE4FBA4
S1132C34E4FBE4FBE4FBE4FBE4FBE4FBE4FBE4FB94
S1132C44E4FBE4FBE4FBE4FBE4FBFFFFFFFFE4FB46
S1132C54E4FBE4FBE4FBE4FBE4FBE4FBE4FBE4FB74
S1132C64E4FBE4FBE4FBE4FBE4FBE4FBE4FBE4FB64
S1132C74E4FBE4FBE4FBE4FBE4FBE4FBE4FBE4FB54
S1132C84E4FBE4FBE4FBE4FBFFFFE4FBE4FBE4FB25
S1132C94E4FBE4FBE4FBE4FBE4FBE4FBE4FBE4FB34
S1132CA4E4FBE4FBE4FBE4FBE4FBE4FBE4FBE4FB24
S1132CB4E4FBE4FBE4FBE4FBE4FBE4FBE4FBE4FB14
S1132CC4E4FBE4FBE4FBFFFFE4FBE4FBE4FBE4FBE5
S1132CD4E4FBE4FBE4FBE4FBE4FBE4FBE4FBE4FBF4
S1132CE4E4FBE4FBE4FBE4FBE4FBE4FBE4FBE4FBE4
S1132CF4E4FBE4FBE4FBE4FBE4FBE4FBE4FBFFFFB5
S1132D04FFFFE4FBE4FBE4FBE4FBE4FBE4FBE4FBA4
S1132D14E4FBE4FBE4FBE4FBE4FBE4FBE4FBE4FBB3
S1132D24E4FBE4FBE4FBE4FBE4FBE4FBE4FBE4FBA3
S1132D34E4FBE4FBE4FBE4FBE4FBE4FBFFFFE4FB74
S1132D44E4FBE4FBE4FBE4FBE4FBE4FBE4FBE4FB83
S1132D54E4FBE4FBE4FBE4FBE4FBE4FBE4FBE4FB73
S1132D64E4FBE4FBE4FBE4FBE4FBE4FBE4FBE4FB63
S1132D74E4FBE4FBE4FBE4FBE4FBFFFFE4FBE4FB34
S1132D84E4FBE4FBE4FBE4FBE4FBE4FBE4FBE4FB43
S1132D94E4FBE4FBE4FBE4FBE4FBE4FBE4FBE4FB33
S1132DA4E4FBE4FBE4FBE4FBE4FBE4FBE4FBE4FB23
S1132DB4E4FBFFFFFFFFE4FBE4FBE4FBE4FBE4FBD5
S1132DC4E4FBE4FBE4FBE4FBE4FBE4FBE4FBE4FB03
S1132DD4E4FBE4FBE4FBE4FBE4FBE4FBE4FBE4FBF3
S1132DE4E4FBE4FBE4FBE4FBE4FBE4FBE4FBE4FBE3
S1132DF4FFFFE4FBE4FBE4FBE4FBE4FBE4FBE4FBB4
S1132E04E4FBE4FBE4FBE4FBE4FBE4FBE4FBE4FBC2
S1132E14E4FBE4FBE4FBE4FBE4FBE4FBE4FBE4FBB2
S1132E24E4FBE4FBE4FBE4FBE4FBE4FBE4FBFFFF83
S1132E34E4FBE4FBE4FBE4FBE4FBE4FBE4FBE4FB92
S1132E44E4FBE4FBE4FBE4FBE4FBE4FBE4FBE4FB82
S1132E54E4FBE4FBE4FBE4FBE4FBE4FBE4FBE4FB72
S1132E64E4FBE4FBE4FBFFFFFFFFE4FBE4FBE4FB24
S1132E74E4FBE4FBE4FBE4FBE4FBE4FBE4FBE4FB52
S1132E84E4FBE4FBE4FBE4FBE4FBE4FBE4FBE4FB42
S1132E94E4FBE4FBE4FBE4FBE4FBE4FBE4FBE4FB32
S1132EA4E4FBE4FBFFFFE4FBE4FBE4FBE4FBE4FB03
S1132EB4E4FBE4FBE4FBE4FBE4FBE4FBE4FBE4FB12
S1132EC4E4FBE4FBE4FBE4FBE4FBE4FBE4FBE4FB02
S1132ED4E4FBE4FBE4FBE4FBE4FBE4FBE4FBE4FBF2
S1132EE4E4FBFFFFE4FBE4FBE4FBE4FBE4FBE4FBC3
S1132EF4E4FBE4FBE4FBE4FBE4FBE4FBE4FBE4FBD2
S1132F04E4FBE4FBE4FBE4FBE4FBE4FBE4FBE4FBC1
S1132F14E4FBE4FBE4FBE4FBE4FBFFFFFFFFE4FB73
S1132F24E4FBE4FBE4FBE4FBE4FBE4FBE4FBE4FBA1
S1132F34E4FBE4FBE4FBE4FBE4FBE4FBE4FBE4FB91
S1132F44E4FBE4FBE4FBE4FBE4FBE4FBE4FBE4FB81
S1132F54E4FBE4FBE4FBE4FBFFFFE4FBE4FBE4FB52
S1132F64E4FBE4FBE4FBE4FBE4FBE4FBE4FBE4FB61
S1132F74E4FBE4FBE4FBE4FBE4FBE4FBE4FBE4FB51
S1132F84E4FBE4FBE4FBE4FBE4FBE4FBE4FBE4FB41
S1132F94E4FBE4FBE4FBFFFFE4FBE4FBE4FBE4FB12
S1132FA4E4FBE4FBE4FBE4FBE4FBE4FBE4FBE4FB21
S1132FB4E4FBE4FBE4FBE4FBE4FBE4FBE4FBE4FB11
S1132FC4E4FBE4FBE4FBE4FBE4FBE4FBE4FBFFFFE2
S1132FD4FFFFE4FBE4FBE4FBE4FBE4FBE4FBE4FBD2
S1132FE4E4FBE4FBE4FBE4FBE4FBE4FBE4FBE4FBE1
S1132FF4E4FBE4FBE4FBE4FBE4FBE4FBE4FBE4FBD1
S1133004E4FBE4FBE4FBE4FBE4FBE4FBFFFFE4FBA1
S1133014E4FBE4FBE4FBE4FBE4FBE4FBE4FBE4FBB0
S1133024E4FBE4FBE4FBE4FBE4FBE4FBE4FBE4FBA0
S1133034E4FBE4FBE4FBE4FBE4FBE4FBE4FBE4FB90
S1133044E4FBE4FBE4FBE4FBE4FBFFFFE4FBE4FB61
S1133054E4FBE4FBE4FBE4FBE4FBE4FBE4FBE4FB70
S1133064E4FBE4FBE4FBE4FBE4FBE4FBE4FBE4FB60
S1133074E4FBE4FBE4FBE4FBE4FBE4FBE4FBE4FB50
S1133084E4FBFFFFFFFFE4FBE4FBE4FBE4FBE4FB02
S1133094E4FBE4FBE4FBE4FBE4FBE4FBE4FBE4FB30
S11330A4E4FBE4FBE4FBE4FBE4FBE4FBE4FBE4FB20
S11330B4E4FBE4FBE4FBE4FBE4FBE4FBE4FBE4FB10
S11330C4FFFFE4FBE4FBE4FBE4FBE4FBE4FBE4FBE1
S11330D4E4FBE4FBE4FBE4FBE4FBE4FBE4FBE4FBF0
S11330E4E4FBE4FBE4FBE4FBE4FBE4FBE4FBE4FBE0
S11330F4E4FBE4FBE4FBE4FBE4FBE4FBE4FBFFFFB1
S1133104E4FBE4FBE4FBE4FBE4FBE4FBE4FBE4FBBF
S1133114E4FBE4FBE4FBE4FBE4FBE4FBE4FBE4FBAF
S1133124E4FBE4FBE4FBE4FBE4FBE4FBE4FBE4FB9F
S1133134E4FBE4FBE4FBFFFFFFFFE4FBE4FBE4FB51
S1133144E4FBE4FBE4FBE4FBE4FBE4FBE4FBE4FB7F
S1133154E4FBE4FBE4FBE4FBE4FBE4FBE4FBE4FB6F
S1133164E4FBE4FBE4FBE4FBE4FBE4FBE4FBE4FB5F
S1133174E4FBE4FBFFFFE4FBE4FBE4FBE4FBE4FB30
S1133184E4FBE4FBE4FBE4FBE4FBE4FBE4FBE4FB3F
S1133194E4FBE4FBE4FBE4FBE4FBE4FBE4FBE4FB2F
S11331A4E4FBE4FBE4FBE4FBE4FBE4FBE4FBE4FB1F
S11331B4E4FBFFFFE4FBE4FBE4FBE4FBE4FBE4FBF0
S11331C4E4FBE4FBE4FBE4FBE4FBE4FBE4FBE4FBFF
S11331D4E4FBE4FBE4FBE4FBE4FBE4FBE4FBE4FBEF
S11331E4E4FBE4FBE4FBE4FBE4FBFFFFFFFFE4FBA1
S11331F4E4FBE4FBE4FBE4FBE4FBE4FBE4FBE4FBCF
S1133204E4FBE4FBE4FBE4FBE4FBE4FBE4FBE4FBBE
S1133214E4FBE4FBE4FBE4FBE4FBE4FBE4FBE4FBAE
S1133224E4FBE4FBE4FBE4FBFFFFE4FBE4FBE4FB7F
S1133234E4FBE4FBE4FBE4FBE4FBE4FBE4FBE4FB8E
S1133244E4FBE4FBE4FBE4FBE4FBE4FBE4FBE4FB7E
S1133254E4FBE4FBE4FBE4FBE4FBE4FBE4FBE4FB6E
S1133264E4FBE4FBE4FBFFFFE4FBE4FBE4FBE4FB3F
S1133274E4FBE4FBE4FBE4FBE4FBE4FBE4FBE4FB4E
S1133284E4FBE4FBE4FBE4FBE4FBE4FBE4FBE4FB3E
S1133294E4FBE4FBE4FBE4FBE4FBE4FBE4FBFFFF0F
S11332A4FFFFE4FBE4FBE4FBE4FBE4FBE4FBE4FBFF
S11332B4E4FBE4FBE4FBE4FBE4FBE4FBE4FBE4FB0E
S11332C4E4FBE4FBE4FBE4FBE4FBE4FBE4FBE4FBFE
S11332D4E4FBE4FBE4FBE4FBE4FBE4FBFFFFE4FBCF
S11332E4E4FBE4FBE4FBE4FBE4FBE4FBE4FBE4FBDE
S11332F4E4FBE4FBE4FBE4FBE4FBE4FBE4FBE4FBCE
S1133304E4FBE4FBE4FBE4FBE4FBE4FBE4FBE4FBBD
S1133314E4FBE4FBE4FBE4FBE4FBFFFFE4FBE4FB8E
S1133324E4FBE4FBE4FBE4FBE4FBE4FBE4FBE4FB9D
S1133334E4FBE4FBE4FBE4FBE4FBE4FBE4FBE4FB8D
S1133344E4FBE4FBE4FBE4FBE4FBE4FBE4FBE4FB7D
S1133354E4FBFFFFFFFFE4FBE4FBE4FBE4FBE4FB2F
S1133364E4FBE4FBE4FBE4FBE4FBE4FBE4FBE4FB5D
S1133374E4FBE4FBE4FBE4FBE4FBE4FBE4FBE4FB4D
S1133384E4FBE4FBE4FBE4FBE4FBE4FBE4FBE4FB3D
S1133394FFFFE4FBE4FBE4FBE4FBE4FBE4FBE4FB0E
S11333A4E4FBE4FBE4FBE4FBE4FBE4FBE4FBE4FB1D
S11333B4E4FBE4FBE4FBE4FBE4FBE4FBE4FBE4FB0D
S11333C4E4FBE4FBE4FBE4FBE4FBE4FBE4FBFFFFDE
S11333D4E4FBE4FBE4FBE4FBE4FBE4FBE4FBE4FBED
S11333E4E4FBE4FBE4FBE4FBE4FBE4FBE4FBE4FBDD
S11333F4E4FBE4FBE4FBE4FBE4FBE4FBE4FBE4FBCD
S1133404E4FBE4FBE4FBFFFFFFFFE4FBE4FBE4FB7E
S1133414E4FBE4FBE4FBE4FBE4FBE4FBE4FBE4FBAC
S1133424E4FBE4FBE4FBE4FBE4FBE4FBE4FBE4FB9C
S1133434E4FBE4FBE4FBE4FBE4FBE4FBE4FBE4FB8C
S1133444E4FBE4FBFFFFE4FBE4FBE4FBE4FBE4FB5D
S1133454E4FBE4FBE4FBE4FBE4FBE4FBE4FBE4FB6C
S1133464E4FBE4FBE4FBE4FBE4FBE4FBE4FBE4FB5C
S1133474E4FBE4FBE4FBE4FBE4FBE4FBE4FBE4FB4C
S1133484E4FBFFFFE4FBE4FBE4FBE4FBE4FBE4FB1D
S1133494E4FBE4FBE4FBE4FBE4FBE4FBE4FBE4FB2C
S11334A4E4FBE4FBE4FBE4FBE4FBE4FBE4FBE4FB1C
S11334B4E4FBE4FBE4FBE4FBE4FBFFFFFFFFE4FBCE
S11334C4E4FBE4FBE4FBE4FBE4FBE4FBE4FBE4FBFC
S11334D4E4FBE4FBE4FBE4FBE4FBE4FBE4FBE4FBEC
S11334E4E4FBE4FBE4FBE4FBE4FBE4FBE4FBE4FBDC
S11334F4E4FBE4FBE4FBE4FBFFFFE4FBE4FBE4FBAD
S1133504E4FBE4FBE4FBE4FBE4FBE4FBE4FBE4FBBB
S1133514E4FBE4FBE4FBE4FBE4FBE4FBE4FBE4FBAB
S1133524E4FBE4FBE4FBE4FBE4FBE4FBE4FBE4FB9B
S1133534E4FBE4FBE4FBFFFFE4FBE4FBE4FBE4FB6C
S1133544E4FBE4FBE4FBE4FBE4FBE4FBE4FBE4FB7B
S1133554E4FBE4FBE4FBE4FBE4FBE4FBE4FBE4FB6B
S1133564E4FBE4FBE4FBE4FBE4FBE4FBE4FBFFFF3C
S1133574FFFFE4FBE4FBE4FBE4FBE4FBE4FBE4FB2C
S1133584E4FBE4FBE4FBE4FBE4FBE4FBE4FBE4FB3B
S1133594E4FBE4FBE4FBE4FBE4FBE4FBE4FBE4FB2B
S11335A4E4FBE4FBE4FBE4FBE4FBE4FBFFFFE4FBFC
S11335B4E4FBE4FBE4FBE4FBE4FBE4FBE4FBE4FB0B
S11335C4E4FBE4FBE4FBE4FBE4FBE4FBE4FBE4FBFB
S11335D4E4FBE4FBE4FBE4FBE4FBE4FBE4FBE4FBEB
S11335E4E4FBE4FBE4FBE4FBE4FBFFFFE4FBE4FBBC
S11335F4E4FBE4FBE4FBE4FBE4FBE4FBE4FBE4FBCB
S1133604E4FBE4FBE4FBE4FBE4FBE4FBE4FBE4FBBA
S1133614E4FBE4FBE4FBE4FBE4FBE4FBE4FBE4FBAA
S1133624E4FBFFFFFFFFE4FBE4FBE4FBE4FBE4FB5C
S1133634E4FBE4FBE4FBE4FBE4FBE4FBE4FBE4FB8A
S1133644E4FBE4FBE4FBE4FBE4FBE4FBE4FBE4FB7A
S1133654E4FBE4FBE4FBE4FBE4FBE4FBE4FBE4FB6A
S1133664FFFFE4FBE4FBE4FBE4FBE4FBE4FBE4FB3B
S1133674E4FBE4FBE4FBE4FBE4FBE4FBE4FBE4FB4A
S1133684E4FBE4FBE4FBE4FBE4FBE4FBE4FBE4FB3A
S1133694E4FBE4FBE4FBE4FBE4FBE4FBE4FBFFFF0B
S11336A4E4FBE4FBE4FBE4FBE4FBE4FBE4FBE4FB1A
S11336B4E4FBE4FBE4FBE4FBE4FBE4FBE4FBE4FB0A
S11336C4E4FBE4FBE4FBE4FBE4FBE4FBE4FBE4FBFA
S11336D4E4FBE4FBE4FBFFFFFFFFE4FBE4FBE4FBAC
S11336E4E4FBE4FBE4FBE4FBE4FBE4FBE4FBE4FBDA
S11336F4E4FBE4FBE4FBE4FBE4FBE4FBE4FBE4FBCA
S1133704E4FBE4FBE4FBE4FBE4FBE4FBE4FBE4FBB9
S1133714E4FBE4FBFFFFE4FBE4FBE4FBE4FBE4FB8A
S1133724E4FBE4FBE4FBE4FBE4FBE4FBE4FBE4FB99
S1133734E4FBE4FBE4FBE4FBE4FBE4FBE4FBE4FB89
S1133744E4FBE4FBE4FBE4FBE4FBE4FBE4FBE4FB79
S1133754E4FBFFFFE4FBE4FBE4FBE4FBE4FBE4FB4A
S1133764E4FBE4FBE4FBE4FBE4FBE4FBE4FBE4FB59
S1133774E4FBE4FBE4FBE4FBE4FBE4FBE4FBE4FB49
S1133784E4FBE4FBE4FBE4FBE4FBFFFFFFFFE4FBFB
S1133794E4FBE4FBE4FBE4FBE4FBE4FBE4FBE4FB29
S11337A4E4FBE4FBE4FBE4FBE4FBE4FBE4FBE4FB19
S11337B4E4FBE4FBE4FBE4FBE4FBE4FBE4FBE4FB09
S11337C4E4FBE4FBE4FBE4FBFFFFE4FBE4FBE4FBDA
S11337D4E4FBE4FBE4FBE4FBE4FBE4FBE4FBE4FBE9
S11337E4E4FBE4FBE4FBE4FBE4FBE4FBE4FBE4FBD9
S11337F4E4FBE4FBE4FBE4FBE4FBE4FBE4FBE4FBC9
S1133804E4FBE4FBE4FBFFFFE4FBE4FBE4FBE4FB99
S1133814E4FBE4FBE4FBE4FBE4FBE4FBE4FBE4FBA8
S1133824E4FBE4FBE4FBE4FBE4FBE4FBE4FBE4FB98
S1133834E4FBE4FBE4FBE4FBE4FBE4FBE4FBFFFF69
S1133844FFFFE4FBE4FBE4FBE4FBE4FBE4FBE4FB59
S1133854E4FBE4FBE4FBE4FBE4FBE4FBE4FBE4FB68
S1133864E4FBE4FBE4FBE4FBE4FBE4FBE4FBE4FB58
S1133874E4FBE4FBE4FBE4FBE4FBE4FBFFFFE4FB29
S1133884E4FBE4FBE4FBE4FBE4FBE4FBE4FBE4FB38
S1133894E4FBE4FBE4FBE4FBE4FBE4FBE4FBE4FB28
S11338A4E4FBE4FBE4FBE4FBE4FBE4FBE4FBE4FB18
S11338B4E4FBE4FBE4FBE4FBE4FBFFFFE4FBE4FBE9
S11338C4E4FBE4FBE4FBE4FBE4FBE4FBE4FBE4FBF8
S11338D4E4FBE4FBE4FBE4FBE4FBE4FBE4FBE4FBE8
S11338E4E4FBE4FBE4FBE4FBE4FBE4FBE4FBE4FBD8
S11338F4E4FBFFFFFFFFE4FBE4FBE4FBE4FBE4FB8A
S1133904E4FBE4FBE4FBE4FBE4FBE4FBE4FBE4FBB7
S1133914E4FBE4FBE4FBE4FBE4FBE4FBE4FBE4FBA7
S1133924E4FBE4FBE4FBE4FBE4FBE4FBE4FBE4FB97
S1133934FFFFE4FBE4FBE4FBE4FBE4FBE4FBE4FB68
S1133944E4FBE4FBE4FBE4FBE4FBE4FBE4FBE4FB77
S1133954E4FBE4FBE4FBE4FBE4FBE4FBE4FBE4FB67
S1133964E4FBE4FBE4FBE4FBE4FBE4FBE4FBFFFF38
S1133974E4FBE4FBE4FBE4FBE4FBE4FBE4FBE4FB47
S1133984E4FBE4FBE4FBE4FBE4FBE4FBE4FBE4FB37
S1133994E4FBE4FBE4FBE4FBE4FBE4FBE4FBE4FB27
S11339A4E4FBE4FBE4FBFFFFFFFFE4FBE4FBE4FBD9
S11339B4E4FBE4FBE4FBE4FBE4FBE4FBE4FBE4FB07
S11339C4E4FBE4FBE4FBE4FBE4FBE4FBE4FBE4FBF7
S11339D4E4FBE4FBE4FBE4FBE4FBE4FBE4FBE4FBE7
S11339E4E4FBE4FBFFFFE4FBE4FBE4FBE4FBE4FBB8
S11339F4E4FBE4FBE4FBE4FBE4FBE4FBE4FBE4FBC7
S1133A04E4FBE4FBE4FBE4FBE4FBE4FBE4FBE4FBB6
S1133A14E4FBE4FBE4FBE4FBE4FBE4FBE4FBE4FBA6
S1133A24E4FBFFFFE4FBE4FBE4FBE4FBE4FBE4FB77
S1133A34E4FBE4FBE4FBE4FBE4FBE4FBE4FBE4FB86
S1133A44E4FBE4FBE4FBE4FBE4FBE4FBE4FBE4FB76
S1133A54E4FBE4FBE4FBE4FBE4FBFFFFFFFFE4FB28
S1133A64E4FBE4FBE4FBE4FBE4FBE4FBE4FBE4FB56
S1133A74E4FBE4FBE4FBE4FBE4FBE4FBE4FBE4FB46
S1133A84E4FBE4FBE4FBE4FBE4FBE4FBE4FBE4FB36
S1133A94E4FBE4FBE4FBE4FBFFFFE4FBE4FBE4FB07
S1133AA4E4FBE4FBE4FBE4FBE4FBE4FBE4FBE4FB16
S1133AB4E4FBE4FBE4FBE4FBE4FBE4FBE4FBE4FB06
S1133AC4E4FBE4FBE4FBE4FBE4FBE4FBE4FBE4FBF6
S1133AD4E4FBE4FBE4FBFFFFE4FBE4FBE4FBE4FBC7
S1133AE4E4FBE4FBE4FBE4FBE4FBE4FBE4FBE4FBD6
S1133AF4E4FBE4FBE4FBE4FBE4FBE4FBE4FBE4FBC6
S1133B04E4FBE4FBE4FBE4FBE4FBE4FBE4FBFFFF96
S1133B14FFFFFFFFFFFFFFFFFFFFFFFFFFFFFFFFAD
S1133B24FFFFFFFFFFFFFFFFFFFFFFFFFFFFFFFF9D
S1133B34FFFFFFFFFFFFFFFFFFFFFFFFFFFFFFFF8D
S1133B44FFFFFFFFFFFFFFFFFFFFFFFFFFFFFFFF7D
S1133B54FFFFFFFFFFFFFFFFFFFFFFFFFFFFFFFF6D
S1133B64FFFFFFFFFFFFFFFFFFFFFFFFFFFFFFFF5D
S1133B74FFFFFFFFFFFFFFFFFFFFFFFFFFFFFFFF4D
S1133B84FFFFFFFFFFFFFFFFFFFFFFFFFFFFFFFF3D
S1133B94FFFFFFFFFFFFFFFFFFFFFFFFFFFFFFFF2D
S1133BA4FFFFFFFFFFFFFFFFFFFFFFFFFFFFFFFF1D
S1133BB4FFFFFFFFFFFFFFFFFFFFFFFFFFFFFFFF0D
S1133BC4FFFFFFFFFFFFE4FBE4FBE4FBE4FBE4FB98
S1133BD4E4FBE4FBE4FBE4FBE4FBE4FBE4FBE4FBE5
S1133BE4E4FBE4FBE4FBE4FBE4FBE4FBE4FBE4FBD5
S1133BF4E4FBE4FBE4FBE4FBE4FBE4FBE4FBE4FBC5
S1133C04FFFFE4FBE4FBE4FBE4FBE4FBE4FBE4FB95
S1133C14E4FBE4FBE4FBE4FBE4FBE4FBE4FBE4FBA4
S1133C24E4FBE4FBE4FBE4FBE4FBE4FBE4FBE4FB94
S1133C34E4FBE4FBE4FBE4FBE4FBE4FBE4FBFFFF65
S1133C44E4FBE4FBE4FBE4FBE4FBE4FBE4FBE4FB74
S1133C54E4FBE4FBE4FBE4FBE4FBE4FBE4FBE4FB64
S1133C64E4FBE4FBE4FBE4FBE4FBE4FBE4FBE4FB54
S1133C74E4FBE4FBE4FBFFFFFFFFE4FBE4FBE4FB06
S1133C84E4FBE4FBE4FBE4FBE4FBE4FBE4FBE4FB34
S1133C94E4FBE4FBE4FBE4FBE4FBE4FBE4FBE4FB24
S1133CA4E4FBE4FBE4FBE4FBE4FBE4FBE4FBE4FB14
S1133CB4E4FBE4FBFFFFE4FBE4FBE4FBE4FBE4FBE5
S1133CC4E4FBE4FBE4FBE4FBE4FBE4FBE4FBE4FBF4
S1133CD4E4FBE4FBE4FBE4FBE4FBE4FBE4FBE4FBE4
S1133CE4E4FBE4FBE4FBE4FBE4FBE4FBE4FBE4FBD4
S1133CF4E4FBFFFFE4FBE4FBE4FBE4FBE4FBE4FBA5
S1133D04E4FBE4FBE4FBE4FBE4FBE4FBE4FBE4FBB3
S1133D14E4FBE4FBE4FBE4FBE4FBE4FBE4FBE4FBA3
S1133D24E4FBE4FBE4FBE4FBE4FBFFFFFFFFE4FB55
S1133D34E4FBE4FBE4FBE4FBE4FBE4FBE4FBE4FB83
S1133D44E4FBE4FBE4FBE4FBE4FBE4FBE4FBE4FB73
S1133D54E4FBE4FBE4FBE4FBE4FBE4FBE4FBE4FB63
S1133D64E4FBE4FBE4FBE4FBFFFFE4FBE4FBE4FB34
S1133D74E4FBE4FBE4FBE4FBE4FBE4FBE4FBE4FB43
S1133D84E4FBE4FBE4FBE4FBE4FBE4FBE4FBE4FB33
S1133D94E4FBE4FBE4FBE4FBE4FBE4FBE4FBE4FB23
S1133DA4E4FBE4FBE4FBFFFFE4FBE4FBE4FBE4FBF4
S1133DB4E4FBE4FBE4FBE4FBE4FBE4FBE4FBE4FB03
S1133DC4E4FBE4FBE4FBE4FBE4FBE4FBE4FBE4FBF3
S1133DD4E4FBE4FBE4FBE4FBE4FBE4FBE4FBFFFFC4
S1133DE4FFFFE4FBE4FBE4FBE4FBE4FBE4FBE4FBB4
S1133DF4E4FBE4FBE4FBE4FBE4FBE4FBE4FBE4FBC3
S1133E04E4FBE4FBE4FBE4FBE4FBE4FBE4FBE4FBB2
S1133E14E4FBE4FBE4FBE4FBE4FBE4FBFFFFE4FB83
S1133E24E4FBE4FBE4FBE4FBE4FBE4FBE4FBE4FB92
S1133E34E4FBE4FBE4FBE4FBE4FBE4FBE4FBE4FB82
S1133E44E4FBE4FBE4FBE4FBE4FBE4FBE4FBE4FB72
S1133E54E4FBE4FBE4FBE4FBE4FBFFFFE4FBE4FB43
S1133E64E4FBE4FBE4FBE4FBE4FBE4FBE4FBE4FB52
S1133E74E4FBE4FBE4FBE4FBE4FBE4FBE4FBE4FB42
S1133E84E4FBE4FBE4FBE4FBE4FBE4FBE4FBE4FB32
S1133E94E4FBFFFFFFFFE4FBE4FBE4FBE4FBE4FBE4
S1133EA4E4FBE4FBE4FBE4FBE4FBE4FBE4FBE4FB12
S1133EB4E4FBE4FBE4FBE4FBE4FBE4FBE4FBE4FB02
S1133EC4E4FBE4FBE4FBE4FBE4FBE4FBE4FBE4FBF2
S1133ED4FFFFE4FBE4FBE4FBE4FBE4FBE4FBE4FBC3
S1133EE4E4FBE4FBE4FBE4FBE4FBE4FBE4FBE4FBD2
S1133EF4E4FBE4FBE4FBE4FBE4FBE4FBE4FBE4FBC2
S1133F04E4FBE4FBE4FBE4FBE4FBE4FBE4FBFFFF92
S1133F14E4FBE4FBE4FBE4FBE4FBE4FBE4FBE4FBA1
S1133F24E4FBE4FBE4FBE4FBE4FBE4FBE4FBE4FB91
S1133F34E4FBE4FBE4FBE4FBE4FBE4FBE4FBE4FB81
S1133F44E4FBE4FBE4FBFFFFFFFFE4FBE4FBE4FB33
S1133F54E4FBE4FBE4FBE4FBE4FBE4FBE4FBE4FB61
S1133F64E4FBE4FBE4FBE4FBE4FBE4FBE4FBE4FB51
S1133F74E4FBE4FBE4FBE4FBE4FBE4FBE4FBE4FB41
S1133F84E4FBE4FBFFFFE4FBE4FBE4FBE4FBE4FB12
S1133F94E4FBE4FBE4FBE4FBE4FBE4FBE4FBE4FB21
S1133FA4E4FBE4FBE4FBE4FBE4FBE4FBE4FBE4FB11
S1133FB4E4FBE4FBE4FBE4FBE4FBE4FBE4FBE4FB01
S1133FC4E4FBFFFFE4FBE4FBE4FBE4FBE4FBE4FBD2
S1133FD4E4FBE4FBE4FBE4FBE4FBE4FBE4FBE4FBE1
S1133FE4E4FBE4FBE4FBE4FBE4FBE4FBE4FBE4FBD1
S1133FF4E4FBE4FBE4FBE4FBE4FBFFFFFFFFE4FB83
S1134004E4FBE4FBE4FBE4FBE4FBE4FBE4FBE4FBB0
S1134014E4FBE4FBE4FBE4FBE4FBE4FBE4FBE4FBA0
S1134024E4FBE4FBE4FBE4FBE4FBE4FBE4FBE4FB90
S1134034E4FBE4FBE4FBE4FBFFFFE4FBE4FBE4FB61
S1134044E4FBE4FBE4FBE4FBE4FBE4FBE4FBE4FB70
S1134054E4FBE4FBE4FBE4FBE4FBE4FBE4FBE4FB60
S1134064E4FBE4FBE4FBE4FBE4FBE4FBE4FBE4FB50
S1134074E4FBE4FBE4FBFFFFE4FBE4FBE4FBE4FB21
S1134084E4FBE4FBE4FBE4FBE4FBE4FBE4FBE4FB30
S1134094E4FBE4FBE4FBE4FBE4FBE4FBE4FBE4FB20
S11340A4E4FBE4FBE4FBE4FBE4FBE4FBE4FBFFFFF1
S11340B4FFFFE4FBE4FBE4FBE4FBE4FBE4FBE4FBE1
S11340C4E4FBE4FBE4FBE4FBE4FBE4FBE4FBE4FBF0
S11340D4E4FBE4FBE4FBE4FBE4FBE4FBE4FBE4FBE0
S11340E4E4FBE4FBE4FBE4FBE4FBE4FBFFFFE4FBB1
S11340F4E4FBE4FBE4FBE4FBE4FBE4FBE4FBE4FBC0
S1134104E4FBE4FBE4FBE4FBE4FBE4FBE4FBE4FBAF
S1134114E4FBE4FBE4FBE4FBE4FBE4FBE4FBE4FB9F
S1134124E4FBE4FBE4FBE4FBE4FBFFFFE4FBE4FB70
S1134134E4FBE4FBE4FBE4FBE4FBE4FBE4FBE4FB7F
S1134144E4FBE4FBE4FBE4FBE4FBE4FBE4FBE4FB6F
S1134154E4FBE4FBE4FBE4FBE4FBE4FBE4FBE4FB5F
S1134164E4FBFFFFFFFFE4FBE4FBE4FBE4FBE4FB11
S1134174E4FBE4FBE4FBE4FBE4FBE4FBE4FBE4FB3F
S1134184E4FBE4FBE4FBE4FBE4FBE4FBE4FBE4FB2F
S1134194E4FBE4FBE4FBE4FBE4FBE4FBE4FBE4FB1F
S11341A4FFFFE4FBE4FBE4FBE4FBE4FBE4FBE4FBF0
S11341B4E4FBE4FBE4FBE4FBE4FBE4FBE4FBE4FBFF
S11341C4E4FBE4FBE4FBE4FBE4FBE4FBE4FBE4FBEF
S11341D4E4FBE4FBE4FBE4FBE4FBE4FBE4FBFFFFC0
S11341E4E4FBE4FBE4FBE4FBE4FBE4FBE4FBE4FBCF
S11341F4E4FBE4FBE4FBE4FBE4FBE4FBE4FBE4FBBF
S1134204E4FBE4FBE4FBE4FBE4FBE4FBE4FBE4FBAE
S1134214E4FBE4FBE4FBFFFFFFFFE4FBE4FBE4FB60
S1134224E4FBE4FBE4FBE4FBE4FBE4FBE4FBE4FB8E
S1134234E4FBE4FBE4FBE4FBE4FBE4FBE4FBE4FB7E
S1134244E4FBE4FBE4FBE4FBE4FBE4FBE4FBE4FB6E
S1134254E4FBE4FBFFFFE4FBE4FBE4FBE4FBE4FB3F
S1134264E4FBE4FBE4FBE4FBE4FBE4FBE4FBE4FB4E
S1134274E4FBE4FBE4FBE4FBE4FBE4FBE4FBE4FB3E
S1134284E4FBE4FBE4FBE4FBE4FBE4FBE4FBE4FB2E
S1134294E4FBFFFFE4FBE4FBE4FBE4FBE4FBE4FBFF
S11342A4E4FBE4FBE4FBE4FBE4FBE4FBE4FBE4FB0E
S11342B4E4FBE4FBE4FBE4FBE4FBE4FBE4FBE4FBFE
S11342C4E4FBE4FBE4FBE4FBE4FBFFFFFFFFE4FBB0
S11342D4E4FBE4FBE4FBE4FBE4FBE4FBE4FBE4FBDE
S11342E4E4FBE4FBE4FBE4FBE4FBE4FBE4FBE4FBCE
S11342F4E4FBE4FBE4FBE4FBE4FBE4FBE4FBE4FBBE
S1134304E4FBE4FBE4FBE4FBFFFFE4FBE4FBE4FB8E
S1134314E4FBE4FBE4FBE4FBE4FBE4FBE4FBE4FB9D
S1134324E4FBE4FBE4FBE4FBE4FBE4FBE4FBE4FB8D
S1134334E4FBE4FBE4FBE4FBE4FBE4FBE4FBE4FB7D
S1134344E4FBE4FBE4FBFFFFE4FBE4FBE4FBE4FB4E
S1134354E4FBE4FBE4FBE4FBE4FBE4FBE4FBE4FB5D
S1134364E4FBE4FBE4FBE4FBE4FBE4FBE4FBE4FB4D
S1134374E4FBE4FBE4FBE4FBE4FBE4FBE4FBFFFF1E
S1134384FFFFE4FBE4FBE4FBE4FBE4FBE4FBE4FB0E
S1134394E4FBE4FBE4FBE4FBE4FBE4FBE4FBE4FB1D
S11343A4E4FBE4FBE4FBE4FBE4FBE4FBE4FBE4FB0D
S11343B4E4FBE4FBE4FBE4FBE4FBE4FBFFFFE4FBDE
S11343C4E4FBE4FBE4FBE4FBE4FBE4FBE4FBE4FBED
S11343D4E4FBE4FBE4FBE4FBE4FBE4FBE4FBE4FBDD
S11343E4E4FBE4FBE4FBE4FBE4FBE4FBE4FBE4FBCD
S11343F4E4FBE4FBE4FBE4FBE4FBFFFFE4FBE4FB9E
S1134404E4FBE4FBE4FBE4FBE4FBE4FBE4FBE4FBAC
S1134414E4FBE4FBE4FBE4FBE4FBE4FBE4FBE4FB9C
S1134424E4FBE4FBE4FBE4FBE4FBE4FBE4FBE4FB8C
S1134434E4FBFFFFFFFFE4FBE4FBE4FBE4FBE4FB3E
S1134444E4FBE4FBE4FBE4FBE4FBE4FBE4FBE4FB6C
S1134454E4FBE4FBE4FBE4FBE4FBE4FBE4FBE4FB5C
S1134464E4FBE4FBE4FBE4FBE4FBE4FBE4FBE4FB4C
S1134474FFFFE4FBE4FBE4FBE4FBE4FBE4FBE4FB1D
S1134484E4FBE4FBE4FBE4FBE4FBE4FBE4FBE4FB2C
S1134494E4FBE4FBE4FBE4FBE4FBE4FBE4FBE4FB1C
S11344A4E4FBE4FBE4FBE4FBE4FBE4FBE4FBFFFFED
S11344B4E4FBE4FBE4FBE4FBE4FBE4FBE4FBE4FBFC
S11344C4E4FBE4FBE4FBE4FBE4FBE4FBE4FBE4FBEC
S11344D4E4FBE4FBE4FBE4FBE4FBE4FBE4FBE4FBDC
S11344E4E4FBE4FBE4FBFFFFFFFFE4FBE4FBE4FB8E
S11344F4E4FBE4FBE4FBE4FBE4FBE4FBE4FBE4FBBC
S1134504E4FBE4FBE4FBE4FBE4FBE4FBE4FBE4FBAB
S1134514E4FBE4FBE4FBE4FBE4FBE4FBE4FBE4FB9B
S1134524E4FBE4FBFFFFE4FBE4FBE4FBE4FBE4FB6C
S1134534E4FBE4FBE4FBE4FBE4FBE4FBE4FBE4FB7B
S1134544E4FBE4FBE4FBE4FBE4FBE4FBE4FBE4FB6B
S1134554E4FBE4FBE4FBE4FBE4FBE4FBE4FBE4FB5B
S1134564E4FBFFFFE4FBE4FBE4FBE4FBE4FBE4FB2C
S1134574E4FBE4FBE4FBE4FBE4FBE4FBE4FBE4FB3B
S1134584E4FBE4FBE4FBE4FBE4FBE4FBE4FBE4FB2B
S1134594E4FBE4FBE4FBE4FBE4FBFFFFFFFFE4FBDD
S11345A4E4FBE4FBE4FBE4FBE4FBE4FBE4FBE4FB0B
S11345B4E4FBE4FBE4FBE4FBE4FBE4FBE4FBE4FBFB
S11345C4E4FBE4FBE4FBE4FBE4FBE4FBE4FBE4FBEB
S11345D4E4FBE4FBE4FBE4FBFFFFE4FBE4FBE4FBBC
S11345E4E4FBE4FBE4FBE4FBE4FBE4FBE4FBE4FBCB
S11345F4E4FBE4FBE4FBE4FBE4FBE4FBE4FBE4FBBB
S1134604E4FBE4FBE4FBE4FBE4FBE4FBE4FBE4FBAA
S1134614E4FBE4FBE4FBFFFFE4FBE4FBE4FBE4FB7B
S1134624E4FBE4FBE4FBE4FBE4FBE4FBE4FBE4FB8A
S1134634E4FBE4FBE4FBE4FBE4FBE4FBE4FBE4FB7A
S1134644E4FBE4FBE4FBE4FBE4FBE4FBE4FBFFFF4B
S1134654FFFFE4FBE4FBE4FBE4FBE4FBE4FBE4FB3B
S1134664E4FBE4FBE4FBE4FBE4FBE4FBE4FBE4FB4A
S1134674E4FBE4FBE4FBE4FBE4FBE4FBE4FBE4FB3A
S1134684E4FBE4FBE4FBE4FBE4FBE4FBFFFFE4FB0B
S1134694E4FBE4FBE4FBE4FBE4FBE4FBE4FBE4FB1A
S11346A4E4FBE4FBE4FBE4FBE4FBE4FBE4FBE4FB0A
S11346B4E4FBE4FBE4FBE4FBE4FBE4FBE4FBE4FBFA
S11346C4E4FBE4FBE4FBE4FBE4FBFFFFE4FBE4FBCB
S11346D4E4FBE4FBE4FBE4FBE4FBE4FBE4FBE4FBDA
S11346E4E4FBE4FBE4FBE4FBE4FBE4FBE4FBE4FBCA
S11346F4E4FBE4FBE4FBE4FBE4FBE4FBE4FBE4FBBA
S1134704E4FBFFFFFFFFE4FBE4FBE4FBE4FBE4FB6B
S1134714E4FBE4FBE4FBE4FBE4FBE4FBE4FBE4FB99
S1134724E4FBE4FBE4FBE4FBE4FBE4FBE4FBE4FB89
S1134734E4FBE4FBE4FBE4FBE4FBE4FBE4FBE4FB79
S1134744FFFFE4FBE4FBE4FBE4FBE4FBE4FBE4FB4A
S1134754E4FBE4FBE4FBE4FBE4FBE4FBE4FBE4FB59
S1134764E4FBE4FBE4FBE4FBE4FBE4FBE4FBE4FB49
S1134774E4FBE4FBE4FBE4FBE4FBE4FBE4FBFFFF1A
S1134784E4FBE4FBE4FBE4FBE4FBE4FBE4FBE4FB29
S1134794E4FBE4FBE4FBE4FBE4FBE4FBE4FBE4FB19
S11347A4E4FBE4FBE4FBE4FBE4FBE4FBE4FBE4FB09
S11347B4E4FBE4FBE4FBFFFFFFFFE4FBE4FBE4FBBB
S11347C4E4FBE4FBE4FBE4FBE4FBE4FBE4FBE4FBE9
S11347D4E4FBE4FBE4FBE4FBE4FBE4FBE4FBE4FBD9
S11347E4E4FBE4FBE4FBE4FBE4FBE4FBE4FBE4FBC9
S11347F4E4FBE4FBFFFFE4FBE4FBE4FBE4FBE4FB9A
S1134804E4FBE4FBE4FBE4FBE4FBE4FBE4FBE4FBA8
S1134814E4FBE4FBE4FBE4FBE4FBE4FBE4FBE4FB98
S1134824E4FBE4FBE4FBE4FBE4FBE4FBE4FBE4FB88
S1134834E4FBFFFFE4FBE4FBE4FBE4FBE4FBE4FB59
S1134844E4FBE4FBE4FBE4FBE4FBE4FBE4FBE4FB68
S1134854E4FBE4FBE4FBE4FBE4FBE4FBE4FBE4FB58
S1134864E4FBE4FBE4FBE4FBE4FBFFFFFFFFE4FB0A
S1134874E4FBE4FBE4FBE4FBE4FBE4FBE4FBE4FB38
S1134884E4FBE4FBE4FBE4FBE4FBE4FBE4FBE4FB28
S1134894E4FBE4FBE4FBE4FBE4FBE4FBE4FBE4FB18
S11348A4E4FBE4FBE4FBE4FBFFFFE4FBE4FBE4FBE9
S11348B4E4FBE4FBE4FBE4FBE4FBE4FBE4FBE4FBF8
S11348C4E4FBE4FBE4FBE4FBE4FBE4FBE4FBE4FBE8
S11348D4E4FBE4FBE4FBE4FBE4FBE4FBE4FBE4FBD8
S11348E4E4FBE4FBE4FBFFFFE4FBE4FBE4FBE4FBA9
S11348F4E4FBE4FBE4FBE4FBE4FBE4FBE4FBE4FBB8
S1134904E4FBE4FBE4FBE4FBE4FBE4FBE4FBE4FBA7
S1134914E4FBE4FBE4FBE4FBE4FBE4FBE4FBFFFF78
S1134924FFFFE4FBE4FBE4FBE4FBE4FBE4FBE4FB68
S1134934E4FBE4FBE4FBE4FBE4FBE4FBE4FBE4FB77
S1134944E4FBE4FBE4FBE4FBE4FBE4FBE4FBE4FB67
S1134954E4FBE4FBE4FBE4FBE4FBE4FBFFFFE4FB38
S1134964E4FBE4FBE4FBE4FBE4FBE4FBE4FBE4FB47
S1134974E4FBE4FBE4FBE4FBE4FBE4FBE4FBE4FB37
S1134984E4FBE4FBE4FBE4FBE4FBE4FBE4FBE4FB27
S1134994E4FBE4FBE4FBE4FBE4FBFFFFE4FBE4FBF8
S11349A4E4FBE4FBE4FBE4FBE4FBE4FBE4FBE4FB07
S11349B4E4FBE4FBE4FBE4FBE4FBE4FBE4FBE4FBF7
S11349C4E4FBE4FBE4FBE4FBE4FBE4FBE4FBE4FBE7
S11349D4E4FBFFFFFFFFE4FBE4FBE4FBE4FBE4FB99
S11349E4E4FBE4FBE4FBE4FBE4FBE4FBE4FBE4FBC7
S11349F4E4FBE4FBE4FBE4FBE4FBE4FBE4FBE4FBB7
S1134A04E4FBE4FBE4FBE4FBE4FBE4FBE4FBE4FBA6
S1134A14FFFFE4FBE4FBE4FBE4FBE4FBE4FBE4FB77
S1134A24E4FBE4FBE4FBE4FBE4FBE4FBE4FBE4FB86
S1134A34E4FBE4FBE4FBE4FBE4FBE4FBE4FBE4FB76
S1134A44E4FBE4FBE4FBE4FBE4FBE4FBE4FBFFFF47
S1134A54E4FBE4FBE4FBE4FBE4FBE4FBE4FBE4FB56
S1134A64E4FBE4FBE4FBE4FBE4FBE4FBE4FBE4FB46
S1134A74E4FBE4FBE4FBE4FBE4FBE4FBE4FBE4FB36
S1134A84E4FBE4FBE4FBFFFFFFFFE4FBE4FBE4FBE8
S1134A94E4FBE4FBE4FBE4FBE4FBE4FBE4FBE4FB16
S1134AA4E4FBE4FBE4FBE4FBE4FBE4FBE4FBE4FB06
S1134AB4E4FBE4FBE4FBE4FBE4FBE4FBE4FBE4FBF6
S1134AC4E4FBE4FBFFFFE4FBE4FBE4FBE4FBE4FBC7
S1134AD4E4FBE4FBE4FBE4FBE4FBE4FBE4FBE4FBD6
S1134AE4E4FBE4FBE4FBE4FBE4FBE4FBE4FBE4FBC6
S1134AF4E4FBE4FBE4FBE4FBE4FBE4FBE4FBE4FBB6
S1134B04E4FBFFFFE4FBE4FBE4FBE4FBE4FBE4FB86
S1134B14E4FBE4FBE4FBE4FBE4FBE4FBE4FBE4FB95
S1134B24E4FBE4FBE4FBE4FBE4FBE4FBE4FBE4FB85
S1134B34E4FBE4FBE4FBE4FBE4FBFFFFFFFFE4FB37
S1134B44E4FBE4FBE4FBE4FBE4FBE4FBE4FBE4FB65
S1134B54E4FBE4FBE4FBE4FBE4FBE4FBE4FBE4FB55
S1134B64E4FBE4FBE4FBE4FBE4FBE4FBE4FBE4FB45
S1134B74E4FBE4FBE4FBE4FBFFFFE4FBE4FBE4FB16
S1134B84E4FBE4FBE4FBE4FBE4FBE4FBE4FBE4FB25
S1134B94E4FBE4FBE4FBE4FBE4FBE4FBE4FBE4FB15
S1134BA4E4FBE4FBE4FBE4FBE4FBE4FBE4FBE4FB05
S1134BB4E4FBE4FBE4FBFFFFE4FBE4FBE4FBE4FBD6
S1134BC4E4FBE4FBE4FBE4FBE4FBE4FBE4FBE4FBE5
S1134BD4E4FBE4FBE4FBE4FBE4FBE4FBE4FBE4FBD5
S1134BE4E4FBE4FBE4FBE4FBE4FBE4FBE4FBFFFFA6
S1134BF4FFFFE4FBE4FBE4FBE4FBE4FBE4FBE4FB96
S1134C04E4FBE4FBE4FBE4FBE4FBE4FBE4FBE4FBA4
S1134C14E4FBE4FBE4FBE4FBE4FBE4FBE4FBE4FB94
S1134C24E4FBE4FBE4FBE4FBE4FBE4FBFFFFE4FB65
S1134C34E4FBE4FBE4FBE4FBE4FBE4FBE4FBE4FB74
S1134C44E4FBE4FBE4FBE4FBE4FBE4FBE4FBE4FB64
S1134C54E4FBE4FBE4FBE4FBE4FBE4FBE4FBE4FB54
S1134C64E4FBE4FBE4FBE4FBE4FBFFFFE4FBE4FB25
S1134C74E4FBE4FBE4FBE4FBE4FBE4FBE4FBE4FB34
S1134C84E4FBE4FBE4FBE4FBE4FBE4FBE4FBE4FB24
S1134C94E4FBE4FBE4FBE4FBE4FBE4FBE4FBE4FB14
S1134CA4E4FBFFFFFFFFE4FBE4FBE4FBE4FBE4FBC6
S1134CB4E4FBE4FBE4FBE4FBE4FBE4FBE4FBE4FBF4
S1134CC4E4FBE4FBE4FBE4FBE4FBE4FBE4FBE4FBE4
S1134CD4E4FBE4FBE4FBE4FBE4FBE4FBE4FBE4FBD4
S1134CE4FFFFE4FBE4FBE4FBE4FBE4FBE4FBE4FBA5
S1134CF4E4FBE4FBE4FBE4FBE4FBE4FBE4FBE4FBB4
S1134D04E4FBE4FBE4FBE4FBE4FBE4FBE4FBE4FBA3
S1134D14E4FBE4FBE4FBE4FBE4FBE4FBE4FBFFFF74
S1134D24E4FBE4FBE4FBE4FBE4FBE4FBE4FBE4FB83
S1134D34E4FBE4FBE4FBE4FBE4FBE4FBE4FBE4FB73
S1134D44E4FBE4FBE4FBE4FBE4FBE4FBE4FBE4FB63
S1134D54E4FBE4FBE4FBFFFFFFFFE4FBE4FBE4FB15
S1134D64E4FBE4FBE4FBE4FBE4FBE4FBE4FBE4FB43
S1134D74E4FBE4FBE4FBE4FBE4FBE4FBE4FBE4FB33
S1134D84E4FBE4FBE4FBE4FBE4FBE4FBE4FBE4FB23
S1134D94E4FBE4FBFFFFE4FBE4FBE4FBE4FBE4FBF4
S1134DA4E4FBE4FBE4FBE4FBE4FBE4FBE4FBE4FB03
S1134DB4E4FBE4FBE4FBE4FBE4FBE4FBE4FBE4FBF3
S1134DC4E4FBE4FBE4FBE4FBE4FBE4FBE4FBE4FBE3
S1134DD4E4FBFFFFE4FBE4FBE4FBE4FBE4FBE4FBB4
S1134DE4E4FBE4FBE4FBE4FBE4FBE4FBE4FBE4FBC3
S1134DF4E4FBE4FBE4FBE4FBE4FBE4FBE4FBE4FBB3
S1134E04E4FBE4FBE4FBE4FBE4FBFFFFFFFFE4FB64
S1134E14E4FBE4FBE4FBE4FBE4FBE4FBE4FBE4FB92
S1134E24E4FBE4FBE4FBE4FBE4FBE4FBE4FBE4FB82
S1134E34E4FBE4FBE4FBE4FBE4FBE4FBE4FBE4FB72
S1134E44E4FBE4FBE4FBE4FBFFFFE4FBE4FBE4FB43
S1134E54E4FBE4FBE4FBE4FBE4FBE4FBE4FBE4FB52
S1134E64E4FBE4FBE4FBE4FBE4FBE4FBE4FBE4FB42
S1134E74E4FBE4FBE4FBE4FBE4FBE4FBE4FBE4FB32
S1134E84E4FBE4FBE4FBFFFFE4FBE4FBE4FBE4FB03
S1134E94E4FBE4FBE4FBE4FBE4FBE4FBE4FBE4FB12
S1134EA4E4FBE4FBE4FBE4FBE4FBE4FBE4FBE4FB02
S1134EB4E4FBE4FBE4FBE4FBE4FBE4FBE4FBFFFFD3
S1134EC4FFFFE4FBE4FBE4FBE4FBE4FBE4FBE4FBC3
S1134ED4E4FBE4FBE4FBE4FBE4FBE4FBE4FBE4FBD2
S1134EE4E4FBE4FBE4FBE4FBE4FBE4FBE4FBE4FBC2
S1134EF4E4FBE4FBE4FBE4FBE4FBE4FBFFFFE4FB93
S1134F04E4FBE4FBE4FBE4FBE4FBE4FBE4FBE4FBA1
S1134F14E4FBE4FBE4FBE4FBE4FBE4FBE4FBE4FB91
S1134F24E4FBE4FBE4FBE4FBE4FBE4FBE4FBE4FB81
S1134F34E4FBE4FBE4FBE4FBE4FBFFFFE4FBE4FB52
S1134F44E4FBE4FBE4FBE4FBE4FBE4FBE4FBE4FB61
S1134F54E4FBE4FBE4FBE4FBE4FBE4FBE4FBE4FB51
S1134F64E4FBE4FBE4FBE4FBE4FBE4FBE4FBE4FB41
S1134F74E4FBFFFFFFFFFFFFFFFFFFFFFFFFFFFF58
S1134F84FFFFFFFFFFFFFFFFFFFFFFFFFFFFFFFF29
S1134F94FFFFFFFFFFFFFFFFFFFFFFFFFFFFFFFF19
S1134FA4FFFFFFFFFFFFFFFFFFFFFFFFFFFFFFFF09
S1134FB4FFFFFFFFFFFFFFFFFFFFFFFFFFFFFFFFF9
S1134FC4FFFFFFFFFFFFFFFFFFFFFFFFFFFFFFFFE9
S1134FD4FFFFFFFFFFFFFFFFFFFFFFFFFFFFFFFFD9
S1134FE4FFFFFFFFFFFFFFFFFFFFFFFFFFFFFFFFC9
S1134FF4FFFFFFFFFFFFFFFFFFFFFFFFFFFFFFFFB9
S1135004FFFFFFFFFFFFFFFFFFFFFFFFFFFFFFFFA8
S1135014FFFFFFFFFFFFFFFFFFFFFFFFFFFFFFFF98
S11350240000000000000000E4FBE4FBE4FBE4FBFC
S1135034E4FBE4FBE4FBE4FBE4FBE4FBE4FB00004F
S11350440000000000000000000000000000E4FB79
S1135054E4FBE4FBE4FBE4FBE4FBE4FBE4FBE4FB50
S1135064E4FBE4FBE4FBE4FBE4FBE4FBE4FBE4FB40
S1135074E4FBE4FBE4FB000000001D051D051D0525
S11350841D051D051D051D051D0500000000E4FB8F
S1135094E4FBE4FBE4FBE4FBE4FBE4FBE4FBE4FB10
S11350A4E4FBE4FBE4FBE4FBE4FBE4FBE4FB0000DF
S11350B400001D051D051D051D051D051D051D05FA
S11350C41D051D051D051D051D0500000000E4FB4F
S11350D4E4FBE4FBE4FBE4FBE4FBE4FBE4FBE4FBD0
S11350E4E4FBE4FBE4FBE4FB00001D051D051D05D6
S11350F41D051D051D051D051D051D051D051D0598
S11351041D051D051D051D051D050000E4FBE4FB2F
S1135114E4FBE4FBE4FBE4FBE4FBE4FBE4FBE4FB8F
S1135124E4FB00001D051D051D051D051D051D05CC
S11351341D051D051D051D051D051D051D051D0557
S11351441D051D051D051D050000E4FBE4FBE4FB32
S1135154E4FBE4FBE4FBE4FBE4FBE4FB00001D05EB
S11351641D051D051D051D051D051D051D051D0527
S11351741D051D051D051D051D051D051D051D0517
S11351841D051D051D050000E4FBE4FBE4FBE4FB35
S1135194E4FBE4FBE4FB00001D051D051D051D05E2
S11351A41D051D051D051D051D051D051D051D05E7
S11351B41D051D051D051D051D051D051D051D05D7
S11351C41D051D050000E4FBE4FBE4FBE4FBE4FB38
S11351D400001D051D051D051D051D051D051D05D9
S11351E41D051D051D051D051D051D051D051D05A7
S11351F41D051D051D051D051D051D051D051D0597
S11352041D050000E4FBE4FBE4FBE4FB00001D05D6
S11352141D051D051D051D051D051D051D051D0576
S1135224593A593A593A593A593A593A1D051D05C0
S11352341D051D051D051D051D051D051D05000078
S1135244E4FBE4FBE4FB00001D051D051D051D0531
S11352541D051D051D051D051D05593A593A593AE3
S1135264593A593A593A593A593A593A1D051D0580
S11352741D051D051D051D051D051D050000E4FB7B
S1135284E4FB00001D051D051D051D051D051D056B
S11352941D05593A593A593A593A593A593A593ADF
S11352A4593A593A593A593A593A1D051D051D05B1
S11352B41D051D051D051D050000E4FB00001D055D
S11352C41D051D051D051D051D051D05593A593AE4
S11352D4593A593A593A593A593A593A593A593A2E
S11352E4593A593A593A1D051D051D051D051D0553
S11352F41D051D050000E4FB00001D051D051D051D
S11353041D051D051D051D05593A593A593A593AC1
S1135314593A593A593A593A593A593A593A593AED
S1135324593A593A1D051D051D051D051D051D0583
S11353341D05000000001D051D051D051D051D0599
S11353441D05593A593A593A593A593A593A593A2E
S1135354593A593A593A593A593A593A593A593AAD
S1135364593A1D051D051D051D051D051D050000D6
S113537400001D051D051D051D051D051D05593AC6
S1135384593A593A593A593A593A593A593A593A7D
S1135394593A593A593A593A593A593A593A1D05DE
S11353A41D051D051D051D051D05000000001D0529
S11353B41D051D051D051D051D05593A593A593A82
S11353C4593A593A593A593A593A593A593A593A3D
S11353D4593A593A593A593A593A1D051D051D0580
S11353E41D051D051D05000000001D051D051D05E9
S11353F41D051D051D05593A593A593A593A593A60
S1135404593A593A593A593A593A593A593A593AFC
S1135414593A593A593A1D051D051D051D051D0521
S11354241D05000000001D051D051D051D051D05A8
S11354341D05593A593A593A593A593A593A593A3D
S1135444593A593A593A593A593A593A593A593ABC
S1135454593A1D051D051D051D051D051D050000E5
S113546400001D051D051D051D051D051D051D0546
S1135474593A593A593A593A593A593A593A593A8C
S1135484593A593A593A593A593A593A1D051D055E
S11354941D051D051D051D050000E4FBE4FB0000BE
S11354A41D051D051D051D051D051D05593A593A02
S11354B4593A593A593A593A593A593A593A593A4C
S11354C4593A593A593A593A1D051D051D051D0500
S11354D41D051D050000E4FBE4FB00001D051D057E
S11354E41D051D051D051D051D05593A593A593A51
S11354F4593A593A593A593A593A593A593A593A0C
S1135504593A1D051D051D051D051D051D051D0512
S11355140000E4FBE4FBE4FB00001D051D051D0580
S11355241D051D051D051D051D05593A593A593A10
S1135534593A593A593A593A593A1D051D051D051E
S11355441D051D051D051D051D050000E4FBE4FBEB
S1135554E4FBE4FB00001D051D051D051D051D05DB
S11355641D051D051D051D051D05593A593A593AD0
S1135574593A1D051D051D051D051D051D051D05A2
S11355841D051D051D050000E4FBE4FBE4FBE4FB31
S1135594E4FB00001D051D051D051D051D051D0558
S11355A41D051D051D051D051D051D051D051D05E3
S11355B41D051D051D051D051D051D051D051D05D3
S11355C40000E4FBE4FBE4FBE4FBE4FBE4FBE4FBBA
S11355D400001D051D051D051D051D051D051D05D5
S11355E41D051D051D051D051D051D051D051D05A3
S11355F41D051D051D051D051D050000E4FBE4FB3B
S1135604E4FBE4FBE4FBE4FBE4FBE4FBE4FB000079
S11356141D051D051D051D051D051D051D051D0572
S11356241D051D051D051D051D051D051D051D0562
S11356341D051D050000E4FBE4FBE4FBE4FBE4FBC3
S1135644E4FBE4FBE4FBE4FBE4FBE4FB00001D05F6
S11356541D051D051D051D051D051D051D051D0532
S11356641D051D051D051D051D051D051D05000044
S1135674E4FBE4FBE4FBE4FBE4FBE4FBE4FBE4FB2A
S1135684E4FBE4FBE4FBE4FBE4FB000000001D0595
S11356941D051D051D051D051D051D051D051D05F2
S11356A41D051D051D0500000000E4FBE4FBE4FBEF
S11356B4E4FBE4FBE4FBE4FBE4FBE4FBE4FBE4FBEA
S11356C4E4FBE4FBE4FBE4FBE4FB00000000000077
S11356D41D051D051D051D051D051D0500000000F6
S11356E40000E4FBE4FBE4FBE4FBE4FBE4FBE4FB99
S11356F4E4FBE4FBE4FBE4FBE4FBE4FBE4FBE4FBAA
S1135704E4FBE4FBE4FBE4FBE4FBE4FB0000000057
S11357140000000000000000E4FBE4FBE4FBE4FB05
S1135724E4FBE4FBE4FBE4FB0000000000000000F5
S1135734FFFFFFFFFFFFFFFFFFFFFFFFFFFFFFFF71
S1135744FFFFFFFFFFFF0000000000000000000057
S1135754000000000000FFFFFFFFFFFFFFFFFFFF4B
S1135764FFFFFFFFFFFFFFFFFFFFFFFFFFFFFFFF41
S1135774FFFFFFFFFFFFFFFFFFFFFFFFFFFF00002F
S11357840000E4E8E4E8E4E8E4E8E4E8E4E8E4E87D
S1135794E4E800000000FFFFFFFFFFFFFFFFFFFF3F
S11357A4FFFFFFFFFFFFFFFFFFFFFFFFFFFFFFFF01
S11357B4FFFFFFFFFFFF00000000E4E8E4E8E4E883
S11357C4E4E8E4E8E4E8E4E8E4E8E4E8E4E8E4E871
S11357D4E4E800000000FFFFFFFFFFFFFFFFFFFFFF
S11357E4FFFFFFFFFFFFFFFFFFFFFFFFFFFFFFFFC1
S11357F40000E4E8E4E8E4E8E4E8E4E8E4E8E4E80D
S1135804E4E8E4E8E4E8E4E8E4E8E4E8E4E8E4E830
S1135814E4E80000FFFFFFFFFFFFFFFFFFFFFFFFC0
S1135824FFFFFFFFFFFFFFFFFFFF0000E4E8E4E8E2
S1135834E4E8E4E8E4E8E4E8E4E8E4E8E4E8E4E800
S1135844E4E8E4E8E4E8E4E8E4E8E4E8E4E8E4E8F0
S11358540000FFFFFFFFFFFFFFFFFFFFFFFFFFFF4E
S1135864FFFFFFFF0000E4E8E4E8E4E8E4E8E4E838
S1135874E4E8E4E8E4E8E4E8E4E8E4E8E4E8E4E8C0
S1135884E4E8E4E8E4E8E4E8E4E8E4E8E4E800007C
S1135894FFFFFFFFFFFFFFFFFFFFFFFFFFFF00000E
S11358A4E4E8E4E8E4E8E4E8E4E8E4E8E4E8E4E890
S11358B4E4E8E4E8E4E8E4E8E4E8E4E8E4E8E4E880
S11358C4E4E8E4E8E4E8E4E8E4E8E4E80000FFFF0A
S11358D4FFFFFFFFFFFFFFFF0000E4E8E4E8E4E864
S11358E4E4E8E4E8E4E8E4E8E4E8E4E8E4E8E4E850
S11358F4E4E8E4E8E4E8E4E8E4E8E4E8E4E8E4E840
S1135904E4E8E4E8E4E8E4E8E4E80000FFFFFFFF97
S1135914FFFFFFFF0000E4E8E4E8E4E8E4E8E4E887
S1135924E4E8E4E8E4E8E4E8E4FBE4FBE4FBE4FBC3
S1135934E4FBE4FBE4E8E4E8E4E8E4E8E4E8E4E8D9
S1135944E4E8E4E8E4E80000FFFFFFFFFFFF0000F1
S1135954E4E8E4E8E4E8E4E8E4E8E4E8E4E8E4E8DF
S1135964E4E8E4FBE4FBE4FBE4FBE4FBE4FBE4FB4A
S1135974E4FBE4FBE4E8E4E8E4E8E4E8E4E8E4E899
S1135984E4E8E4E80000FFFFFFFF0000E4E8E4E8E3
S1135994E4E8E4E8E4E8E4E8E4E8E4FBE4FBE4FB66
S11359A4E4FBE4FBE4FBE4FBE4FBE4FBE4FBE4FBF7
S11359B4E4FBE4E8E4E8E4E8E4E8E4E8E4E8E4E86C
S11359C40000FFFF0000E4E8E4E8E4E8E4E8E4E8D5
S11359D4E4E8E4E8E4FBE4FBE4FBE4FBE4FBE4FBED
S11359E4E4FBE4FBE4FBE4FBE4FBE4FBE4FBE4E8CA
S11359F4E4E8E4E8E4E8E4E8E4E8E4E80000FFFFD9
S1135A040000E4E8E4E8E4E8E4E8E4E8E4E8E4E8FA
S1135A14E4FBE4FBE4FBE4FBE4FBE4FBE4FBE4FB86
S1135A24E4FBE4FBE4FBE4FBE4FBE4FBE4E8E4E89C
S1135A34E4E8E4E8E4E8E4E8E4E800000000E4E896
S1135A44E4E8E4E8E4E8E4E8E4E8E4FBE4FBE4FBB5
S1135A54E4FBE4FBE4FBE4FBE4FBE4FBE4FBE4FB46
S1135A64E4FBE4FBE4FBE4FBE4FBE4E8E4E8E4E86F
S1135A74E4E8E4E8E4E800000000E4E8E4E8E4E856
S1135A84E4E8E4E8E4E8E4FBE4FBE4FBE4FBE4FB4F
S1135A94E4FBE4FBE4FBE4FBE4FBE4FBE4FBE4FB06
S1135AA4E4FBE4FBE4FBE4E8E4E8E4E8E4E8E4E855
S1135AB4E4E800000000E4E8E4E8E4E8E4E8E4E816
S1135AC4E4E8E4FBE4FBE4FBE4FBE4FBE4FBE4FBE9
S1135AD4E4FBE4FBE4FBE4FBE4FBE4FBE4FBE4FBC6
S1135AE4E4FBE4E8E4E8E4E8E4E8E4E8E4E8000007
S1135AF40000E4E8E4E8E4E8E4E8E4E8E4E8E4FBF7
S1135B04E4FBE4FBE4FBE4FBE4FBE4FBE4FBE4FB95
S1135B14E4FBE4FBE4FBE4FBE4FBE4FBE4FBE4E898
S1135B24E4E8E4E8E4E8E4E8E4E800000000E4E8A5
S1135B34E4E8E4E8E4E8E4E8E4E8E4FBE4FBE4FBC4
S1135B44E4FBE4FBE4FBE4FBE4FBE4FBE4FBE4FB55
S1135B54E4FBE4FBE4FBE4FBE4FBE4E8E4E8E4E87E
S1135B64E4E8E4E8E4E800000000E4E8E4E8E4E865
S1135B74E4E8E4E8E4E8E4E8E4FBE4FBE4FBE4FB71
S1135B84E4FBE4FBE4FBE4FBE4FBE4FBE4FBE4FB15
S1135B94E4FBE4FBE4E8E4E8E4E8E4E8E4E8E4E877
S1135BA40000FFFFFFFF0000E4E8E4E8E4E8E4E8C1
S1135BB4E4E8E4E8E4FBE4FBE4FBE4FBE4FBE4FB0B
S1135BC4E4FBE4FBE4FBE4FBE4FBE4FBE4FBE4FBD5
S1135BD4E4E8E4E8E4E8E4E8E4E8E4E80000FFFFF7
S1135BE4FFFF0000E4E8E4E8E4E8E4E8E4E8E4E8E7
S1135BF4E4E8E4FBE4FBE4FBE4FBE4FBE4FBE4FBB8
S1135C04E4FBE4FBE4FBE4FBE4FBE4E8E4E8E4E8CD
S1135C14E4E8E4E8E4E8E4E80000FFFFFFFFFFFF52
S1135C240000E4E8E4E8E4E8E4E8E4E8E4E8E4E8D8
S1135C34E4E8E4FBE4FBE4FBE4FBE4FBE4FBE4FB77
S1135C44E4FBE4E8E4E8E4E8E4E8E4E8E4E8E4E8D9
S1135C54E4E80000FFFFFFFFFFFFFFFF0000E4E8AC
S1135C64E4E8E4E8E4E8E4E8E4E8E4E8E4E8E4E8CC
S1135C74E4E8E4FBE4FBE4FBE4FBE4E8E4E8E4E870
S1135C84E4E8E4E8E4E8E4E8E4E8E4E8E4E8000078
S1135C94FFFFFFFFFFFFFFFFFFFF0000E4E8E4E86E
S1135CA4E4E8E4E8E4E8E4E8E4E8E4E8E4E8E4E88C
S1135CB4E4E8E4E8E4E8E4E8E4E8E4E8E4E8E4E87C
S1135CC4E4E8E4E8E4E8E4E80000FFFFFFFFFFFFA2
S1135CD4FFFFFFFFFFFFFFFF0000E4E8E4E8E4E860
