S014000046696E616C50726F6A6563742E737265634F
S113000018F09FE518F09FE518F09FE518F09FE5BC
S113001018F09FE518F09FE518F09FE518F09FE5AC
S11300204000000054090000580900005C09000069
S1130030600900005009000064090000680900001C
S1130040260000EA8C609FE5000056E380402DE91D
S1130050016046E21E00000A7C509FE50000A0E318
S11300600010A0E30C2015E510E015E5084015E5A7
S113007002005EE1042082000900000A000054E34B
S11300800700000A0270A0E102C0A0E10C00BEE873
S11300900C00ACE80C3067E0030054E10C20A0E154
S11300A0F9FFFF1A04E015E500005EE30230A01139
S11300B00300000A0300A3E803C062E00C005EE151
S11300C0FBFFFF1A016046E2010076E3145085E26B
S11300D0E3FFFF1A040200EB01000000A857000030
S11300E03C108FE21600A0E3563412EF000050E3F8
S11300F0080000BA28209FE51CD09FE5080092E57F
S1130100000050E300D0A01110109FE5040092E518
S1130110000050E300008115C9FFFFEAF8FFFF3F2C
S1130120E85B0000D85E000000D01FE5C4FFFFEAD2
S1130130F8FFFF3F08402DE92C009FE52C309FE598
S1130140033060E0060053E30100008A0840BDE884
S11301501EFF2FE118309FE5000053E3FAFFFF0A6A
S11301600FE0A0E113FF2FE1F7FFFFEAF05B0000CF
S1130170F35B00000000000008402DE934009FE517
S113018034309FE5033060E04331A0E1A33F83E0D6
S1130190C310B0E10100001A0840BDE81EFF2FE1C2
S11301A018209FE5000052E3FAFFFF0A0FE0A0E1E8
S11301B012FF2FE1F7FFFFEAF05B0000F05B0000A5
S11301C00000000010402DE92C409FE50030D4E5EC
S11301D0000053E30600001AD5FFFFEB1C309FE537
S11301E0000053E318009F1500F020130130A0E332
S11301F00030C4E51040BDE81EFF2FE1F05B0000B5
S113020000000000F409000008402DE934309FE5A7
S1130210000053E330009F1530109F1500F02013A9
S11302202C009FE5003090E5000053E30300000A32
S113023020309FE5000053E30FE0A01113FF2F11BE
S11302400840BDE8CBFFFFEA00000000F40900000D
S1130250F45B0000A8570000000000000C1C05E33C
S1130260001040E3002091E5043091E5081091E589
S1130270010051E34A30A003010051E37220A003BE
S11302800C1C05E3001040E30C1091E5010051E360
S11302906830A003010051E37220A0030C1C05E3A5
S11302A0001040E3101091E5010051E38630A003F3
S11302B0010051E37220A0030C1C05E3001040E38D
S11302C0141091E5010051E34A30A003010051E309
S11302D09020A0030C1C05E3001040E3181091E5E6
S11302E0010051E36830A003010051E39020A00312
S11302F00C1C05E3001040E31C1091E5010051E3E0
S11303008630A003010051E39020A0030C1C05E3F8
S1130310001040E3201091E5010051E34A30A003AE
S1130320010051E3AE20A0030C1C05E3001040E3E0
S1130330241091E5010051E36830A003010051E36A
S1130340AE20A0030C1C05E3001040E3281091E547
S1130350010051E38630A003010051E3AE20A00365
S11303600C1C05E3001040E3002081E5043081E526
S11303701EFF2FE11EFF2FE11EFF2FE10C3C05E3C2
S1130380003040E32C3093E58000A0E1011583E0C8
S1130390B02081E11EFF2FE1F84F2DE90070A0E1AC
S11303A00160A0E10080E0E3F8A900E300A040E3DD
S11303B000B0A0E3A39F01E30A0000EA070084E081
S11303C00610A0E1F220F5E1EBFFFFEB014084E22F
S11303D05A0054E3F8FFFF1A5A8088E2016086E26B
S11303E0090058E1F88FBD0888508AE00B40A0E16D
S11303F0F1FFFFEAF84F2DE90070A0E10160A0E1F0
S11304000080E0E340B09FE50090A0E38BAA00E306
S11304100A0000EA070084E00610A0E1F220F5E1FA
S1130420D5FFFFEB014084E21E0054E3F8FFFF1AFE
S11304305A8088E2016086E20A0058E1F88FBD081C
S113044088508BE00940A0E1F1FFFFEA4049000039
S113045008402DE91430A0E3013053E2FDFFFF1AF8
S11304600C3C05E3003040E3000093E5041093E501
S1130470DFFFFFEB0880BDE870402DE90050A0E3EA
S11304800560A0E1090000EA0500A0E10410A0E174
S11304900620A0E1B8FFFFEB014084E2F00054E342
S11304A0F8FFFF1A015085E2050D55E37080BD0881
S11304B00640A0E1F3FFFFEA70402DE90050A0E3FD
S11304C00560A0E1090000EA0500A0E10410A0E134
S11304D00620A0E1A8FFFFEB014084E2F00054E312
S11304E0F8FFFF1A015085E2050D55E37080BD0841
S11304F00640A0E1F3FFFFEAFF3F03E3203F4FE3A1
S11305000120A0E3DF2F03E5D33F13E5010013E34C
S11305101EFF2F01FF2F03E3202F4FE3D33F12E5EC
S1130520010013E3FCFFFF1A1EFF2FE138402DE901
S11305300C4C05E3004040E30130A0E3183084E5AF
S1130540FF5F03E3205F4FE33233A0E3DB3F05E5C6
S1130550E8FFFFEBDF3F15E52C3084E50331A0E332
S1130560DB3F05E5DB3F15E52C3084E5D1FFFFEBF0
S1130570C0FFFFEB7200A0E34A10A0E385FFFFEB8E
S11305803030D4E5000053E33880BD18FF5F03E347
S1130590205F4FE30C4C05E3004040E32EFFFFEBEC
S11305A0AAFFFFEBD3FFFFEBDB3F15E52C3084E51F
S11305B03030D4E5000053E3F7FFFF0A3880BDE88C
S11305C00010A0E10000A0E308402DE90020A0E114
S11305D00030A0E10E0000EB0840BDE81EFF2FE153
S11305E008402DE90010A0E30040A0E1450000EB25
S11305F018309FE5000093E53C3090E5000053E39C
S11306000FE0A01113FF2F110400A0E1C90000EBBB
S113061050570000E4C09FE5F0412DE900409CE5FF
S113062048C194E500005CE353CF840204509CE588
S113063048C184051F0055E310D04DE20060A0E1DD
S1130640150000DAB8009FE5000050E30100001A2D
S11306500000E0E3180000EA190EA0E30C108DE599
S113066008208DE504308DE500F020E300C050E261
S11306700C109DE508209DE504309DE5F3FFFF0A7D
S1130680485194E50000A0E304008CE500508CE59B
S113069048C184E588018CE58C018CE5000056E3B3
S11306A004409CE50700001A023084E2014084E221
S11306B003118CE704408CE50000A0E310D08DE228
S11306C0F041BDE81EFF2FE10100A0E31004A0E10A
S11306D004818CE0020056E388719CE5083188E5CA
S11306E08C319C05007087E1000083010850A0E173
S11306F0882088E588718CE58C018C05E9FFFFEA88
S11307005057000000000000F04F2DE968319FE5CC
S1130710003093E514D04DE204308DE5523F83E27E
S113072008008DE50C308DE50170A0E10180A0E3A7
S113073004309DE5486193E5000056E30CB09DE567
S11307403300000A045096E5014055E288A0865221
S11307501F50855205518A500700005A290000EAAB
S1130760003095E5070053E10500000A014044E22A
S1130770010074E3045045E22200000A000057E33C
S1130780F6FFFF1A043096E505206AE0013043E2E3
S1130790022086E0040053E1783012E50010A01333
S11307A00440860578100215000053E3EEFFFF0AAB
S11307B01824A0E1881196E5010012E1049096E561
S11307C01600000A8C1196E5010012E11600001AC9
S11307D008009DE5801015E50FE0A0E113FF2FE16F
S11307E0043096E5090053E1D0FFFF1A00309BE581
S11307F0060053E1CDFFFF1A014044E2010074E317
S1130800045045E2DCFFFF1A70109FE5000051E33D
S11308100900001A14D08DE2F04FBDE81EFF2FE14D
S11308200FE0A0E113FF2FE1ECFFFFEA800015E5E4
S11308300FE0A0E113FF2FE1E8FFFFEA043096E5A3
S1130840000053E3003096E50800001A000053E36B
S11308500600000A0600A0E100308BE500F020E36A
S113086000609BE5000056E3B5FFFF1AE8FFFFEACE
S113087006B0A0E10360A0E1F9FFFFEA50570000D1
S11308800000000008402DE910309FE5000053E30C
S11308900C009F1549FFFF1B0840BDE81EFF2FE118
S11308A078570000A808000038402DE930509FE533
S11308B030409FE5044065E04441B0E104518510B7
S11308C00400000A043035E50FE0A0E113FF2FE136
S11308D0014054E2FAFFFF1AA61300EB3840BDE8CA
S11308E01EFF2FE1905700009457000008402DE9A7
S11308F01D0000EB30309FE5000053E3000093152A
S11309000300A00124309FE5000053E30010931579
S11309100310A0010020A0E303FFFFEB10309FE5CC
S1130920000053E32DFFFF1BFEFFFFEA0000000061
S113093000000000E005000004E02DE51800A0E33D
S113094004109FE5563412EFFEFFFFEA2600020072
S1130950FEFFFFEAFEFFFFEAFEFFFFEAFEFFFFEAFB
S1130960FEFFFFEAFEFFFFEAFEFFFFEA70402DE90B
S11309706C509FE56C609FE5066065E04661B0E100
S1130980045045120040A0130500000A0430B5E5E8
S1130990014084E20FE0A0E113FF2FE1040056E1DF
S11309A0F9FFFF1A40509FE540609FE5066065E04F
S11309B0681300EB4661B0E1045045120040A013F7
S11309C00500000A0430B5E5014084E20FE0A0E12F
S11309D013FF2FE1040056E1F9FFFF1A7040BDE850
S11309E01EFF2FE170570000705700007057000081
S10709F07857000030
S10709F400000000FB
S11309F8FFFFFFFFFFFFFFFFFFFFFFFFFFFFFFFFFB
S1130A08FFFFFFFFFFFFFFFFFFFFFFFFFFFFFFFFEA
S1130A18FFFFFFFFFFFFFFFFFFFFFFFFFFFFFFFFDA
S1130A28FFFFFFFFFFFFFFFFFFFFFFFFFFFFFFFFCA
S1130A38FFFFFFFFFFFFFFFFFFFFFFFFFFFFFFFFBA
S1130A48FFFFFFFFFFFFFFFFFFFFFFFFFFFFFFFFAA
S1130A58FFFFFFFFFFFFFFFFFFFFFFFFFFFFFFFF9A
S1130A68FFFFFFFFFFFFFFFFFFFFFFFFFFFFFFFF8A
S1130A78FFFFFFFFFFFFFFFFFFFFFFFFFFFFFFFF7A
S1130A88FFFFFFFFFFFFFFFFFFFFFFFFFFFFFFFF6A
S1130A98FFFFFFFFFFFFFFFFFFFFFFFFFFFFFFFF5A
S1130AA8FFFFFFFFFFFFE4FBE4FBE4FBE4FBE4FBE5
S1130AB8E4FBE4FBE4FBE4FBE4FBE4FBE4FBE4FB32
S1130AC8E4FBE4FBE4FBE4FBE4FBE4FBE4FBE4FB22
S1130AD8E4FBE4FBE4FBE4FBE4FBE4FBE4FBE4FB12
S1130AE8FFFFE4FBE4FBE4FBE4FBE4FBE4FBE4FBE3
S1130AF8E4FBE4FBE4FBE4FBE4FBE4FBE4FBE4FBF2
S1130B08E4FBE4FBE4FBE4FBE4FBE4FBE4FBE4FBE1
S1130B18E4FBE4FBE4FBE4FBE4FBE4FBE4FBFFFFB2
S1130B28E4FBE4FBE4FBE4FBE4FBE4FBE4FBE4FBC1
S1130B38E4FBE4FBE4FBE4FBE4FBE4FBE4FBE4FBB1
S1130B48E4FBE4FBE4FBE4FBE4FBE4FBE4FBE4FBA1
S1130B58E4FBE4FBE4FBFFFFFFFFE4FBE4FBE4FB53
S1130B68E4FBE4FBE4FBE4FBE4FBE4FBE4FBE4FB81
S1130B78E4FBE4FBE4FBE4FBE4FBE4FBE4FBE4FB71
S1130B88E4FBE4FBE4FBE4FBE4FBE4FBE4FBE4FB61
S1130B98E4FBE4FBFFFFE4FBE4FBE4FBE4FBE4FB32
S1130BA8E4FBE4FBE4FBE4FBE4FBE4FBE4FBE4FB41
S1130BB8E4FBE4FBE4FBE4FBE4FBE4FBE4FBE4FB31
S1130BC8E4FBE4FBE4FBE4FBE4FBE4FBE4FBE4FB21
S1130BD8E4FBFFFFE4FBE4FBE4FBE4FBE4FBE4FBF2
S1130BE8E4FBE4FBE4FBE4FBE4FBE4FBE4FBE4FB01
S1130BF8E4FBE4FBE4FBE4FBE4FBE4FBE4FBE4FBF1
S1130C08E4FBE4FBE4FBE4FBE4FBFFFFFFFFE4FBA2
S1130C18E4FBE4FBE4FBE4FBE4FBE4FBE4FBE4FBD0
S1130C28E4FBE4FBE4FBE4FBE4FBE4FBE4FBE4FBC0
S1130C38E4FBE4FBE4FBE4FBE4FBE4FBE4FBE4FBB0
S1130C48E4FBE4FBE4FBE4FBFFFFE4FBE4FBE4FB81
S1130C58E4FBE4FBE4FBE4FBE4FBE4FBE4FBE4FB90
S1130C68E4FBE4FBE4FBE4FBE4FBE4FBE4FBE4FB80
S1130C78E4FBE4FBE4FBE4FBE4FBE4FBE4FBE4FB70
S1130C88E4FBE4FBE4FBFFFFE4FBE4FBE4FBE4FB41
S1130C98E4FBE4FBE4FBE4FBE4FBE4FBE4FBE4FB50
S1130CA8E4FBE4FBE4FBE4FBE4FBE4FBE4FBE4FB40
S1130CB8E4FBE4FBE4FBE4FBE4FBE4FBE4FBFFFF11
S1130CC8FFFFE4FBE4FBE4FBE4FBE4FBE4FBE4FB01
S1130CD8E4FBE4FBE4FBE4FBE4FBE4FBE4FBE4FB10
S1130CE8E4FBE4FBE4FBE4FBE4FBE4FBE4FBE4FB00
S1130CF8E4FBE4FBE4FBE4FBE4FBE4FBFFFFE4FBD1
S1130D08E4FBE4FBE4FBE4FBE4FBE4FBE4FBE4FBDF
S1130D18E4FBE4FBE4FBE4FBE4FBE4FBE4FBE4FBCF
S1130D28E4FBE4FBE4FBE4FBE4FBE4FBE4FBE4FBBF
S1130D38E4FBE4FBE4FBE4FBE4FBFFFFE4FBE4FB90
S1130D48E4FBE4FBE4FBE4FBE4FBE4FBE4FBE4FB9F
S1130D58E4FBE4FBE4FBE4FBE4FBE4FBE4FBE4FB8F
S1130D68E4FBE4FBE4FBE4FBE4FBE4FBE4FBE4FB7F
S1130D78E4FBFFFFFFFFE4FBE4FBE4FBE4FBE4FB31
S1130D88E4FBE4FBE4FBE4FBE4FBE4FBE4FBE4FB5F
S1130D98E4FBE4FBE4FBE4FBE4FBE4FBE4FBE4FB4F
S1130DA8E4FBE4FBE4FBE4FBE4FBE4FBE4FBE4FB3F
S1130DB8FFFFE4FBE4FBE4FBE4FBE4FBE4FBE4FB10
S1130DC8E4FBE4FBE4FBE4FBE4FBE4FBE4FBE4FB1F
S1130DD8E4FBE4FBE4FBE4FBE4FBE4FBE4FBE4FB0F
S1130DE8E4FBE4FBE4FBE4FBE4FBE4FBE4FBFFFFE0
S1130DF8E4FBE4FBE4FBE4FBE4FBE4FBE4FBE4FBEF
S1130E08E4FBE4FBE4FBE4FBE4FBE4FBE4FBE4FBDE
S1130E18E4FBE4FBE4FBE4FBE4FBE4FBE4FBE4FBCE
S1130E28E4FBE4FBE4FBFFFFFFFFE4FBE4FBE4FB80
S1130E38E4FBE4FBE4FBE4FBE4FBE4FBE4FBE4FBAE
S1130E48E4FBE4FBE4FBE4FBE4FBE4FBE4FBE4FB9E
S1130E58E4FBE4FBE4FBE4FBE4FBE4FBE4FBE4FB8E
S1130E68E4FBE4FBFFFFE4FBE4FBE4FBE4FBE4FB5F
S1130E78E4FBE4FBE4FBE4FBE4FBE4FBE4FBE4FB6E
S1130E88E4FBE4FBE4FBE4FBE4FBE4FBE4FBE4FB5E
S1130E98E4FBE4FBE4FBE4FBE4FBE4FBE4FBE4FB4E
S1130EA8E4FBFFFFE4FBE4FBE4FBE4FBE4FBE4FB1F
S1130EB8E4FBE4FBE4FBE4FBE4FBE4FBE4FBE4FB2E
S1130EC8E4FBE4FBE4FBE4FBE4FBE4FBE4FBE4FB1E
S1130ED8E4FBE4FBE4FBE4FBE4FBFFFFFFFFE4FBD0
S1130EE8E4FBE4FBE4FBE4FBE4FBE4FBE4FBE4FBFE
S1130EF8E4FBE4FBE4FBE4FBE4FBE4FBE4FBE4FBEE
S1130F08E4FBE4FBE4FBE4FBE4FBE4FBE4FBE4FBDD
S1130F18E4FBE4FBE4FBE4FBFFFFE4FBE4FBE4FBAE
S1130F28E4FBE4FBE4FBE4FBE4FBE4FBE4FBE4FBBD
S1130F38E4FBE4FBE4FBE4FBE4FBE4FBE4FBE4FBAD
S1130F48E4FBE4FBE4FBE4FBE4FBE4FBE4FBE4FB9D
S1130F58E4FBE4FBE4FBFFFFE4FBE4FBE4FBE4FB6E
S1130F68E4FBE4FBE4FBE4FBE4FBE4FBE4FBE4FB7D
S1130F78E4FBE4FBE4FBE4FBE4FBE4FBE4FBE4FB6D
S1130F88E4FBE4FBE4FBE4FBE4FBE4FBE4FBFFFF3E
S1130F98FFFFE4FBE4FBE4FBE4FBE4FBE4FBE4FB2E
S1130FA8E4FBE4FBE4FBE4FBE4FBE4FBE4FBE4FB3D
S1130FB8E4FBE4FBE4FBE4FBE4FBE4FBE4FBE4FB2D
S1130FC8E4FBE4FBE4FBE4FBE4FBE4FBFFFFE4FBFE
S1130FD8E4FBE4FBE4FBE4FBE4FBE4FBE4FBE4FB0D
S1130FE8E4FBE4FBE4FBE4FBE4FBE4FBE4FBE4FBFD
S1130FF8E4FBE4FBE4FBE4FBE4FBE4FBE4FBE4FBED
S1131008E4FBE4FBE4FBE4FBE4FBFFFFE4FBE4FBBD
S1131018E4FBE4FBE4FBE4FBE4FBE4FBE4FBE4FBCC
S1131028E4FBE4FBE4FBE4FBE4FBE4FBE4FBE4FBBC
S1131038E4FBE4FBE4FBE4FBE4FBE4FBE4FBE4FBAC
S1131048E4FBFFFFFFFFE4FBE4FBE4FBE4FBE4FB5E
S1131058E4FBE4FBE4FBE4FBE4FBE4FBE4FBE4FB8C
S1131068E4FBE4FBE4FBE4FBE4FBE4FBE4FBE4FB7C
S1131078E4FBE4FBE4FBE4FBE4FBE4FBE4FBE4FB6C
S1131088FFFFE4FBE4FBE4FBE4FBE4FBE4FBE4FB3D
S1131098E4FBE4FBE4FBE4FBE4FBE4FBE4FBE4FB4C
S11310A8E4FBE4FBE4FBE4FBE4FBE4FBE4FBE4FB3C
S11310B8E4FBE4FBE4FBE4FBE4FBE4FBE4FBFFFF0D
S11310C8E4FBE4FBE4FBE4FBE4FBE4FBE4FBE4FB1C
S11310D8E4FBE4FBE4FBE4FBE4FBE4FBE4FBE4FB0C
S11310E8E4FBE4FBE4FBE4FBE4FBE4FBE4FBE4FBFC
S11310F8E4FBE4FBE4FBFFFFFFFFE4FBE4FBE4FBAE
S1131108E4FBE4FBE4FBE4FBE4FBE4FBE4FBE4FBDB
S1131118E4FBE4FBE4FBE4FBE4FBE4FBE4FBE4FBCB
S1131128E4FBE4FBE4FBE4FBE4FBE4FBE4FBE4FBBB
S1131138E4FBE4FBFFFFE4FBE4FBE4FBE4FBE4FB8C
S1131148E4FBE4FBE4FBE4FBE4FBE4FBE4FBE4FB9B
S1131158E4FBE4FBE4FBE4FBE4FBE4FBE4FBE4FB8B
S1131168E4FBE4FBE4FBE4FBE4FBE4FBE4FBE4FB7B
S1131178E4FBFFFFE4FBE4FBE4FBE4FBE4FBE4FB4C
S1131188E4FBE4FBE4FBE4FBE4FBE4FBE4FBE4FB5B
S1131198E4FBE4FBE4FBE4FBE4FBE4FBE4FBE4FB4B
S11311A8E4FBE4FBE4FBE4FBE4FBFFFFFFFFE4FBFD
S11311B8E4FBE4FBE4FBE4FBE4FBE4FBE4FBE4FB2B
S11311C8E4FBE4FBE4FBE4FBE4FBE4FBE4FBE4FB1B
S11311D8E4FBE4FBE4FBE4FBE4FBE4FBE4FBE4FB0B
S11311E8E4FBE4FBE4FBE4FBFFFFE4FBE4FBE4FBDC
S11311F8E4FBE4FBE4FBE4FBE4FBE4FBE4FBE4FBEB
S1131208E4FBE4FBE4FBE4FBE4FBE4FBE4FBE4FBDA
S1131218E4FBE4FBE4FBE4FBE4FBE4FBE4FBE4FBCA
S1131228E4FBE4FBE4FBFFFFE4FBE4FBE4FBE4FB9B
S1131238E4FBE4FBE4FBE4FBE4FBE4FBE4FBE4FBAA
S1131248E4FBE4FBE4FBE4FBE4FBE4FBE4FBE4FB9A
S1131258E4FBE4FBE4FBE4FBE4FBE4FBE4FBFFFF6B
S1131268FFFFE4FBE4FBE4FBE4FBE4FBE4FBE4FB5B
S1131278E4FBE4FBE4FBE4FBE4FBE4FBE4FBE4FB6A
S1131288E4FBE4FBE4FBE4FBE4FBE4FBE4FBE4FB5A
S1131298E4FBE4FBE4FBE4FBE4FBE4FBFFFFE4FB2B
S11312A8E4FBE4FBE4FBE4FBE4FBE4FBE4FBE4FB3A
S11312B8E4FBE4FBE4FBE4FBE4FBE4FBE4FBE4FB2A
S11312C8E4FBE4FBE4FBE4FBE4FBE4FBE4FBE4FB1A
S11312D8E4FBE4FBE4FBE4FBE4FBFFFFE4FBE4FBEB
S11312E8E4FBE4FBE4FBE4FBE4FBE4FBE4FBE4FBFA
S11312F8E4FBE4FBE4FBE4FBE4FBE4FBE4FBE4FBEA
S1131308E4FBE4FBE4FBE4FBE4FBE4FBE4FBE4FBD9
S1131318E4FBFFFFFFFFE4FBE4FBE4FBE4FBE4FB8B
S1131328E4FBE4FBE4FBE4FBE4FBE4FBE4FBE4FBB9
S1131338E4FBE4FBE4FBE4FBE4FBE4FBE4FBE4FBA9
S1131348E4FBE4FBE4FBE4FBE4FBE4FBE4FBE4FB99
S1131358FFFFE4FBE4FBE4FBE4FBE4FBE4FBE4FB6A
S1131368E4FBE4FBE4FBE4FBE4FBE4FBE4FBE4FB79
S1131378E4FBE4FBE4FBE4FBE4FBE4FBE4FBE4FB69
S1131388E4FBE4FBE4FBE4FBE4FBE4FBE4FBFFFF3A
S1131398E4FBE4FBE4FBE4FBE4FBE4FBE4FBE4FB49
S11313A8E4FBE4FBE4FBE4FBE4FBE4FBE4FBE4FB39
S11313B8E4FBE4FBE4FBE4FBE4FBE4FBE4FBE4FB29
S11313C8E4FBE4FBE4FBFFFFFFFFE4FBE4FBE4FBDB
S11313D8E4FBE4FBE4FBE4FBE4FBE4FBE4FBE4FB09
S11313E8E4FBE4FBE4FBE4FBE4FBE4FBE4FBE4FBF9
S11313F8E4FBE4FBE4FBE4FBE4FBE4FBE4FBE4FBE9
S1131408E4FBE4FBFFFFE4FBE4FBE4FBE4FBE4FBB9
S1131418E4FBE4FBE4FBE4FBE4FBE4FBE4FBE4FBC8
S1131428E4FBE4FBE4FBE4FBE4FBE4FBE4FBE4FBB8
S1131438E4FBE4FBE4FBE4FBE4FBE4FBE4FBE4FBA8
S1131448E4FBFFFFE4FBE4FBE4FBE4FBE4FBE4FB79
S1131458E4FBE4FBE4FBE4FBE4FBE4FBE4FBE4FB88
S1131468E4FBE4FBE4FBE4FBE4FBE4FBE4FBE4FB78
S1131478E4FBE4FBE4FBE4FBE4FBFFFFFFFFE4FB2A
S1131488E4FBE4FBE4FBE4FBE4FBE4FBE4FBE4FB58
S1131498E4FBE4FBE4FBE4FBE4FBE4FBE4FBE4FB48
S11314A8E4FBE4FBE4FBE4FBE4FBE4FBE4FBE4FB38
S11314B8E4FBE4FBE4FBE4FBFFFFE4FBE4FBE4FB09
S11314C8E4FBE4FBE4FBE4FBE4FBE4FBE4FBE4FB18
S11314D8E4FBE4FBE4FBE4FBE4FBE4FBE4FBE4FB08
S11314E8E4FBE4FBE4FBE4FBE4FBE4FBE4FBE4FBF8
S11314F8E4FBE4FBE4FBFFFFE4FBE4FBE4FBE4FBC9
S1131508E4FBE4FBE4FBE4FBE4FBE4FBE4FBE4FBD7
S1131518E4FBE4FBE4FBE4FBE4FBE4FBE4FBE4FBC7
S1131528E4FBE4FBE4FBE4FBE4FBE4FBE4FBFFFF98
S1131538FFFFE4FBE4FBE4FBE4FBE4FBE4FBE4FB88
S1131548E4FBE4FBE4FBE4FBE4FBE4FBE4FBE4FB97
S1131558E4FBE4FBE4FBE4FBE4FBE4FBE4FBE4FB87
S1131568E4FBE4FBE4FBE4FBE4FBE4FBFFFFE4FB58
S1131578E4FBE4FBE4FBE4FBE4FBE4FBE4FBE4FB67
S1131588E4FBE4FBE4FBE4FBE4FBE4FBE4FBE4FB57
S1131598E4FBE4FBE4FBE4FBE4FBE4FBE4FBE4FB47
S11315A8E4FBE4FBE4FBE4FBE4FBFFFFE4FBE4FB18
S11315B8E4FBE4FBE4FBE4FBE4FBE4FBE4FBE4FB27
S11315C8E4FBE4FBE4FBE4FBE4FBE4FBE4FBE4FB17
S11315D8E4FBE4FBE4FBE4FBE4FBE4FBE4FBE4FB07
S11315E8E4FBFFFFFFFFE4FBE4FBE4FBE4FBE4FBB9
S11315F8E4FBE4FBE4FBE4FBE4FBE4FBE4FBE4FBE7
S1131608E4FBE4FBE4FBE4FBE4FBE4FBE4FBE4FBD6
S1131618E4FBE4FBE4FBE4FBE4FBE4FBE4FBE4FBC6
S1131628FFFFE4FBE4FBE4FBE4FBE4FBE4FBE4FB97
S1131638E4FBE4FBE4FBE4FBE4FBE4FBE4FBE4FBA6
S1131648E4FBE4FBE4FBE4FBE4FBE4FBE4FBE4FB96
S1131658E4FBE4FBE4FBE4FBE4FBE4FBE4FBFFFF67
S1131668E4FBE4FBE4FBE4FBE4FBE4FBE4FBE4FB76
S1131678E4FBE4FBE4FBE4FBE4FBE4FBE4FBE4FB66
S1131688E4FBE4FBE4FBE4FBE4FBE4FBE4FBE4FB56
S1131698E4FBE4FBE4FBFFFFFFFFE4FBE4FBE4FB08
S11316A8E4FBE4FBE4FBE4FBE4FBE4FBE4FBE4FB36
S11316B8E4FBE4FBE4FBE4FBE4FBE4FBE4FBE4FB26
S11316C8E4FBE4FBE4FBE4FBE4FBE4FBE4FBE4FB16
S11316D8E4FBE4FBFFFFE4FBE4FBE4FBE4FBE4FBE7
S11316E8E4FBE4FBE4FBE4FBE4FBE4FBE4FBE4FBF6
S11316F8E4FBE4FBE4FBE4FBE4FBE4FBE4FBE4FBE6
S1131708E4FBE4FBE4FBE4FBE4FBE4FBE4FBE4FBD5
S1131718E4FBFFFFE4FBE4FBE4FBE4FBE4FBE4FBA6
S1131728E4FBE4FBE4FBE4FBE4FBE4FBE4FBE4FBB5
S1131738E4FBE4FBE4FBE4FBE4FBE4FBE4FBE4FBA5
S1131748E4FBE4FBE4FBE4FBE4FBFFFFFFFFE4FB57
S1131758E4FBE4FBE4FBE4FBE4FBE4FBE4FBE4FB85
S1131768E4FBE4FBE4FBE4FBE4FBE4FBE4FBE4FB75
S1131778E4FBE4FBE4FBE4FBE4FBE4FBE4FBE4FB65
S1131788E4FBE4FBE4FBE4FBFFFFE4FBE4FBE4FB36
S1131798E4FBE4FBE4FBE4FBE4FBE4FBE4FBE4FB45
S11317A8E4FBE4FBE4FBE4FBE4FBE4FBE4FBE4FB35
S11317B8E4FBE4FBE4FBE4FBE4FBE4FBE4FBE4FB25
S11317C8E4FBE4FBE4FBFFFFE4FBE4FBE4FBE4FBF6
S11317D8E4FBE4FBE4FBE4FBE4FBE4FBE4FBE4FB05
S11317E8E4FBE4FBE4FBE4FBE4FBE4FBE4FBE4FBF5
S11317F8E4FBE4FBE4FBE4FBE4FBE4FBE4FBFFFFC6
S1131808FFFFE4FBE4FBE4FBE4FBE4FBE4FBE4FBB5
S1131818E4FBE4FBE4FBE4FBE4FBE4FBE4FBE4FBC4
S1131828E4FBE4FBE4FBE4FBE4FBE4FBE4FBE4FBB4
S1131838E4FBE4FBE4FBE4FBE4FBE4FBFFFFE4FB85
S1131848E4FBE4FBE4FBE4FBE4FBE4FBE4FBE4FB94
S1131858E4FBE4FBE4FBE4FBE4FBE4FBE4FBE4FB84
S1131868E4FBE4FBE4FBE4FBE4FBE4FBE4FBE4FB74
S1131878E4FBE4FBE4FBE4FBE4FBFFFFE4FBE4FB45
S1131888E4FBE4FBE4FBE4FBE4FBE4FBE4FBE4FB54
S1131898E4FBE4FBE4FBE4FBE4FBE4FBE4FBE4FB44
S11318A8E4FBE4FBE4FBE4FBE4FBE4FBE4FBE4FB34
S11318B8E4FBFFFFFFFFE4FBE4FBE4FBE4FBE4FBE6
S11318C8E4FBE4FBE4FBE4FBE4FBE4FBE4FBE4FB14
S11318D8E4FBE4FBE4FBE4FBE4FBE4FBE4FBE4FB04
S11318E8E4FBE4FBE4FBE4FBE4FBE4FBE4FBE4FBF4
S11318F8FFFFE4FBE4FBE4FBE4FBE4FBE4FBE4FBC5
S1131908E4FBE4FBE4FBE4FBE4FBE4FBE4FBE4FBD3
S1131918E4FBE4FBE4FBE4FBE4FBE4FBE4FBE4FBC3
S1131928E4FBE4FBE4FBE4FBE4FBE4FBE4FBFFFF94
S1131938E4FBE4FBE4FBE4FBE4FBE4FBE4FBE4FBA3
S1131948E4FBE4FBE4FBE4FBE4FBE4FBE4FBE4FB93
S1131958E4FBE4FBE4FBE4FBE4FBE4FBE4FBE4FB83
S1131968E4FBE4FBE4FBFFFFFFFFE4FBE4FBE4FB35
S1131978E4FBE4FBE4FBE4FBE4FBE4FBE4FBE4FB63
S1131988E4FBE4FBE4FBE4FBE4FBE4FBE4FBE4FB53
S1131998E4FBE4FBE4FBE4FBE4FBE4FBE4FBE4FB43
S11319A8E4FBE4FBFFFFE4FBE4FBE4FBE4FBE4FB14
S11319B8E4FBE4FBE4FBE4FBE4FBE4FBE4FBE4FB23
S11319C8E4FBE4FBE4FBE4FBE4FBE4FBE4FBE4FB13
S11319D8E4FBE4FBE4FBE4FBE4FBE4FBE4FBE4FB03
S11319E8E4FBFFFFE4FBE4FBE4FBE4FBE4FBE4FBD4
S11319F8E4FBE4FBE4FBE4FBE4FBE4FBE4FBE4FBE3
S1131A08E4FBE4FBE4FBE4FBE4FBE4FBE4FBE4FBD2
S1131A18E4FBE4FBE4FBE4FBE4FBFFFFFFFFE4FB84
S1131A28E4FBE4FBE4FBE4FBE4FBE4FBE4FBE4FBB2
S1131A38E4FBE4FBE4FBE4FBE4FBE4FBE4FBE4FBA2
S1131A48E4FBE4FBE4FBE4FBE4FBE4FBE4FBE4FB92
S1131A58E4FBE4FBE4FBE4FBFFFFE4FBE4FBE4FB63
S1131A68E4FBE4FBE4FBE4FBE4FBE4FBE4FBE4FB72
S1131A78E4FBE4FBE4FBE4FBE4FBE4FBE4FBE4FB62
S1131A88E4FBE4FBE4FBE4FBE4FBE4FBE4FBE4FB52
S1131A98E4FBE4FBE4FBFFFFE4FBE4FBE4FBE4FB23
S1131AA8E4FBE4FBE4FBE4FBE4FBE4FBE4FBE4FB32
S1131AB8E4FBE4FBE4FBE4FBE4FBE4FBE4FBE4FB22
S1131AC8E4FBE4FBE4FBE4FBE4FBE4FBE4FBFFFFF3
S1131AD8FFFFE4FBE4FBE4FBE4FBE4FBE4FBE4FBE3
S1131AE8E4FBE4FBE4FBE4FBE4FBE4FBE4FBE4FBF2
S1131AF8E4FBE4FBE4FBE4FBE4FBE4FBE4FBE4FBE2
S1131B08E4FBE4FBE4FBE4FBE4FBE4FBFFFFE4FBB2
S1131B18E4FBE4FBE4FBE4FBE4FBE4FBE4FBE4FBC1
S1131B28E4FBE4FBE4FBE4FBE4FBE4FBE4FBE4FBB1
S1131B38E4FBE4FBE4FBE4FBE4FBE4FBE4FBE4FBA1
S1131B48E4FBE4FBE4FBE4FBE4FBFFFFE4FBE4FB72
S1131B58E4FBE4FBE4FBE4FBE4FBE4FBE4FBE4FB81
S1131B68E4FBE4FBE4FBE4FBE4FBE4FBE4FBE4FB71
S1131B78E4FBE4FBE4FBE4FBE4FBE4FBE4FBE4FB61
S1131B88E4FBFFFFFFFFE4FBE4FBE4FBE4FBE4FB13
S1131B98E4FBE4FBE4FBE4FBE4FBE4FBE4FBE4FB41
S1131BA8E4FBE4FBE4FBE4FBE4FBE4FBE4FBE4FB31
S1131BB8E4FBE4FBE4FBE4FBE4FBE4FBE4FBE4FB21
S1131BC8FFFFE4FBE4FBE4FBE4FBE4FBE4FBE4FBF2
S1131BD8E4FBE4FBE4FBE4FBE4FBE4FBE4FBE4FB01
S1131BE8E4FBE4FBE4FBE4FBE4FBE4FBE4FBE4FBF1
S1131BF8E4FBE4FBE4FBE4FBE4FBE4FBE4FBFFFFC2
S1131C08E4FBE4FBE4FBE4FBE4FBE4FBE4FBE4FBD0
S1131C18E4FBE4FBE4FBE4FBE4FBE4FBE4FBE4FBC0
S1131C28E4FBE4FBE4FBE4FBE4FBE4FBE4FBE4FBB0
S1131C38E4FBE4FBE4FBFFFFFFFFE4FBE4FBE4FB62
S1131C48E4FBE4FBE4FBE4FBE4FBE4FBE4FBE4FB90
S1131C58E4FBE4FBE4FBE4FBE4FBE4FBE4FBE4FB80
S1131C68E4FBE4FBE4FBE4FBE4FBE4FBE4FBE4FB70
S1131C78E4FBE4FBFFFFE4FBE4FBE4FBE4FBE4FB41
S1131C88E4FBE4FBE4FBE4FBE4FBE4FBE4FBE4FB50
S1131C98E4FBE4FBE4FBE4FBE4FBE4FBE4FBE4FB40
S1131CA8E4FBE4FBE4FBE4FBE4FBE4FBE4FBE4FB30
S1131CB8E4FBFFFFE4FBE4FBE4FBE4FBE4FBE4FB01
S1131CC8E4FBE4FBE4FBE4FBE4FBE4FBE4FBE4FB10
S1131CD8E4FBE4FBE4FBE4FBE4FBE4FBE4FBE4FB00
S1131CE8E4FBE4FBE4FBE4FBE4FBFFFFFFFFE4FBB2
S1131CF8E4FBE4FBE4FBE4FBE4FBE4FBE4FBE4FBE0
S1131D08E4FBE4FBE4FBE4FBE4FBE4FBE4FBE4FBCF
S1131D18E4FBE4FBE4FBE4FBE4FBE4FBE4FBE4FBBF
S1131D28E4FBE4FBE4FBE4FBFFFFE4FBE4FBE4FB90
S1131D38E4FBE4FBE4FBE4FBE4FBE4FBE4FBE4FB9F
S1131D48E4FBE4FBE4FBE4FBE4FBE4FBE4FBE4FB8F
S1131D58E4FBE4FBE4FBE4FBE4FBE4FBE4FBE4FB7F
S1131D68E4FBE4FBE4FBFFFFE4FBE4FBE4FBE4FB50
S1131D78E4FBE4FBE4FBE4FBE4FBE4FBE4FBE4FB5F
S1131D88E4FBE4FBE4FBE4FBE4FBE4FBE4FBE4FB4F
S1131D98E4FBE4FBE4FBE4FBE4FBE4FBE4FBFFFF20
S1131DA8FFFFE4FBE4FBE4FBE4FBE4FBE4FBE4FB10
S1131DB8E4FBE4FBE4FBE4FBE4FBE4FBE4FBE4FB1F
S1131DC8E4FBE4FBE4FBE4FBE4FBE4FBE4FBE4FB0F
S1131DD8E4FBE4FBE4FBE4FBE4FBE4FBFFFFE4FBE0
S1131DE8E4FBE4FBE4FBE4FBE4FBE4FBE4FBE4FBEF
S1131DF8E4FBE4FBE4FBE4FBE4FBE4FBE4FBE4FBDF
S1131E08E4FBE4FBE4FBE4FBE4FBE4FBE4FBE4FBCE
S1131E18E4FBE4FBE4FBE4FBE4FBFFFFE4FBE4FB9F
S1131E28E4FBE4FBE4FBE4FBE4FBE4FBE4FBE4FBAE
S1131E38E4FBE4FBE4FBE4FBE4FBE4FBE4FBE4FB9E
S1131E48E4FBE4FBE4FBE4FBE4FBE4FBE4FBE4FB8E
S1131E58E4FBFFFFFFFFE4FBE4FBE4FBE4FBE4FB40
S1131E68E4FBE4FBE4FBE4FBE4FBE4FBE4FBE4FB6E
S1131E78E4FBE4FBE4FBE4FBE4FBE4FBE4FBE4FB5E
S1131E88E4FBE4FBE4FBE4FBE4FBE4FBE4FBE4FB4E
S1131E98FFFFE4FBE4FBE4FBE4FBE4FBE4FBE4FB1F
S1131EA8E4FBE4FBE4FBE4FBE4FBE4FBE4FBE4FB2E
S1131EB8E4FBE4FBE4FBE4FBE4FBE4FBE4FBE4FB1E
S1131EC8E4FBE4FBE4FBE4FBE4FBE4FBE4FBFFFFEF
S1131ED8E4FBE4FBE4FBE4FBE4FBE4FBE4FBE4FBFE
S1131EE8E4FBE4FBE4FBE4FBE4FBE4FBE4FBE4FBEE
S1131EF8E4FBE4FBE4FBE4FBE4FBE4FBE4FBE4FBDE
S1131F08E4FBE4FBE4FBFFFFFFFFFFFFFFFFFFFF32
S1131F18FFFFFFFFFFFFFFFFFFFFFFFFFFFFFFFFC5
S1131F28FFFFFFFFFFFFFFFFFFFFFFFFFFFFFFFFB5
S1131F38FFFFFFFFFFFFFFFFFFFFFFFFFFFFFFFFA5
S1131F48FFFFFFFFFFFFFFFFFFFFFFFFFFFFFFFF95
S1131F58FFFFFFFFFFFFFFFFFFFFFFFFFFFFFFFF85
S1131F68FFFFFFFFFFFFFFFFFFFFFFFFFFFFFFFF75
S1131F78FFFFFFFFFFFFFFFFFFFFFFFFFFFFFFFF65
S1131F88FFFFFFFFFFFFFFFFFFFFFFFFFFFFFFFF55
S1131F98FFFFFFFFFFFFFFFFFFFFFFFFFFFFFFFF45
S1131FA8FFFFFFFFFFFFFFFFFFFFFFFFFFFFFFFF35
S1131FB8FFFFFFFFFFFFFFFFFFFFFFFFFFFFE4FB44
S1131FC8E4FBE4FBE4FBE4FBE4FBE4FBE4FBE4FB0D
S1131FD8E4FBE4FBE4FBE4FBE4FBE4FBE4FBE4FBFD
S1131FE8E4FBE4FBE4FBE4FBE4FBE4FBE4FBE4FBED
S1131FF8E4FBE4FBE4FBE4FBFFFFE4FBE4FBE4FBBE
S1132008E4FBE4FBE4FBE4FBE4FBE4FBE4FBE4FBCC
S1132018E4FBE4FBE4FBE4FBE4FBE4FBE4FBE4FBBC
S1132028E4FBE4FBE4FBE4FBE4FBE4FBE4FBE4FBAC
S1132038E4FBE4FBE4FBFFFFE4FBE4FBE4FBE4FB7D
S1132048E4FBE4FBE4FBE4FBE4FBE4FBE4FBE4FB8C
S1132058E4FBE4FBE4FBE4FBE4FBE4FBE4FBE4FB7C
S1132068E4FBE4FBE4FBE4FBE4FBE4FBE4FBFFFF4D
S1132078FFFFE4FBE4FBE4FBE4FBE4FBE4FBE4FB3D
S1132088E4FBE4FBE4FBE4FBE4FBE4FBE4FBE4FB4C
S1132098E4FBE4FBE4FBE4FBE4FBE4FBE4FBE4FB3C
S11320A8E4FBE4FBE4FBE4FBE4FBE4FBFFFFE4FB0D
S11320B8E4FBE4FBE4FBE4FBE4FBE4FBE4FBE4FB1C
S11320C8E4FBE4FBE4FBE4FBE4FBE4FBE4FBE4FB0C
S11320D8E4FBE4FBE4FBE4FBE4FBE4FBE4FBE4FBFC
S11320E8E4FBE4FBE4FBE4FBE4FBFFFFE4FBE4FBCD
S11320F8E4FBE4FBE4FBE4FBE4FBE4FBE4FBE4FBDC
S1132108E4FBE4FBE4FBE4FBE4FBE4FBE4FBE4FBCB
S1132118E4FBE4FBE4FBE4FBE4FBE4FBE4FBE4FBBB
S1132128E4FBFFFFFFFFE4FBE4FBE4FBE4FBE4FB6D
S1132138E4FBE4FBE4FBE4FBE4FBE4FBE4FBE4FB9B
S1132148E4FBE4FBE4FBE4FBE4FBE4FBE4FBE4FB8B
S1132158E4FBE4FBE4FBE4FBE4FBE4FBE4FBE4FB7B
S1132168FFFFE4FBE4FBE4FBE4FBE4FBE4FBE4FB4C
S1132178E4FBE4FBE4FBE4FBE4FBE4FBE4FBE4FB5B
S1132188E4FBE4FBE4FBE4FBE4FBE4FBE4FBE4FB4B
S1132198E4FBE4FBE4FBE4FBE4FBE4FBE4FBFFFF1C
S11321A8E4FBE4FBE4FBE4FBE4FBE4FBE4FBE4FB2B
S11321B8E4FBE4FBE4FBE4FBE4FBE4FBE4FBE4FB1B
S11321C8E4FBE4FBE4FBE4FBE4FBE4FBE4FBE4FB0B
S11321D8E4FBE4FBE4FBFFFFFFFFE4FBE4FBE4FBBD
S11321E8E4FBE4FBE4FBE4FBE4FBE4FBE4FBE4FBEB
S11321F8E4FBE4FBE4FBE4FBE4FBE4FBE4FBE4FBDB
S1132208E4FBE4FBE4FBE4FBE4FBE4FBE4FBE4FBCA
S1132218E4FBE4FBFFFFE4FBE4FBE4FBE4FBE4FB9B
S1132228E4FBE4FBE4FBE4FBE4FBE4FBE4FBE4FBAA
S1132238E4FBE4FBE4FBE4FBE4FBE4FBE4FBE4FB9A
S1132248E4FBE4FBE4FBE4FBE4FBE4FBE4FBE4FB8A
S1132258E4FBFFFFE4FBE4FBE4FBE4FBE4FBE4FB5B
S1132268E4FBE4FBE4FBE4FBE4FBE4FBE4FBE4FB6A
S1132278E4FBE4FBE4FBE4FBE4FBE4FBE4FBE4FB5A
S1132288E4FBE4FBE4FBE4FBE4FBFFFFFFFFE4FB0C
S1132298E4FBE4FBE4FBE4FBE4FBE4FBE4FBE4FB3A
S11322A8E4FBE4FBE4FBE4FBE4FBE4FBE4FBE4FB2A
S11322B8E4FBE4FBE4FBE4FBE4FBE4FBE4FBE4FB1A
S11322C8E4FBE4FBE4FBE4FBFFFFE4FBE4FBE4FBEB
S11322D8E4FBE4FBE4FBE4FBE4FBE4FBE4FBE4FBFA
S11322E8E4FBE4FBE4FBE4FBE4FBE4FBE4FBE4FBEA
S11322F8E4FBE4FBE4FBE4FBE4FBE4FBE4FBE4FBDA
S1132308E4FBE4FBE4FBFFFFE4FBE4FBE4FBE4FBAA
S1132318E4FBE4FBE4FBE4FBE4FBE4FBE4FBE4FBB9
S1132328E4FBE4FBE4FBE4FBE4FBE4FBE4FBE4FBA9
S1132338E4FBE4FBE4FBE4FBE4FBE4FBE4FBFFFF7A
S1132348FFFFE4FBE4FBE4FBE4FBE4FBE4FBE4FB6A
S1132358E4FBE4FBE4FBE4FBE4FBE4FBE4FBE4FB79
S1132368E4FBE4FBE4FBE4FBE4FBE4FBE4FBE4FB69
S1132378E4FBE4FBE4FBE4FBE4FBE4FBFFFFE4FB3A
S1132388E4FBE4FBE4FBE4FBE4FBE4FBE4FBE4FB49
S1132398E4FBE4FBE4FBE4FBE4FBE4FBE4FBE4FB39
S11323A8E4FBE4FBE4FBE4FBE4FBE4FBE4FBE4FB29
S11323B8E4FBE4FBE4FBE4FBE4FBFFFFE4FBE4FBFA
S11323C8E4FBE4FBE4FBE4FBE4FBE4FBE4FBE4FB09
S11323D8E4FBE4FBE4FBE4FBE4FBE4FBE4FBE4FBF9
S11323E8E4FBE4FBE4FBE4FBE4FBE4FBE4FBE4FBE9
S11323F8E4FBFFFFFFFFE4FBE4FBE4FBE4FBE4FB9B
S1132408E4FBE4FBE4FBE4FBE4FBE4FBE4FBE4FBC8
S1132418E4FBE4FBE4FBE4FBE4FBE4FBE4FBE4FBB8
S1132428E4FBE4FBE4FBE4FBE4FBE4FBE4FBE4FBA8
S1132438FFFFE4FBE4FBE4FBE4FBE4FBE4FBE4FB79
S1132448E4FBE4FBE4FBE4FBE4FBE4FBE4FBE4FB88
S1132458E4FBE4FBE4FBE4FBE4FBE4FBE4FBE4FB78
S1132468E4FBE4FBE4FBE4FBE4FBE4FBE4FBFFFF49
S1132478E4FBE4FBE4FBE4FBE4FBE4FBE4FBE4FB58
S1132488E4FBE4FBE4FBE4FBE4FBE4FBE4FBE4FB48
S1132498E4FBE4FBE4FBE4FBE4FBE4FBE4FBE4FB38
S11324A8E4FBE4FBE4FBFFFFFFFFE4FBE4FBE4FBEA
S11324B8E4FBE4FBE4FBE4FBE4FBE4FBE4FBE4FB18
S11324C8E4FBE4FBE4FBE4FBE4FBE4FBE4FBE4FB08
S11324D8E4FBE4FBE4FBE4FBE4FBE4FBE4FBE4FBF8
S11324E8E4FBE4FBFFFFE4FBE4FBE4FBE4FBE4FBC9
S11324F8E4FBE4FBE4FBE4FBE4FBE4FBE4FBE4FBD8
S1132508E4FBE4FBE4FBE4FBE4FBE4FBE4FBE4FBC7
S1132518E4FBE4FBE4FBE4FBE4FBE4FBE4FBE4FBB7
S1132528E4FBFFFFE4FBE4FBE4FBE4FBE4FBE4FB88
S1132538E4FBE4FBE4FBE4FBE4FBE4FBE4FBE4FB97
S1132548E4FBE4FBE4FBE4FBE4FBE4FBE4FBE4FB87
S1132558E4FBE4FBE4FBE4FBE4FBFFFFFFFFE4FB39
S1132568E4FBE4FBE4FBE4FBE4FBE4FBE4FBE4FB67
S1132578E4FBE4FBE4FBE4FBE4FBE4FBE4FBE4FB57
S1132588E4FBE4FBE4FBE4FBE4FBE4FBE4FBE4FB47
S1132598E4FBE4FBE4FBE4FBFFFFE4FBE4FBE4FB18
S11325A8E4FBE4FBE4FBE4FBE4FBE4FBE4FBE4FB27
S11325B8E4FBE4FBE4FBE4FBE4FBE4FBE4FBE4FB17
S11325C8E4FBE4FBE4FBE4FBE4FBE4FBE4FBE4FB07
S11325D8E4FBE4FBE4FBFFFFE4FBE4FBE4FBE4FBD8
S11325E8E4FBE4FBE4FBE4FBE4FBE4FBE4FBE4FBE7
S11325F8E4FBE4FBE4FBE4FBE4FBE4FBE4FBE4FBD7
S1132608E4FBE4FBE4FBE4FBE4FBE4FBE4FBFFFFA7
S1132618FFFFE4FBE4FBE4FBE4FBE4FBE4FBE4FB97
S1132628E4FBE4FBE4FBE4FBE4FBE4FBE4FBE4FBA6
S1132638E4FBE4FBE4FBE4FBE4FBE4FBE4FBE4FB96
S1132648E4FBE4FBE4FBE4FBE4FBE4FBFFFFE4FB67
S1132658E4FBE4FBE4FBE4FBE4FBE4FBE4FBE4FB76
S1132668E4FBE4FBE4FBE4FBE4FBE4FBE4FBE4FB66
S1132678E4FBE4FBE4FBE4FBE4FBE4FBE4FBE4FB56
S1132688E4FBE4FBE4FBE4FBE4FBFFFFE4FBE4FB27
S1132698E4FBE4FBE4FBE4FBE4FBE4FBE4FBE4FB36
S11326A8E4FBE4FBE4FBE4FBE4FBE4FBE4FBE4FB26
S11326B8E4FBE4FBE4FBE4FBE4FBE4FBE4FBE4FB16
S11326C8E4FBFFFFFFFFE4FBE4FBE4FBE4FBE4FBC8
S11326D8E4FBE4FBE4FBE4FBE4FBE4FBE4FBE4FBF6
S11326E8E4FBE4FBE4FBE4FBE4FBE4FBE4FBE4FBE6
S11326F8E4FBE4FBE4FBE4FBE4FBE4FBE4FBE4FBD6
S1132708FFFFE4FBE4FBE4FBE4FBE4FBE4FBE4FBA6
S1132718E4FBE4FBE4FBE4FBE4FBE4FBE4FBE4FBB5
S1132728E4FBE4FBE4FBE4FBE4FBE4FBE4FBE4FBA5
S1132738E4FBE4FBE4FBE4FBE4FBE4FBE4FBFFFF76
S1132748E4FBE4FBE4FBE4FBE4FBE4FBE4FBE4FB85
S1132758E4FBE4FBE4FBE4FBE4FBE4FBE4FBE4FB75
S1132768E4FBE4FBE4FBE4FBE4FBE4FBE4FBE4FB65
S1132778E4FBE4FBE4FBFFFFFFFFE4FBE4FBE4FB17
S1132788E4FBE4FBE4FBE4FBE4FBE4FBE4FBE4FB45
S1132798E4FBE4FBE4FBE4FBE4FBE4FBE4FBE4FB35
S11327A8E4FBE4FBE4FBE4FBE4FBE4FBE4FBE4FB25
S11327B8E4FBE4FBFFFFE4FBE4FBE4FBE4FBE4FBF6
S11327C8E4FBE4FBE4FBE4FBE4FBE4FBE4FBE4FB05
S11327D8E4FBE4FBE4FBE4FBE4FBE4FBE4FBE4FBF5
S11327E8E4FBE4FBE4FBE4FBE4FBE4FBE4FBE4FBE5
S11327F8E4FBFFFFE4FBE4FBE4FBE4FBE4FBE4FBB6
S1132808E4FBE4FBE4FBE4FBE4FBE4FBE4FBE4FBC4
S1132818E4FBE4FBE4FBE4FBE4FBE4FBE4FBE4FBB4
S1132828E4FBE4FBE4FBE4FBE4FBFFFFFFFFE4FB66
S1132838E4FBE4FBE4FBE4FBE4FBE4FBE4FBE4FB94
S1132848E4FBE4FBE4FBE4FBE4FBE4FBE4FBE4FB84
S1132858E4FBE4FBE4FBE4FBE4FBE4FBE4FBE4FB74
S1132868E4FBE4FBE4FBE4FBFFFFE4FBE4FBE4FB45
S1132878E4FBE4FBE4FBE4FBE4FBE4FBE4FBE4FB54
S1132888E4FBE4FBE4FBE4FBE4FBE4FBE4FBE4FB44
S1132898E4FBE4FBE4FBE4FBE4FBE4FBE4FBE4FB34
S11328A8E4FBE4FBE4FBFFFFE4FBE4FBE4FBE4FB05
S11328B8E4FBE4FBE4FBE4FBE4FBE4FBE4FBE4FB14
S11328C8E4FBE4FBE4FBE4FBE4FBE4FBE4FBE4FB04
S11328D8E4FBE4FBE4FBE4FBE4FBE4FBE4FBFFFFD5
S11328E8FFFFE4FBE4FBE4FBE4FBE4FBE4FBE4FBC5
S11328F8E4FBE4FBE4FBE4FBE4FBE4FBE4FBE4FBD4
S1132908E4FBE4FBE4FBE4FBE4FBE4FBE4FBE4FBC3
S1132918E4FBE4FBE4FBE4FBE4FBE4FBFFFFE4FB94
S1132928E4FBE4FBE4FBE4FBE4FBE4FBE4FBE4FBA3
S1132938E4FBE4FBE4FBE4FBE4FBE4FBE4FBE4FB93
S1132948E4FBE4FBE4FBE4FBE4FBE4FBE4FBE4FB83
S1132958E4FBE4FBE4FBE4FBE4FBFFFFE4FBE4FB54
S1132968E4FBE4FBE4FBE4FBE4FBE4FBE4FBE4FB63
S1132978E4FBE4FBE4FBE4FBE4FBE4FBE4FBE4FB53
S1132988E4FBE4FBE4FBE4FBE4FBE4FBE4FBE4FB43
S1132998E4FBFFFFFFFFE4FBE4FBE4FBE4FBE4FBF5
S11329A8E4FBE4FBE4FBE4FBE4FBE4FBE4FBE4FB23
S11329B8E4FBE4FBE4FBE4FBE4FBE4FBE4FBE4FB13
S11329C8E4FBE4FBE4FBE4FBE4FBE4FBE4FBE4FB03
S11329D8FFFFE4FBE4FBE4FBE4FBE4FBE4FBE4FBD4
S11329E8E4FBE4FBE4FBE4FBE4FBE4FBE4FBE4FBE3
S11329F8E4FBE4FBE4FBE4FBE4FBE4FBE4FBE4FBD3
S1132A08E4FBE4FBE4FBE4FBE4FBE4FBE4FBFFFFA3
S1132A18E4FBE4FBE4FBE4FBE4FBE4FBE4FBE4FBB2
S1132A28E4FBE4FBE4FBE4FBE4FBE4FBE4FBE4FBA2
S1132A38E4FBE4FBE4FBE4FBE4FBE4FBE4FBE4FB92
S1132A48E4FBE4FBE4FBFFFFFFFFE4FBE4FBE4FB44
S1132A58E4FBE4FBE4FBE4FBE4FBE4FBE4FBE4FB72
S1132A68E4FBE4FBE4FBE4FBE4FBE4FBE4FBE4FB62
S1132A78E4FBE4FBE4FBE4FBE4FBE4FBE4FBE4FB52
S1132A88E4FBE4FBFFFFE4FBE4FBE4FBE4FBE4FB23
S1132A98E4FBE4FBE4FBE4FBE4FBE4FBE4FBE4FB32
S1132AA8E4FBE4FBE4FBE4FBE4FBE4FBE4FBE4FB22
S1132AB8E4FBE4FBE4FBE4FBE4FBE4FBE4FBE4FB12
S1132AC8E4FBFFFFE4FBE4FBE4FBE4FBE4FBE4FBE3
S1132AD8E4FBE4FBE4FBE4FBE4FBE4FBE4FBE4FBF2
S1132AE8E4FBE4FBE4FBE4FBE4FBE4FBE4FBE4FBE2
S1132AF8E4FBE4FBE4FBE4FBE4FBFFFFFFFFE4FB94
S1132B08E4FBE4FBE4FBE4FBE4FBE4FBE4FBE4FBC1
S1132B18E4FBE4FBE4FBE4FBE4FBE4FBE4FBE4FBB1
S1132B28E4FBE4FBE4FBE4FBE4FBE4FBE4FBE4FBA1
S1132B38E4FBE4FBE4FBE4FBFFFFE4FBE4FBE4FB72
S1132B48E4FBE4FBE4FBE4FBE4FBE4FBE4FBE4FB81
S1132B58E4FBE4FBE4FBE4FBE4FBE4FBE4FBE4FB71
S1132B68E4FBE4FBE4FBE4FBE4FBE4FBE4FBE4FB61
S1132B78E4FBE4FBE4FBFFFFE4FBE4FBE4FBE4FB32
S1132B88E4FBE4FBE4FBE4FBE4FBE4FBE4FBE4FB41
S1132B98E4FBE4FBE4FBE4FBE4FBE4FBE4FBE4FB31
S1132BA8E4FBE4FBE4FBE4FBE4FBE4FBE4FBFFFF02
S1132BB8FFFFE4FBE4FBE4FBE4FBE4FBE4FBE4FBF2
S1132BC8E4FBE4FBE4FBE4FBE4FBE4FBE4FBE4FB01
S1132BD8E4FBE4FBE4FBE4FBE4FBE4FBE4FBE4FBF1
S1132BE8E4FBE4FBE4FBE4FBE4FBE4FBFFFFE4FBC2
S1132BF8E4FBE4FBE4FBE4FBE4FBE4FBE4FBE4FBD1
S1132C08E4FBE4FBE4FBE4FBE4FBE4FBE4FBE4FBC0
S1132C18E4FBE4FBE4FBE4FBE4FBE4FBE4FBE4FBB0
S1132C28E4FBE4FBE4FBE4FBE4FBFFFFE4FBE4FB81
S1132C38E4FBE4FBE4FBE4FBE4FBE4FBE4FBE4FB90
S1132C48E4FBE4FBE4FBE4FBE4FBE4FBE4FBE4FB80
S1132C58E4FBE4FBE4FBE4FBE4FBE4FBE4FBE4FB70
S1132C68E4FBFFFFFFFFE4FBE4FBE4FBE4FBE4FB22
S1132C78E4FBE4FBE4FBE4FBE4FBE4FBE4FBE4FB50
S1132C88E4FBE4FBE4FBE4FBE4FBE4FBE4FBE4FB40
S1132C98E4FBE4FBE4FBE4FBE4FBE4FBE4FBE4FB30
S1132CA8FFFFE4FBE4FBE4FBE4FBE4FBE4FBE4FB01
S1132CB8E4FBE4FBE4FBE4FBE4FBE4FBE4FBE4FB10
S1132CC8E4FBE4FBE4FBE4FBE4FBE4FBE4FBE4FB00
S1132CD8E4FBE4FBE4FBE4FBE4FBE4FBE4FBFFFFD1
S1132CE8E4FBE4FBE4FBE4FBE4FBE4FBE4FBE4FBE0
S1132CF8E4FBE4FBE4FBE4FBE4FBE4FBE4FBE4FBD0
S1132D08E4FBE4FBE4FBE4FBE4FBE4FBE4FBE4FBBF
S1132D18E4FBE4FBE4FBFFFFFFFFE4FBE4FBE4FB71
S1132D28E4FBE4FBE4FBE4FBE4FBE4FBE4FBE4FB9F
S1132D38E4FBE4FBE4FBE4FBE4FBE4FBE4FBE4FB8F
S1132D48E4FBE4FBE4FBE4FBE4FBE4FBE4FBE4FB7F
S1132D58E4FBE4FBFFFFE4FBE4FBE4FBE4FBE4FB50
S1132D68E4FBE4FBE4FBE4FBE4FBE4FBE4FBE4FB5F
S1132D78E4FBE4FBE4FBE4FBE4FBE4FBE4FBE4FB4F
S1132D88E4FBE4FBE4FBE4FBE4FBE4FBE4FBE4FB3F
S1132D98E4FBFFFFE4FBE4FBE4FBE4FBE4FBE4FB10
S1132DA8E4FBE4FBE4FBE4FBE4FBE4FBE4FBE4FB1F
S1132DB8E4FBE4FBE4FBE4FBE4FBE4FBE4FBE4FB0F
S1132DC8E4FBE4FBE4FBE4FBE4FBFFFFFFFFE4FBC1
S1132DD8E4FBE4FBE4FBE4FBE4FBE4FBE4FBE4FBEF
S1132DE8E4FBE4FBE4FBE4FBE4FBE4FBE4FBE4FBDF
S1132DF8E4FBE4FBE4FBE4FBE4FBE4FBE4FBE4FBCF
S1132E08E4FBE4FBE4FBE4FBFFFFE4FBE4FBE4FB9F
S1132E18E4FBE4FBE4FBE4FBE4FBE4FBE4FBE4FBAE
S1132E28E4FBE4FBE4FBE4FBE4FBE4FBE4FBE4FB9E
S1132E38E4FBE4FBE4FBE4FBE4FBE4FBE4FBE4FB8E
S1132E48E4FBE4FBE4FBFFFFE4FBE4FBE4FBE4FB5F
S1132E58E4FBE4FBE4FBE4FBE4FBE4FBE4FBE4FB6E
S1132E68E4FBE4FBE4FBE4FBE4FBE4FBE4FBE4FB5E
S1132E78E4FBE4FBE4FBE4FBE4FBE4FBE4FBFFFF2F
S1132E88FFFFE4FBE4FBE4FBE4FBE4FBE4FBE4FB1F
S1132E98E4FBE4FBE4FBE4FBE4FBE4FBE4FBE4FB2E
S1132EA8E4FBE4FBE4FBE4FBE4FBE4FBE4FBE4FB1E
S1132EB8E4FBE4FBE4FBE4FBE4FBE4FBFFFFE4FBEF
S1132EC8E4FBE4FBE4FBE4FBE4FBE4FBE4FBE4FBFE
S1132ED8E4FBE4FBE4FBE4FBE4FBE4FBE4FBE4FBEE
S1132EE8E4FBE4FBE4FBE4FBE4FBE4FBE4FBE4FBDE
S1132EF8E4FBE4FBE4FBE4FBE4FBFFFFE4FBE4FBAF
S1132F08E4FBE4FBE4FBE4FBE4FBE4FBE4FBE4FBBD
S1132F18E4FBE4FBE4FBE4FBE4FBE4FBE4FBE4FBAD
S1132F28E4FBE4FBE4FBE4FBE4FBE4FBE4FBE4FB9D
S1132F38E4FBFFFFFFFFE4FBE4FBE4FBE4FBE4FB4F
S1132F48E4FBE4FBE4FBE4FBE4FBE4FBE4FBE4FB7D
S1132F58E4FBE4FBE4FBE4FBE4FBE4FBE4FBE4FB6D
S1132F68E4FBE4FBE4FBE4FBE4FBE4FBE4FBE4FB5D
S1132F78FFFFE4FBE4FBE4FBE4FBE4FBE4FBE4FB2E
S1132F88E4FBE4FBE4FBE4FBE4FBE4FBE4FBE4FB3D
S1132F98E4FBE4FBE4FBE4FBE4FBE4FBE4FBE4FB2D
S1132FA8E4FBE4FBE4FBE4FBE4FBE4FBE4FBFFFFFE
S1132FB8E4FBE4FBE4FBE4FBE4FBE4FBE4FBE4FB0D
S1132FC8E4FBE4FBE4FBE4FBE4FBE4FBE4FBE4FBFD
S1132FD8E4FBE4FBE4FBE4FBE4FBE4FBE4FBE4FBED
S1132FE8E4FBE4FBE4FBFFFFFFFFE4FBE4FBE4FB9F
S1132FF8E4FBE4FBE4FBE4FBE4FBE4FBE4FBE4FBCD
S1133008E4FBE4FBE4FBE4FBE4FBE4FBE4FBE4FBBC
S1133018E4FBE4FBE4FBE4FBE4FBE4FBE4FBE4FBAC
S1133028E4FBE4FBFFFFE4FBE4FBE4FBE4FBE4FB7D
S1133038E4FBE4FBE4FBE4FBE4FBE4FBE4FBE4FB8C
S1133048E4FBE4FBE4FBE4FBE4FBE4FBE4FBE4FB7C
S1133058E4FBE4FBE4FBE4FBE4FBE4FBE4FBE4FB6C
S1133068E4FBFFFFE4FBE4FBE4FBE4FBE4FBE4FB3D
S1133078E4FBE4FBE4FBE4FBE4FBE4FBE4FBE4FB4C
S1133088E4FBE4FBE4FBE4FBE4FBE4FBE4FBE4FB3C
S1133098E4FBE4FBE4FBE4FBE4FBFFFFFFFFE4FBEE
S11330A8E4FBE4FBE4FBE4FBE4FBE4FBE4FBE4FB1C
S11330B8E4FBE4FBE4FBE4FBE4FBE4FBE4FBE4FB0C
S11330C8E4FBE4FBE4FBE4FBE4FBE4FBE4FBE4FBFC
S11330D8E4FBE4FBE4FBE4FBFFFFE4FBE4FBE4FBCD
S11330E8E4FBE4FBE4FBE4FBE4FBE4FBE4FBE4FBDC
S11330F8E4FBE4FBE4FBE4FBE4FBE4FBE4FBE4FBCC
S1133108E4FBE4FBE4FBE4FBE4FBE4FBE4FBE4FBBB
S1133118E4FBE4FBE4FBFFFFE4FBE4FBE4FBE4FB8C
S1133128E4FBE4FBE4FBE4FBE4FBE4FBE4FBE4FB9B
S1133138E4FBE4FBE4FBE4FBE4FBE4FBE4FBE4FB8B
S1133148E4FBE4FBE4FBE4FBE4FBE4FBE4FBFFFF5C
S1133158FFFFE4FBE4FBE4FBE4FBE4FBE4FBE4FB4C
S1133168E4FBE4FBE4FBE4FBE4FBE4FBE4FBE4FB5B
S1133178E4FBE4FBE4FBE4FBE4FBE4FBE4FBE4FB4B
S1133188E4FBE4FBE4FBE4FBE4FBE4FBFFFFE4FB1C
S1133198E4FBE4FBE4FBE4FBE4FBE4FBE4FBE4FB2B
S11331A8E4FBE4FBE4FBE4FBE4FBE4FBE4FBE4FB1B
S11331B8E4FBE4FBE4FBE4FBE4FBE4FBE4FBE4FB0B
S11331C8E4FBE4FBE4FBE4FBE4FBFFFFE4FBE4FBDC
S11331D8E4FBE4FBE4FBE4FBE4FBE4FBE4FBE4FBEB
S11331E8E4FBE4FBE4FBE4FBE4FBE4FBE4FBE4FBDB
S11331F8E4FBE4FBE4FBE4FBE4FBE4FBE4FBE4FBCB
S1133208E4FBFFFFFFFFE4FBE4FBE4FBE4FBE4FB7C
S1133218E4FBE4FBE4FBE4FBE4FBE4FBE4FBE4FBAA
S1133228E4FBE4FBE4FBE4FBE4FBE4FBE4FBE4FB9A
S1133238E4FBE4FBE4FBE4FBE4FBE4FBE4FBE4FB8A
S1133248FFFFE4FBE4FBE4FBE4FBE4FBE4FBE4FB5B
S1133258E4FBE4FBE4FBE4FBE4FBE4FBE4FBE4FB6A
S1133268E4FBE4FBE4FBE4FBE4FBE4FBE4FBE4FB5A
S1133278E4FBE4FBE4FBE4FBE4FBE4FBE4FBFFFF2B
S1133288E4FBE4FBE4FBE4FBE4FBE4FBE4FBE4FB3A
S1133298E4FBE4FBE4FBE4FBE4FBE4FBE4FBE4FB2A
S11332A8E4FBE4FBE4FBE4FBE4FBE4FBE4FBE4FB1A
S11332B8E4FBE4FBE4FBFFFFFFFFE4FBE4FBE4FBCC
S11332C8E4FBE4FBE4FBE4FBE4FBE4FBE4FBE4FBFA
S11332D8E4FBE4FBE4FBE4FBE4FBE4FBE4FBE4FBEA
S11332E8E4FBE4FBE4FBE4FBE4FBE4FBE4FBE4FBDA
S11332F8E4FBE4FBFFFFE4FBE4FBE4FBE4FBE4FBAB
S1133308E4FBE4FBE4FBE4FBE4FBE4FBE4FBE4FBB9
S1133318E4FBE4FBE4FBE4FBE4FBE4FBE4FBE4FBA9
S1133328E4FBE4FBE4FBE4FBE4FBE4FBE4FBE4FB99
S1133338E4FBFFFFE4FBE4FBE4FBE4FBE4FBE4FB6A
S1133348E4FBE4FBE4FBE4FBE4FBE4FBE4FBE4FB79
S1133358E4FBE4FBE4FBE4FBE4FBE4FBE4FBE4FB69
S1133368E4FBE4FBE4FBE4FBE4FBFFFFFFFFE4FB1B
S1133378E4FBE4FBE4FBE4FBE4FBE4FBE4FBE4FB49
S1133388E4FBE4FBE4FBE4FBE4FBE4FBE4FBE4FB39
S1133398E4FBE4FBE4FBE4FBE4FBE4FBE4FBE4FB29
S11333A8E4FBE4FBE4FBE4FBFFFFE4FBE4FBE4FBFA
S11333B8E4FBE4FBE4FBE4FBE4FBE4FBE4FBE4FB09
S11333C8E4FBE4FBE4FBE4FBE4FBE4FBE4FBE4FBF9
S11333D8E4FBE4FBE4FBE4FBE4FBE4FBE4FBE4FBE9
S11333E8E4FBE4FBE4FBFFFFE4FBE4FBE4FBE4FBBA
S11333F8E4FBE4FBE4FBE4FBE4FBE4FBE4FBE4FBC9
S1133408E4FBE4FBE4FBE4FBE4FBE4FBE4FBE4FBB8
S1133418E4FBE4FBE4FBE4FBE4FBE4FBE4FBFFFF89
S1133428FFFFFFFFFFFFFFFFFFFFFFFFFFFFFFFFA0
S1133438FFFFFFFFFFFFFFFFFFFFFFFFFFFFFFFF90
S1133448FFFFFFFFFFFFFFFFFFFFFFFFFFFFFFFF80
S1133458FFFFFFFFFFFFFFFFFFFFFFFFFFFFFFFF70
S1133468FFFFFFFFFFFFFFFFFFFFFFFFFFFFFFFF60
S1133478FFFFFFFFFFFFFFFFFFFFFFFFFFFFFFFF50
S1133488FFFFFFFFFFFFFFFFFFFFFFFFFFFFFFFF40
S1133498FFFFFFFFFFFFFFFFFFFFFFFFFFFFFFFF30
S11334A8FFFFFFFFFFFFFFFFFFFFFFFFFFFFFFFF20
S11334B8FFFFFFFFFFFFFFFFFFFFFFFFFFFFFFFF10
S11334C8FFFFFFFFFFFFFFFFFFFFFFFFFFFFFFFF00
S11334D8FFFFFFFFFFFFE4FBE4FBE4FBE4FBE4FB8B
S11334E8E4FBE4FBE4FBE4FBE4FBE4FBE4FBE4FBD8
S11334F8E4FBE4FBE4FBE4FBE4FBE4FBE4FBE4FBC8
S1133508E4FBE4FBE4FBE4FBE4FBE4FBE4FBE4FBB7
S1133518FFFFE4FBE4FBE4FBE4FBE4FBE4FBE4FB88
S1133528E4FBE4FBE4FBE4FBE4FBE4FBE4FBE4FB97
S1133538E4FBE4FBE4FBE4FBE4FBE4FBE4FBE4FB87
S1133548E4FBE4FBE4FBE4FBE4FBE4FBE4FBFFFF58
S1133558E4FBE4FBE4FBE4FBE4FBE4FBE4FBE4FB67
S1133568E4FBE4FBE4FBE4FBE4FBE4FBE4FBE4FB57
S1133578E4FBE4FBE4FBE4FBE4FBE4FBE4FBE4FB47
S1133588E4FBE4FBE4FBFFFFFFFFE4FBE4FBE4FBF9
S1133598E4FBE4FBE4FBE4FBE4FBE4FBE4FBE4FB27
S11335A8E4FBE4FBE4FBE4FBE4FBE4FBE4FBE4FB17
S11335B8E4FBE4FBE4FBE4FBE4FBE4FBE4FBE4FB07
S11335C8E4FBE4FBFFFFE4FBE4FBE4FBE4FBE4FBD8
S11335D8E4FBE4FBE4FBE4FBE4FBE4FBE4FBE4FBE7
S11335E8E4FBE4FBE4FBE4FBE4FBE4FBE4FBE4FBD7
S11335F8E4FBE4FBE4FBE4FBE4FBE4FBE4FBE4FBC7
S1133608E4FBFFFFE4FBE4FBE4FBE4FBE4FBE4FB97
S1133618E4FBE4FBE4FBE4FBE4FBE4FBE4FBE4FBA6
S1133628E4FBE4FBE4FBE4FBE4FBE4FBE4FBE4FB96
S1133638E4FBE4FBE4FBE4FBE4FBFFFFFFFFE4FB48
S1133648E4FBE4FBE4FBE4FBE4FBE4FBE4FBE4FB76
S1133658E4FBE4FBE4FBE4FBE4FBE4FBE4FBE4FB66
S1133668E4FBE4FBE4FBE4FBE4FBE4FBE4FBE4FB56
S1133678E4FBE4FBE4FBE4FBFFFFE4FBE4FBE4FB27
S1133688E4FBE4FBE4FBE4FBE4FBE4FBE4FBE4FB36
S1133698E4FBE4FBE4FBE4FBE4FBE4FBE4FBE4FB26
S11336A8E4FBE4FBE4FBE4FBE4FBE4FBE4FBE4FB16
S11336B8E4FBE4FBE4FBFFFFE4FBE4FBE4FBE4FBE7
S11336C8E4FBE4FBE4FBE4FBE4FBE4FBE4FBE4FBF6
S11336D8E4FBE4FBE4FBE4FBE4FBE4FBE4FBE4FBE6
S11336E8E4FBE4FBE4FBE4FBE4FBE4FBE4FBFFFFB7
S11336F8FFFFE4FBE4FBE4FBE4FBE4FBE4FBE4FBA7
S1133708E4FBE4FBE4FBE4FBE4FBE4FBE4FBE4FBB5
S1133718E4FBE4FBE4FBE4FBE4FBE4FBE4FBE4FBA5
S1133728E4FBE4FBE4FBE4FBE4FBE4FBFFFFE4FB76
S1133738E4FBE4FBE4FBE4FBE4FBE4FBE4FBE4FB85
S1133748E4FBE4FBE4FBE4FBE4FBE4FBE4FBE4FB75
S1133758E4FBE4FBE4FBE4FBE4FBE4FBE4FBE4FB65
S1133768E4FBE4FBE4FBE4FBE4FBFFFFE4FBE4FB36
S1133778E4FBE4FBE4FBE4FBE4FBE4FBE4FBE4FB45
S1133788E4FBE4FBE4FBE4FBE4FBE4FBE4FBE4FB35
S1133798E4FBE4FBE4FBE4FBE4FBE4FBE4FBE4FB25
S11337A8E4FBFFFFFFFFE4FBE4FBE4FBE4FBE4FBD7
S11337B8E4FBE4FBE4FBE4FBE4FBE4FBE4FBE4FB05
S11337C8E4FBE4FBE4FBE4FBE4FBE4FBE4FBE4FBF5
S11337D8E4FBE4FBE4FBE4FBE4FBE4FBE4FBE4FBE5
S11337E8FFFFE4FBE4FBE4FBE4FBE4FBE4FBE4FBB6
S11337F8E4FBE4FBE4FBE4FBE4FBE4FBE4FBE4FBC5
S1133808E4FBE4FBE4FBE4FBE4FBE4FBE4FBE4FBB4
S1133818E4FBE4FBE4FBE4FBE4FBE4FBE4FBFFFF85
S1133828E4FBE4FBE4FBE4FBE4FBE4FBE4FBE4FB94
S1133838E4FBE4FBE4FBE4FBE4FBE4FBE4FBE4FB84
S1133848E4FBE4FBE4FBE4FBE4FBE4FBE4FBE4FB74
S1133858E4FBE4FBE4FBFFFFFFFFE4FBE4FBE4FB26
S1133868E4FBE4FBE4FBE4FBE4FBE4FBE4FBE4FB54
S1133878E4FBE4FBE4FBE4FBE4FBE4FBE4FBE4FB44
S1133888E4FBE4FBE4FBE4FBE4FBE4FBE4FBE4FB34
S1133898E4FBE4FBFFFFE4FBE4FBE4FBE4FBE4FB05
S11338A8E4FBE4FBE4FBE4FBE4FBE4FBE4FBE4FB14
S11338B8E4FBE4FBE4FBE4FBE4FBE4FBE4FBE4FB04
S11338C8E4FBE4FBE4FBE4FBE4FBE4FBE4FBE4FBF4
S11338D8E4FBFFFFE4FBE4FBE4FBE4FBE4FBE4FBC5
S11338E8E4FBE4FBE4FBE4FBE4FBE4FBE4FBE4FBD4
S11338F8E4FBE4FBE4FBE4FBE4FBE4FBE4FBE4FBC4
S1133908E4FBE4FBE4FBE4FBE4FBFFFFFFFFE4FB75
S1133918E4FBE4FBE4FBE4FBE4FBE4FBE4FBE4FBA3
S1133928E4FBE4FBE4FBE4FBE4FBE4FBE4FBE4FB93
S1133938E4FBE4FBE4FBE4FBE4FBE4FBE4FBE4FB83
S1133948E4FBE4FBE4FBE4FBFFFFE4FBE4FBE4FB54
S1133958E4FBE4FBE4FBE4FBE4FBE4FBE4FBE4FB63
S1133968E4FBE4FBE4FBE4FBE4FBE4FBE4FBE4FB53
S1133978E4FBE4FBE4FBE4FBE4FBE4FBE4FBE4FB43
S1133988E4FBE4FBE4FBFFFFE4FBE4FBE4FBE4FB14
S1133998E4FBE4FBE4FBE4FBE4FBE4FBE4FBE4FB23
S11339A8E4FBE4FBE4FBE4FBE4FBE4FBE4FBE4FB13
S11339B8E4FBE4FBE4FBE4FBE4FBE4FBE4FBFFFFE4
S11339C8FFFFE4FBE4FBE4FBE4FBE4FBE4FBE4FBD4
S11339D8E4FBE4FBE4FBE4FBE4FBE4FBE4FBE4FBE3
S11339E8E4FBE4FBE4FBE4FBE4FBE4FBE4FBE4FBD3
S11339F8E4FBE4FBE4FBE4FBE4FBE4FBFFFFE4FBA4
S1133A08E4FBE4FBE4FBE4FBE4FBE4FBE4FBE4FBB2
S1133A18E4FBE4FBE4FBE4FBE4FBE4FBE4FBE4FBA2
S1133A28E4FBE4FBE4FBE4FBE4FBE4FBE4FBE4FB92
S1133A38E4FBE4FBE4FBE4FBE4FBFFFFE4FBE4FB63
S1133A48E4FBE4FBE4FBE4FBE4FBE4FBE4FBE4FB72
S1133A58E4FBE4FBE4FBE4FBE4FBE4FBE4FBE4FB62
S1133A68E4FBE4FBE4FBE4FBE4FBE4FBE4FBE4FB52
S1133A78E4FBFFFFFFFFE4FBE4FBE4FBE4FBE4FB04
S1133A88E4FBE4FBE4FBE4FBE4FBE4FBE4FBE4FB32
S1133A98E4FBE4FBE4FBE4FBE4FBE4FBE4FBE4FB22
S1133AA8E4FBE4FBE4FBE4FBE4FBE4FBE4FBE4FB12
S1133AB8FFFFE4FBE4FBE4FBE4FBE4FBE4FBE4FBE3
S1133AC8E4FBE4FBE4FBE4FBE4FBE4FBE4FBE4FBF2
S1133AD8E4FBE4FBE4FBE4FBE4FBE4FBE4FBE4FBE2
S1133AE8E4FBE4FBE4FBE4FBE4FBE4FBE4FBFFFFB3
S1133AF8E4FBE4FBE4FBE4FBE4FBE4FBE4FBE4FBC2
S1133B08E4FBE4FBE4FBE4FBE4FBE4FBE4FBE4FBB1
S1133B18E4FBE4FBE4FBE4FBE4FBE4FBE4FBE4FBA1
S1133B28E4FBE4FBE4FBFFFFFFFFE4FBE4FBE4FB53
S1133B38E4FBE4FBE4FBE4FBE4FBE4FBE4FBE4FB81
S1133B48E4FBE4FBE4FBE4FBE4FBE4FBE4FBE4FB71
S1133B58E4FBE4FBE4FBE4FBE4FBE4FBE4FBE4FB61
S1133B68E4FBE4FBFFFFE4FBE4FBE4FBE4FBE4FB32
S1133B78E4FBE4FBE4FBE4FBE4FBE4FBE4FBE4FB41
S1133B88E4FBE4FBE4FBE4FBE4FBE4FBE4FBE4FB31
S1133B98E4FBE4FBE4FBE4FBE4FBE4FBE4FBE4FB21
S1133BA8E4FBFFFFE4FBE4FBE4FBE4FBE4FBE4FBF2
S1133BB8E4FBE4FBE4FBE4FBE4FBE4FBE4FBE4FB01
S1133BC8E4FBE4FBE4FBE4FBE4FBE4FBE4FBE4FBF1
S1133BD8E4FBE4FBE4FBE4FBE4FBFFFFFFFFE4FBA3
S1133BE8E4FBE4FBE4FBE4FBE4FBE4FBE4FBE4FBD1
S1133BF8E4FBE4FBE4FBE4FBE4FBE4FBE4FBE4FBC1
S1133C08E4FBE4FBE4FBE4FBE4FBE4FBE4FBE4FBB0
S1133C18E4FBE4FBE4FBE4FBFFFFE4FBE4FBE4FB81
S1133C28E4FBE4FBE4FBE4FBE4FBE4FBE4FBE4FB90
S1133C38E4FBE4FBE4FBE4FBE4FBE4FBE4FBE4FB80
S1133C48E4FBE4FBE4FBE4FBE4FBE4FBE4FBE4FB70
S1133C58E4FBE4FBE4FBFFFFE4FBE4FBE4FBE4FB41
S1133C68E4FBE4FBE4FBE4FBE4FBE4FBE4FBE4FB50
S1133C78E4FBE4FBE4FBE4FBE4FBE4FBE4FBE4FB40
S1133C88E4FBE4FBE4FBE4FBE4FBE4FBE4FBFFFF11
S1133C98FFFFE4FBE4FBE4FBE4FBE4FBE4FBE4FB01
S1133CA8E4FBE4FBE4FBE4FBE4FBE4FBE4FBE4FB10
S1133CB8E4FBE4FBE4FBE4FBE4FBE4FBE4FBE4FB00
S1133CC8E4FBE4FBE4FBE4FBE4FBE4FBFFFFE4FBD1
S1133CD8E4FBE4FBE4FBE4FBE4FBE4FBE4FBE4FBE0
S1133CE8E4FBE4FBE4FBE4FBE4FBE4FBE4FBE4FBD0
S1133CF8E4FBE4FBE4FBE4FBE4FBE4FBE4FBE4FBC0
S1133D08E4FBE4FBE4FBE4FBE4FBFFFFE4FBE4FB90
S1133D18E4FBE4FBE4FBE4FBE4FBE4FBE4FBE4FB9F
S1133D28E4FBE4FBE4FBE4FBE4FBE4FBE4FBE4FB8F
S1133D38E4FBE4FBE4FBE4FBE4FBE4FBE4FBE4FB7F
S1133D48E4FBFFFFFFFFE4FBE4FBE4FBE4FBE4FB31
S1133D58E4FBE4FBE4FBE4FBE4FBE4FBE4FBE4FB5F
S1133D68E4FBE4FBE4FBE4FBE4FBE4FBE4FBE4FB4F
S1133D78E4FBE4FBE4FBE4FBE4FBE4FBE4FBE4FB3F
S1133D88FFFFE4FBE4FBE4FBE4FBE4FBE4FBE4FB10
S1133D98E4FBE4FBE4FBE4FBE4FBE4FBE4FBE4FB1F
S1133DA8E4FBE4FBE4FBE4FBE4FBE4FBE4FBE4FB0F
S1133DB8E4FBE4FBE4FBE4FBE4FBE4FBE4FBFFFFE0
S1133DC8E4FBE4FBE4FBE4FBE4FBE4FBE4FBE4FBEF
S1133DD8E4FBE4FBE4FBE4FBE4FBE4FBE4FBE4FBDF
S1133DE8E4FBE4FBE4FBE4FBE4FBE4FBE4FBE4FBCF
S1133DF8E4FBE4FBE4FBFFFFFFFFE4FBE4FBE4FB81
S1133E08E4FBE4FBE4FBE4FBE4FBE4FBE4FBE4FBAE
S1133E18E4FBE4FBE4FBE4FBE4FBE4FBE4FBE4FB9E
S1133E28E4FBE4FBE4FBE4FBE4FBE4FBE4FBE4FB8E
S1133E38E4FBE4FBFFFFE4FBE4FBE4FBE4FBE4FB5F
S1133E48E4FBE4FBE4FBE4FBE4FBE4FBE4FBE4FB6E
S1133E58E4FBE4FBE4FBE4FBE4FBE4FBE4FBE4FB5E
S1133E68E4FBE4FBE4FBE4FBE4FBE4FBE4FBE4FB4E
S1133E78E4FBFFFFE4FBE4FBE4FBE4FBE4FBE4FB1F
S1133E88E4FBE4FBE4FBE4FBE4FBE4FBE4FBE4FB2E
S1133E98E4FBE4FBE4FBE4FBE4FBE4FBE4FBE4FB1E
S1133EA8E4FBE4FBE4FBE4FBE4FBFFFFFFFFE4FBD0
S1133EB8E4FBE4FBE4FBE4FBE4FBE4FBE4FBE4FBFE
S1133EC8E4FBE4FBE4FBE4FBE4FBE4FBE4FBE4FBEE
S1133ED8E4FBE4FBE4FBE4FBE4FBE4FBE4FBE4FBDE
S1133EE8E4FBE4FBE4FBE4FBFFFFE4FBE4FBE4FBAF
S1133EF8E4FBE4FBE4FBE4FBE4FBE4FBE4FBE4FBBE
S1133F08E4FBE4FBE4FBE4FBE4FBE4FBE4FBE4FBAD
S1133F18E4FBE4FBE4FBE4FBE4FBE4FBE4FBE4FB9D
S1133F28E4FBE4FBE4FBFFFFE4FBE4FBE4FBE4FB6E
S1133F38E4FBE4FBE4FBE4FBE4FBE4FBE4FBE4FB7D
S1133F48E4FBE4FBE4FBE4FBE4FBE4FBE4FBE4FB6D
S1133F58E4FBE4FBE4FBE4FBE4FBE4FBE4FBFFFF3E
S1133F68FFFFE4FBE4FBE4FBE4FBE4FBE4FBE4FB2E
S1133F78E4FBE4FBE4FBE4FBE4FBE4FBE4FBE4FB3D
S1133F88E4FBE4FBE4FBE4FBE4FBE4FBE4FBE4FB2D
S1133F98E4FBE4FBE4FBE4FBE4FBE4FBFFFFE4FBFE
S1133FA8E4FBE4FBE4FBE4FBE4FBE4FBE4FBE4FB0D
S1133FB8E4FBE4FBE4FBE4FBE4FBE4FBE4FBE4FBFD
S1133FC8E4FBE4FBE4FBE4FBE4FBE4FBE4FBE4FBED
S1133FD8E4FBE4FBE4FBE4FBE4FBFFFFE4FBE4FBBE
S1133FE8E4FBE4FBE4FBE4FBE4FBE4FBE4FBE4FBCD
S1133FF8E4FBE4FBE4FBE4FBE4FBE4FBE4FBE4FBBD
S1134008E4FBE4FBE4FBE4FBE4FBE4FBE4FBE4FBAC
S1134018E4FBFFFFFFFFE4FBE4FBE4FBE4FBE4FB5E
S1134028E4FBE4FBE4FBE4FBE4FBE4FBE4FBE4FB8C
S1134038E4FBE4FBE4FBE4FBE4FBE4FBE4FBE4FB7C
S1134048E4FBE4FBE4FBE4FBE4FBE4FBE4FBE4FB6C
S1134058FFFFE4FBE4FBE4FBE4FBE4FBE4FBE4FB3D
S1134068E4FBE4FBE4FBE4FBE4FBE4FBE4FBE4FB4C
S1134078E4FBE4FBE4FBE4FBE4FBE4FBE4FBE4FB3C
S1134088E4FBE4FBE4FBE4FBE4FBE4FBE4FBFFFF0D
S1134098E4FBE4FBE4FBE4FBE4FBE4FBE4FBE4FB1C
S11340A8E4FBE4FBE4FBE4FBE4FBE4FBE4FBE4FB0C
S11340B8E4FBE4FBE4FBE4FBE4FBE4FBE4FBE4FBFC
S11340C8E4FBE4FBE4FBFFFFFFFFE4FBE4FBE4FBAE
S11340D8E4FBE4FBE4FBE4FBE4FBE4FBE4FBE4FBDC
S11340E8E4FBE4FBE4FBE4FBE4FBE4FBE4FBE4FBCC
S11340F8E4FBE4FBE4FBE4FBE4FBE4FBE4FBE4FBBC
S1134108E4FBE4FBFFFFE4FBE4FBE4FBE4FBE4FB8C
S1134118E4FBE4FBE4FBE4FBE4FBE4FBE4FBE4FB9B
S1134128E4FBE4FBE4FBE4FBE4FBE4FBE4FBE4FB8B
S1134138E4FBE4FBE4FBE4FBE4FBE4FBE4FBE4FB7B
S1134148E4FBFFFFE4FBE4FBE4FBE4FBE4FBE4FB4C
S1134158E4FBE4FBE4FBE4FBE4FBE4FBE4FBE4FB5B
S1134168E4FBE4FBE4FBE4FBE4FBE4FBE4FBE4FB4B
S1134178E4FBE4FBE4FBE4FBE4FBFFFFFFFFE4FBFD
S1134188E4FBE4FBE4FBE4FBE4FBE4FBE4FBE4FB2B
S1134198E4FBE4FBE4FBE4FBE4FBE4FBE4FBE4FB1B
S11341A8E4FBE4FBE4FBE4FBE4FBE4FBE4FBE4FB0B
S11341B8E4FBE4FBE4FBE4FBFFFFE4FBE4FBE4FBDC
S11341C8E4FBE4FBE4FBE4FBE4FBE4FBE4FBE4FBEB
S11341D8E4FBE4FBE4FBE4FBE4FBE4FBE4FBE4FBDB
S11341E8E4FBE4FBE4FBE4FBE4FBE4FBE4FBE4FBCB
S11341F8E4FBE4FBE4FBFFFFE4FBE4FBE4FBE4FB9C
S1134208E4FBE4FBE4FBE4FBE4FBE4FBE4FBE4FBAA
S1134218E4FBE4FBE4FBE4FBE4FBE4FBE4FBE4FB9A
S1134228E4FBE4FBE4FBE4FBE4FBE4FBE4FBFFFF6B
S1134238FFFFE4FBE4FBE4FBE4FBE4FBE4FBE4FB5B
S1134248E4FBE4FBE4FBE4FBE4FBE4FBE4FBE4FB6A
S1134258E4FBE4FBE4FBE4FBE4FBE4FBE4FBE4FB5A
S1134268E4FBE4FBE4FBE4FBE4FBE4FBFFFFE4FB2B
S1134278E4FBE4FBE4FBE4FBE4FBE4FBE4FBE4FB3A
S1134288E4FBE4FBE4FBE4FBE4FBE4FBE4FBE4FB2A
S1134298E4FBE4FBE4FBE4FBE4FBE4FBE4FBE4FB1A
S11342A8E4FBE4FBE4FBE4FBE4FBFFFFE4FBE4FBEB
S11342B8E4FBE4FBE4FBE4FBE4FBE4FBE4FBE4FBFA
S11342C8E4FBE4FBE4FBE4FBE4FBE4FBE4FBE4FBEA
S11342D8E4FBE4FBE4FBE4FBE4FBE4FBE4FBE4FBDA
S11342E8E4FBFFFFFFFFE4FBE4FBE4FBE4FBE4FB8C
S11342F8E4FBE4FBE4FBE4FBE4FBE4FBE4FBE4FBBA
S1134308E4FBE4FBE4FBE4FBE4FBE4FBE4FBE4FBA9
S1134318E4FBE4FBE4FBE4FBE4FBE4FBE4FBE4FB99
S1134328FFFFE4FBE4FBE4FBE4FBE4FBE4FBE4FB6A
S1134338E4FBE4FBE4FBE4FBE4FBE4FBE4FBE4FB79
S1134348E4FBE4FBE4FBE4FBE4FBE4FBE4FBE4FB69
S1134358E4FBE4FBE4FBE4FBE4FBE4FBE4FBFFFF3A
S1134368E4FBE4FBE4FBE4FBE4FBE4FBE4FBE4FB49
S1134378E4FBE4FBE4FBE4FBE4FBE4FBE4FBE4FB39
S1134388E4FBE4FBE4FBE4FBE4FBE4FBE4FBE4FB29
S1134398E4FBE4FBE4FBFFFFFFFFE4FBE4FBE4FBDB
S11343A8E4FBE4FBE4FBE4FBE4FBE4FBE4FBE4FB09
S11343B8E4FBE4FBE4FBE4FBE4FBE4FBE4FBE4FBF9
S11343C8E4FBE4FBE4FBE4FBE4FBE4FBE4FBE4FBE9
S11343D8E4FBE4FBFFFFE4FBE4FBE4FBE4FBE4FBBA
S11343E8E4FBE4FBE4FBE4FBE4FBE4FBE4FBE4FBC9
S11343F8E4FBE4FBE4FBE4FBE4FBE4FBE4FBE4FBB9
S1134408E4FBE4FBE4FBE4FBE4FBE4FBE4FBE4FBA8
S1134418E4FBFFFFE4FBE4FBE4FBE4FBE4FBE4FB79
S1134428E4FBE4FBE4FBE4FBE4FBE4FBE4FBE4FB88
S1134438E4FBE4FBE4FBE4FBE4FBE4FBE4FBE4FB78
S1134448E4FBE4FBE4FBE4FBE4FBFFFFFFFFE4FB2A
S1134458E4FBE4FBE4FBE4FBE4FBE4FBE4FBE4FB58
S1134468E4FBE4FBE4FBE4FBE4FBE4FBE4FBE4FB48
S1134478E4FBE4FBE4FBE4FBE4FBE4FBE4FBE4FB38
S1134488E4FBE4FBE4FBE4FBFFFFE4FBE4FBE4FB09
S1134498E4FBE4FBE4FBE4FBE4FBE4FBE4FBE4FB18
S11344A8E4FBE4FBE4FBE4FBE4FBE4FBE4FBE4FB08
S11344B8E4FBE4FBE4FBE4FBE4FBE4FBE4FBE4FBF8
S11344C8E4FBE4FBE4FBFFFFE4FBE4FBE4FBE4FBC9
S11344D8E4FBE4FBE4FBE4FBE4FBE4FBE4FBE4FBD8
S11344E8E4FBE4FBE4FBE4FBE4FBE4FBE4FBE4FBC8
S11344F8E4FBE4FBE4FBE4FBE4FBE4FBE4FBFFFF99
S1134508FFFFE4FBE4FBE4FBE4FBE4FBE4FBE4FB88
S1134518E4FBE4FBE4FBE4FBE4FBE4FBE4FBE4FB97
S1134528E4FBE4FBE4FBE4FBE4FBE4FBE4FBE4FB87
S1134538E4FBE4FBE4FBE4FBE4FBE4FBFFFFE4FB58
S1134548E4FBE4FBE4FBE4FBE4FBE4FBE4FBE4FB67
S1134558E4FBE4FBE4FBE4FBE4FBE4FBE4FBE4FB57
S1134568E4FBE4FBE4FBE4FBE4FBE4FBE4FBE4FB47
S1134578E4FBE4FBE4FBE4FBE4FBFFFFE4FBE4FB18
S1134588E4FBE4FBE4FBE4FBE4FBE4FBE4FBE4FB27
S1134598E4FBE4FBE4FBE4FBE4FBE4FBE4FBE4FB17
S11345A8E4FBE4FBE4FBE4FBE4FBE4FBE4FBE4FB07
S11345B8E4FBFFFFFFFFE4FBE4FBE4FBE4FBE4FBB9
S11345C8E4FBE4FBE4FBE4FBE4FBE4FBE4FBE4FBE7
S11345D8E4FBE4FBE4FBE4FBE4FBE4FBE4FBE4FBD7
S11345E8E4FBE4FBE4FBE4FBE4FBE4FBE4FBE4FBC7
S11345F8FFFFE4FBE4FBE4FBE4FBE4FBE4FBE4FB98
S1134608E4FBE4FBE4FBE4FBE4FBE4FBE4FBE4FBA6
S1134618E4FBE4FBE4FBE4FBE4FBE4FBE4FBE4FB96
S1134628E4FBE4FBE4FBE4FBE4FBE4FBE4FBFFFF67
S1134638E4FBE4FBE4FBE4FBE4FBE4FBE4FBE4FB76
S1134648E4FBE4FBE4FBE4FBE4FBE4FBE4FBE4FB66
S1134658E4FBE4FBE4FBE4FBE4FBE4FBE4FBE4FB56
S1134668E4FBE4FBE4FBFFFFFFFFE4FBE4FBE4FB08
S1134678E4FBE4FBE4FBE4FBE4FBE4FBE4FBE4FB36
S1134688E4FBE4FBE4FBE4FBE4FBE4FBE4FBE4FB26
S1134698E4FBE4FBE4FBE4FBE4FBE4FBE4FBE4FB16
S11346A8E4FBE4FBFFFFE4FBE4FBE4FBE4FBE4FBE7
S11346B8E4FBE4FBE4FBE4FBE4FBE4FBE4FBE4FBF6
S11346C8E4FBE4FBE4FBE4FBE4FBE4FBE4FBE4FBE6
S11346D8E4FBE4FBE4FBE4FBE4FBE4FBE4FBE4FBD6
S11346E8E4FBFFFFE4FBE4FBE4FBE4FBE4FBE4FBA7
S11346F8E4FBE4FBE4FBE4FBE4FBE4FBE4FBE4FBB6
S1134708E4FBE4FBE4FBE4FBE4FBE4FBE4FBE4FBA5
S1134718E4FBE4FBE4FBE4FBE4FBFFFFFFFFE4FB57
S1134728E4FBE4FBE4FBE4FBE4FBE4FBE4FBE4FB85
S1134738E4FBE4FBE4FBE4FBE4FBE4FBE4FBE4FB75
S1134748E4FBE4FBE4FBE4FBE4FBE4FBE4FBE4FB65
S1134758E4FBE4FBE4FBE4FBFFFFE4FBE4FBE4FB36
S1134768E4FBE4FBE4FBE4FBE4FBE4FBE4FBE4FB45
S1134778E4FBE4FBE4FBE4FBE4FBE4FBE4FBE4FB35
S1134788E4FBE4FBE4FBE4FBE4FBE4FBE4FBE4FB25
S1134798E4FBE4FBE4FBFFFFE4FBE4FBE4FBE4FBF6
S11347A8E4FBE4FBE4FBE4FBE4FBE4FBE4FBE4FB05
S11347B8E4FBE4FBE4FBE4FBE4FBE4FBE4FBE4FBF5
S11347C8E4FBE4FBE4FBE4FBE4FBE4FBE4FBFFFFC6
S11347D8FFFFE4FBE4FBE4FBE4FBE4FBE4FBE4FBB6
S11347E8E4FBE4FBE4FBE4FBE4FBE4FBE4FBE4FBC5
S11347F8E4FBE4FBE4FBE4FBE4FBE4FBE4FBE4FBB5
S1134808E4FBE4FBE4FBE4FBE4FBE4FBFFFFE4FB85
S1134818E4FBE4FBE4FBE4FBE4FBE4FBE4FBE4FB94
S1134828E4FBE4FBE4FBE4FBE4FBE4FBE4FBE4FB84
S1134838E4FBE4FBE4FBE4FBE4FBE4FBE4FBE4FB74
S1134848E4FBE4FBE4FBE4FBE4FBFFFFE4FBE4FB45
S1134858E4FBE4FBE4FBE4FBE4FBE4FBE4FBE4FB54
S1134868E4FBE4FBE4FBE4FBE4FBE4FBE4FBE4FB44
S1134878E4FBE4FBE4FBE4FBE4FBE4FBE4FBE4FB34
S1134888E4FBFFFFFFFFFFFFFFFFFFFFFFFFFFFF4B
S1134898FFFFFFFFFFFFFFFFFFFFFFFFFFFFFFFF1C
S11348A8FFFFFFFFFFFFFFFFFFFFFFFFFFFFFFFF0C
S11348B8FFFFFFFFFFFFFFFFFFFFFFFFFFFFFFFFFC
S11348C8FFFFFFFFFFFFFFFFFFFFFFFFFFFFFFFFEC
S11348D8FFFFFFFFFFFFFFFFFFFFFFFFFFFFFFFFDC
S11348E8FFFFFFFFFFFFFFFFFFFFFFFFFFFFFFFFCC
S11348F8FFFFFFFFFFFFFFFFFFFFFFFFFFFFFFFFBC
S1134908FFFFFFFFFFFFFFFFFFFFFFFFFFFFFFFFAB
S1134918FFFFFFFFFFFFFFFFFFFFFFFFFFFFFFFF9B
S1134928FFFFFFFFFFFFFFFFFFFFFFFFFFFFFFFF8B
S11349380000000000000000E4FBE4FBE4FBE4FBEF
S1134948E4FBE4FBE4FBE4FBE4FBE4FBE4FB000042
S11349580000000000000000000000000000E4FB6C
S1134968E4FBE4FBE4FBE4FBE4FBE4FBE4FBE4FB43
S1134978E4FBE4FBE4FBE4FBE4FBE4FBE4FBE4FB33
S1134988E4FBE4FBE4FB000000001D051D051D0518
S11349981D051D051D051D051D0500000000E4FB82
S11349A8E4FBE4FBE4FBE4FBE4FBE4FBE4FBE4FB03
S11349B8E4FBE4FBE4FBE4FBE4FBE4FBE4FB0000D2
S11349C800001D051D051D051D051D051D051D05ED
S11349D81D051D051D051D051D0500000000E4FB42
S11349E8E4FBE4FBE4FBE4FBE4FBE4FBE4FBE4FBC3
S11349F8E4FBE4FBE4FBE4FB00001D051D051D05C9
S1134A081D051D051D051D051D051D051D051D058A
S1134A181D051D051D051D051D050000E4FBE4FB22
S1134A28E4FBE4FBE4FBE4FBE4FBE4FBE4FBE4FB82
S1134A38E4FB00001D051D051D051D051D051D05BF
S1134A481D051D051D051D051D051D051D051D054A
S1134A581D051D051D051D050000E4FBE4FBE4FB25
S1134A68E4FBE4FBE4FBE4FBE4FBE4FB00001D05DE
S1134A781D051D051D051D051D051D051D051D051A
S1134A881D051D051D051D051D051D051D051D050A
S1134A981D051D051D050000E4FBE4FBE4FBE4FB28
S1134AA8E4FBE4FBE4FB00001D051D051D051D05D5
S1134AB81D051D051D051D051D051D051D051D05DA
S1134AC81D051D051D051D051D051D051D051D05CA
S1134AD81D051D050000E4FBE4FBE4FBE4FBE4FB2B
S1134AE800001D051D051D051D051D051D051D05CC
S1134AF81D051D051D051D051D051D051D051D059A
S1134B081D051D051D051D051D051D051D051D0589
S1134B181D050000E4FBE4FBE4FBE4FB00001D05C9
S1134B281D051D051D051D051D051D051D051D0569
S1134B38593A593A593A593A593A593A1D051D05B3
S1134B481D051D051D051D051D051D051D0500006B
S1134B58E4FBE4FBE4FB00001D051D051D051D0524
S1134B681D051D051D051D051D05593A593A593AD6
S1134B78593A593A593A593A593A593A1D051D0573
S1134B881D051D051D051D051D051D050000E4FB6E
S1134B98E4FB00001D051D051D051D051D051D055E
S1134BA81D05593A593A593A593A593A593A593AD2
S1134BB8593A593A593A593A593A1D051D051D05A4
S1134BC81D051D051D051D050000E4FB00001D0550
S1134BD81D051D051D051D051D051D05593A593AD7
S1134BE8593A593A593A593A593A593A593A593A21
S1134BF8593A593A593A1D051D051D051D051D0546
S1134C081D051D050000E4FB00001D051D051D050F
S1134C181D051D051D051D05593A593A593A593AB4
S1134C28593A593A593A593A593A593A593A593AE0
S1134C38593A593A1D051D051D051D051D051D0576
S1134C481D05000000001D051D051D051D051D058C
S1134C581D05593A593A593A593A593A593A593A21
S1134C68593A593A593A593A593A593A593A593AA0
S1134C78593A1D051D051D051D051D051D050000C9
S1134C8800001D051D051D051D051D051D05593AB9
S1134C98593A593A593A593A593A593A593A593A70
S1134CA8593A593A593A593A593A593A593A1D05D1
S1134CB81D051D051D051D051D05000000001D051C
S1134CC81D051D051D051D051D05593A593A593A75
S1134CD8593A593A593A593A593A593A593A593A30
S1134CE8593A593A593A593A593A1D051D051D0573
S1134CF81D051D051D05000000001D051D051D05DC
S1134D081D051D051D05593A593A593A593A593A52
S1134D18593A593A593A593A593A593A593A593AEF
S1134D28593A593A593A1D051D051D051D051D0514
S1134D381D05000000001D051D051D051D051D059B
S1134D481D05593A593A593A593A593A593A593A30
S1134D58593A593A593A593A593A593A593A593AAF
S1134D68593A1D051D051D051D051D051D050000D8
S1134D7800001D051D051D051D051D051D051D0539
S1134D88593A593A593A593A593A593A593A593A7F
S1134D98593A593A593A593A593A593A1D051D0551
S1134DA81D051D051D051D050000E4FBE4FB0000B1
S1134DB81D051D051D051D051D051D05593A593AF5
S1134DC8593A593A593A593A593A593A593A593A3F
S1134DD8593A593A593A593A1D051D051D051D05F3
S1134DE81D051D050000E4FBE4FB00001D051D0571
S1134DF81D051D051D051D051D05593A593A593A44
S1134E08593A593A593A593A593A593A593A593AFE
S1134E18593A1D051D051D051D051D051D051D0505
S1134E280000E4FBE4FBE4FB00001D051D051D0573
S1134E381D051D051D051D051D05593A593A593A03
S1134E48593A593A593A593A593A1D051D051D0511
S1134E581D051D051D051D051D050000E4FBE4FBDE
S1134E68E4FBE4FB00001D051D051D051D051D05CE
S1134E781D051D051D051D051D05593A593A593AC3
S1134E88593A1D051D051D051D051D051D051D0595
S1134E981D051D051D050000E4FBE4FBE4FBE4FB24
S1134EA8E4FB00001D051D051D051D051D051D054B
S1134EB81D051D051D051D051D051D051D051D05D6
S1134EC81D051D051D051D051D051D051D051D05C6
S1134ED80000E4FBE4FBE4FBE4FBE4FBE4FBE4FBAD
S1134EE800001D051D051D051D051D051D051D05C8
S1134EF81D051D051D051D051D051D051D051D0596
S1134F081D051D051D051D051D050000E4FBE4FB2D
S1134F18E4FBE4FBE4FBE4FBE4FBE4FBE4FB00006C
S1134F281D051D051D051D051D051D051D051D0565
S1134F381D051D051D051D051D051D051D051D0555
S1134F481D051D050000E4FBE4FBE4FBE4FBE4FBB6
S1134F58E4FBE4FBE4FBE4FBE4FBE4FB00001D05E9
S1134F681D051D051D051D051D051D051D051D0525
S1134F781D051D051D051D051D051D051D05000037
S1134F88E4FBE4FBE4FBE4FBE4FBE4FBE4FBE4FB1D
S1134F98E4FBE4FBE4FBE4FBE4FB000000001D0588
S1134FA81D051D051D051D051D051D051D051D05E5
S1134FB81D051D051D0500000000E4FBE4FBE4FBE2
S1134FC8E4FBE4FBE4FBE4FBE4FBE4FBE4FBE4FBDD
S1134FD8E4FBE4FBE4FBE4FBE4FB0000000000006A
S1134FE81D051D051D051D051D051D0500000000E9
S1134FF80000E4FBE4FBE4FBE4FBE4FBE4FBE4FB8C
S1135008E4FBE4FBE4FBE4FBE4FBE4FBE4FBE4FB9C
S1135018E4FBE4FBE4FBE4FBE4FBE4FB000000004A
S11350280000000000000000E4FBE4FBE4FBE4FBF8
S1135038E4FBE4FBE4FBE4FB0000000000000000E8
S1135048FFFFFFFFFFFFFFFFFFFFFFFFFFFFFFFF64
S1135058FFFFFFFFFFFF000000000000000000004A
S1135068000000000000FFFFFFFFFFFFFFFFFFFF3E
S1135078FFFFFFFFFFFFFFFFFFFFFFFFFFFFFFFF34
S1135088FFFFFFFFFFFFFFFFFFFFFFFFFFFF000022
S11350980000E4E8E4E8E4E8E4E8E4E8E4E8E4E870
S11350A8E4E800000000FFFFFFFFFFFFFFFFFFFF32
S11350B8FFFFFFFFFFFFFFFFFFFFFFFFFFFFFFFFF4
S11350C8FFFFFFFFFFFF00000000E4E8E4E8E4E876
S11350D8E4E8E4E8E4E8E4E8E4E8E4E8E4E8E4E864
S11350E8E4E800000000FFFFFFFFFFFFFFFFFFFFF2
S11350F8FFFFFFFFFFFFFFFFFFFFFFFFFFFFFFFFB4
S11351080000E4E8E4E8E4E8E4E8E4E8E4E8E4E8FF
S1135118E4E8E4E8E4E8E4E8E4E8E4E8E4E8E4E823
S1135128E4E80000FFFFFFFFFFFFFFFFFFFFFFFFB3
S1135138FFFFFFFFFFFFFFFFFFFF0000E4E8E4E8D5
S1135148E4E8E4E8E4E8E4E8E4E8E4E8E4E8E4E8F3
S1135158E4E8E4E8E4E8E4E8E4E8E4E8E4E8E4E8E3
S11351680000FFFFFFFFFFFFFFFFFFFFFFFFFFFF41
S1135178FFFFFFFF0000E4E8E4E8E4E8E4E8E4E82B
S1135188E4E8E4E8E4E8E4E8E4E8E4E8E4E8E4E8B3
S1135198E4E8E4E8E4E8E4E8E4E8E4E8E4E800006F
S11351A8FFFFFFFFFFFFFFFFFFFFFFFFFFFF000001
S11351B8E4E8E4E8E4E8E4E8E4E8E4E8E4E8E4E883
S11351C8E4E8E4E8E4E8E4E8E4E8E4E8E4E8E4E873
S11351D8E4E8E4E8E4E8E4E8E4E8E4E80000FFFFFD
S11351E8FFFFFFFFFFFFFFFF0000E4E8E4E8E4E857
S11351F8E4E8E4E8E4E8E4E8E4E8E4E8E4E8E4E843
S1135208E4E8E4E8E4E8E4E8E4E8E4E8E4E8E4E832
S1135218E4E8E4E8E4E8E4E8E4E80000FFFFFFFF8A
S1135228FFFFFFFF0000E4E8E4E8E4E8E4E8E4E87A
S1135238E4E8E4E8E4E8E4E8E4FBE4FBE4FBE4FBB6
S1135248E4FBE4FBE4E8E4E8E4E8E4E8E4E8E4E8CC
S1135258E4E8E4E8E4E80000FFFFFFFFFFFF0000E4
S1135268E4E8E4E8E4E8E4E8E4E8E4E8E4E8E4E8D2
S1135278E4E8E4FBE4FBE4FBE4FBE4FBE4FBE4FB3D
S1135288E4FBE4FBE4E8E4E8E4E8E4E8E4E8E4E88C
S1135298E4E8E4E80000FFFFFFFF0000E4E8E4E8D6
S11352A8E4E8E4E8E4E8E4E8E4E8E4FBE4FBE4FB59
S11352B8E4FBE4FBE4FBE4FBE4FBE4FBE4FBE4FBEA
S11352C8E4FBE4E8E4E8E4E8E4E8E4E8E4E8E4E85F
S11352D80000FFFF0000E4E8E4E8E4E8E4E8E4E8C8
S11352E8E4E8E4E8E4FBE4FBE4FBE4FBE4FBE4FBE0
S11352F8E4FBE4FBE4FBE4FBE4FBE4FBE4FBE4E8BD
S1135308E4E8E4E8E4E8E4E8E4E8E4E80000FFFFCB
S11353180000E4E8E4E8E4E8E4E8E4E8E4E8E4E8ED
S1135328E4FBE4FBE4FBE4FBE4FBE4FBE4FBE4FB79
S1135338E4FBE4FBE4FBE4FBE4FBE4FBE4E8E4E88F
S1135348E4E8E4E8E4E8E4E8E4E800000000E4E889
S1135358E4E8E4E8E4E8E4E8E4E8E4FBE4FBE4FBA8
S1135368E4FBE4FBE4FBE4FBE4FBE4FBE4FBE4FB39
S1135378E4FBE4FBE4FBE4FBE4FBE4E8E4E8E4E862
S1135388E4E8E4E8E4E800000000E4E8E4E8E4E849
S1135398E4E8E4E8E4E8E4FBE4FBE4FBE4FBE4FB42
S11353A8E4FBE4FBE4FBE4FBE4FBE4FBE4FBE4FBF9
S11353B8E4FBE4FBE4FBE4E8E4E8E4E8E4E8E4E848
S11353C8E4E800000000E4E8E4E8E4E8E4E8E4E809
S11353D8E4E8E4FBE4FBE4FBE4FBE4FBE4FBE4FBDC
S11353E8E4FBE4FBE4FBE4FBE4FBE4FBE4FBE4FBB9
S11353F8E4FBE4E8E4E8E4E8E4E8E4E8E4E80000FA
S11354080000E4E8E4E8E4E8E4E8E4E8E4E8E4FBE9
S1135418E4FBE4FBE4FBE4FBE4FBE4FBE4FBE4FB88
S1135428E4FBE4FBE4FBE4FBE4FBE4FBE4FBE4E88B
S1135438E4E8E4E8E4E8E4E8E4E800000000E4E898
S1135448E4E8E4E8E4E8E4E8E4E8E4FBE4FBE4FBB7
S1135458E4FBE4FBE4FBE4FBE4FBE4FBE4FBE4FB48
S1135468E4FBE4FBE4FBE4FBE4FBE4E8E4E8E4E871
S1135478E4E8E4E8E4E800000000E4E8E4E8E4E858
S1135488E4E8E4E8E4E8E4E8E4FBE4FBE4FBE4FB64
S1135498E4FBE4FBE4FBE4FBE4FBE4FBE4FBE4FB08
S11354A8E4FBE4FBE4E8E4E8E4E8E4E8E4E8E4E86A
S11354B80000FFFFFFFF0000E4E8E4E8E4E8E4E8B4
S11354C8E4E8E4E8E4FBE4FBE4FBE4FBE4FBE4FBFE
S11354D8E4FBE4FBE4FBE4FBE4FBE4FBE4FBE4FBC8
S11354E8E4E8E4E8E4E8E4E8E4E8E4E80000FFFFEA
S11354F8FFFF0000E4E8E4E8E4E8E4E8E4E8E4E8DA
S1135508E4E8E4FBE4FBE4FBE4FBE4FBE4FBE4FBAA
S1135518E4FBE4FBE4FBE4FBE4FBE4E8E4E8E4E8C0
S1135528E4E8E4E8E4E8E4E80000FFFFFFFFFFFF45
S11355380000E4E8E4E8E4E8E4E8E4E8E4E8E4E8CB
S1135548E4E8E4FBE4FBE4FBE4FBE4FBE4FBE4FB6A
S1135558E4FBE4E8E4E8E4E8E4E8E4E8E4E8E4E8CC
S1135568E4E80000FFFFFFFFFFFFFFFF0000E4E89F
S1135578E4E8E4E8E4E8E4E8E4E8E4E8E4E8E4E8BF
S1135588E4E8E4FBE4FBE4FBE4FBE4E8E4E8E4E863
S1135598E4E8E4E8E4E8E4E8E4E8E4E8E4E800006B
S11355A8FFFFFFFFFFFFFFFFFFFF0000E4E8E4E861
S11355B8E4E8E4E8E4E8E4E8E4E8E4E8E4E8E4E87F
S11355C8E4E8E4E8E4E8E4E8E4E8E4E8E4E8E4E86F
S11355D8E4E8E4E8E4E8E4E80000FFFFFFFFFFFF95
S11355E8FFFFFFFFFFFFFFFF0000E4E8E4E8E4E853
S11355F8E4E8E4E8E4E8E4E8E4E8E4E8E4E8E4E83F
S1135608E4E8E4E8E4E8E4E8E4E8E4E8E4E8E4E82E
S1135618E4E80000FFFFFFFFFFFFFFFFFFFFFFFFBE
S1135628FFFFFFFFFFFF0000E4E8E4E8E4E8E4E844
S1135638E4E8E4E8E4E8E4E8E4E8E4E8E4E8E4E8FE
S1135648E4E8E4E8E4E8E4E8E4E8E4E80000FFFF88
S1135658FFFFFFFFFFFFFFFFFFFFFFFFFFFFFFFF4E
S1135668FFFFFFFF0000E4E8E4E8E4E8E4E8E4E836
S1135678E4E8E4E8E4E8E4E8E4E8E4E8E4E8E4E8BE
S1135688E4E8E4E8E4E80000FFFFFFFFFFFFFFFFB2
S1135698FFFFFFFFFFFFFFFFFFFFFFFFFFFFFFFF0E
S11356A8FFFF00000000E4E8E4E8E4E8E4E8E4E8F4
S11356B8E4E8E4E8E4E8E4E8E4E8E4E8E4E800004A
S11356C80000FFFFFFFFFFFFFFFFFFFFFFFFFFFFDC
S11356D8FFFFFFFFFFFFFFFFFFFFFFFFFFFFFFFFCE
S11356E8FFFF000000000000E4E8E4E8E4E8E4E880
S11356F8E4E8E4E8000000000000FFFFFFFFFFFF0C
S1135708FFFFFFFFFFFFFFFFFFFFFFFFFFFFFFFF9D
S1135718FFFFFFFFFFFFFFFFFFFFFFFFFFFFFFFF8D
S1135728FFFFFFFF00000000000000000000000071
S1135738FFFFFFFFFFFFFFFFFFFFFFFFFFFFFFFF6D
S11357480000000000000000C057000043000000F3
S11357580DC0A0E1F8DF2DE904B04CE228D04BE2FB
S1135768F06F9DE81EFF2FE1840800000802000086
S11357780DC0A0E1F8DF2DE904B04CE228D04BE2DB
S1135788F06F9DE81EFF2FE1C40100000000000037
S11357980000000000000000F05B0000E8020000C8
S11357A800000000000000000100000000000000EC
S11357B8C05700000000000000000000AC5A0000C0
S11357C8145B00007C5B0000000000000000000087
S11357D800000000000000000000000000000000BD
S11357E80000000000000000000000005457000002
S11357F8000000000000000000000000000000009D
S1135808000000000000000000000000000000008C
S1135818000000000000000000000000000000007C
S1135828000000000000000000000000000000006C
S1135838000000000000000000000000000000005C
S1135848000000000000000000000000000000004C
S1135858000000000000000000000000000000003C
S113586801000000000000000E33CDAB34126DE6D9
S1135878ECDE05000B000000000000000000000042
S1135888000000000000000000000000000000000C
S113589800000000000000000000000000000000FC
S11358A800000000000000000000000000000000EC
S11358B800000000000000000000000000000000DC
S10B5BE8F8FFFF3F000000007C
S9030128D3
