S014000046696E616C50726F6A6563742E737265634F
S113000018F09FE518F09FE518F09FE518F09FE5BC
S113001018F09FE518F09FE518F09FE518F09FE5AC
S113002040000000040E0000080E00000C0E00004A
S1130030100E0000000E0000140E0000180E000048
S1130040260000EA8C609FE5000056E380402DE91D
S1130050016046E21E00000A7C509FE50000A0E318
S11300600010A0E30C2015E510E015E5084015E5A7
S113007002005EE1042082000900000A000054E34B
S11300800700000A0270A0E102C0A0E10C00BEE873
S11300900C00ACE80C3067E0030054E10C20A0E154
S11300A0F9FFFF1A04E015E500005EE30230A01139
S11300B00300000A0300A3E803C062E00C005EE151
S11300C0FBFFFF1A016046E2010076E3145085E26B
S11300D0E3FFFF1A300300EB01000000585C00004E
S11300E03C108FE21600A0E3563412EF000050E3F8
S11300F0080000BA28209FE51CD09FE5080092E57F
S1130100000050E300D0A01110109FE5040092E518
S1130110000050E300008115C9FFFFEAF8FFFF3F2C
S1130120986000008863000000D01FE5C4FFFFEA68
S1130130F8FFFF3F08402DE92C009FE52C309FE598
S1130140033060E0060053E30100008A0840BDE884
S11301501EFF2FE118309FE5000053E3FAFFFF0A6A
S11301600FE0A0E113FF2FE1F7FFFFEAA06000001A
S1130170A36000000000000008402DE934009FE562
S113018034309FE5033060E04331A0E1A33F83E0D6
S1130190C310B0E10100001A0840BDE81EFF2FE1C2
S11301A018209FE5000052E3FAFFFF0A0FE0A0E1E8
S11301B012FF2FE1F7FFFFEAA0600000A06000003B
S11301C00000000010402DE92C409FE50030D4E5EC
S11301D0000053E30600001AD5FFFFEB1C309FE537
S11301E0000053E318009F1500F020130130A0E332
S11301F00030C4E51040BDE81EFF2FE1A060000000
S113020000000000A40E000008402DE934309FE5F2
S1130210000053E330009F1530109F1500F02013A9
S11302202C009FE5003090E5000053E30300000A32
S113023020309FE5000053E30FE0A01113FF2F11BE
S11302400840BDE8CBFFFFEA00000000A40E000058
S1130250A4600000585C000000000000BC1006E32D
S1130260001040E3002091E5043091E5081091E589
S1130270010051E34A30A003010051E37220A003BE
S1130280BC1006E3001040E30C1091E5010051E3BB
S11302906830A003010051E37220A003BC1006E300
S11302A0001040E3101091E5010051E38630A003F3
S11302B0010051E37220A003BC1006E3001040E3E8
S11302C0141091E5010051E34A30A003010051E309
S11302D09020A003BC1006E3001040E3181091E541
S11302E0010051E36830A003010051E39020A00312
S11302F0BC1006E3001040E31C1091E5010051E33B
S11303008630A003010051E39020A003BC1006E353
S1130310001040E3201091E5010051E34A30A003AE
S1130320010051E3AE20A003BC1006E3001040E33B
S1130330241091E5010051E36830A003010051E36A
S1130340AE20A003BC1006E3001040E3281091E5A2
S1130350010051E38630A003010051E3AE20A00365
S1130360BC1006E3001040E3002081E5043081E581
S11303701EFF2FE1F8452DE90040A0E3BC5006E341
S1130380005040E30080E0E3B56108E34E6B41E3D5
S11303904B7FA0E301A0A0E32C3085E2030094E7A7
S11303A07C2085E2023094E7033080E0023084E769
S11303B0CC2085E202C094E7471F85E2012094E740
S11303C002208CE0012084E7050D53E30D0000DAE0
S11303D0010050E30B00001A2C3085E2038084E70F
S11303E0A00100EB7C2085E29630C1E0C03FA0E193
S11303F0C13263E0970363E04D3F83E2023083E25E
S1130400023084E72B0000EA000053E30C0000AA4A
S1130410010070E30A00001A2C3085E203A084E78F
S1130420900100EB7C3085E29620C1E0C02FA0E172
S1130430C12262E0970260E0000060E2030084E70A
S11304401C0000EA000052E30C0000AA01007CE357
S11304500A00001ACC3085E203A084E7810100EB96
S1130460473F85E29620C1E0C02FA0E1C12262E0AF
S1130470970260E0000060E2030084E70D0000EAF8
S1130480F00052E30B0000DA01005CE30900001AFB
S1130490CC3085E2038084E7720100EB473F85E2BC
S11304A09620C1E0C02FA0E1C12262E0970260E083
S11304B0F00080E2030084E7044084E2300054E367
S11304C0B4FFFF1AF885BDE8BC3006E3003040E312
S11304D06C3193E58000A0E1011583E0B02081E157
S11304E01EFF2FE1F84F2DE90070A0E10160A0E1AB
S11304F00080E0E3A8AE00E300A040E300B0A0E386
S1130500A39F01E30A0000EA070084E00610A0E1CB
S1130510F220F5E1EBFFFFEB014084E25A0054E3E3
S1130520F8FFFF1A5A8088E2016086E2090058E168
S1130530F88FBD0888508AE00B40A0E1F1FFFFEA84
S1130540F84F2DE90070A0E10160A0E10080E0E334
S113055040B09FE50090A0E383A300E30A0000EA13
S1130560070084E00610A0E1F220F5E1D5FFFFEBDF
S1130570014084E21E0054E3F8FFFF1A1E8088E263
S1130580016086E20A0058E1F88FBD0888508BE0CC
S11305900940A0E1F1FFFFEAF04D0000F84F2DE91A
S11305A00080A0E10170A0E100A0E0E350B09FE56D
S11305B00090A0E3FF6F0FE30E0000EAB220F5E124
S11305C0060052E10300000A080084E00710A0E1DD
S11305D07220BFE6BBFFFFEB014084E21E0054E340
S11305E0F5FFFF1A1EA08AE2017087E2833300E35D
S11305F003005AE1F88FBD088A508BE00940A0E15E
S1130600EDFFFFEAF854000038402DE90040A0E374
S1130610BC5006E3005040E37C3085E2030094E7DD
S1130620050D50E30400008A473F85E2031094E778
S1130630F00051E30000008AD7FFFFEB044084E29E
S1130640300054E3F3FFFF1ABC3006E3003040E30C
S1130650000093E5041093E5B8FFFFEB3880BDE894
S1130660F0412DE90050A0E30580A0E1BC6006E361
S1130670006040E3120000EA7C3086E2030095E764
S1130680473F86E2031095E7000084E0011087E00D
S11306900820A0E18BFFFFEB014084E21E0054E33D
S11306A0F4FFFF1A017087E21E0057E30100000AFD
S11306B00840A0E1EFFFFFEA045085E2300055E373
S11306C0F081BD080870A0E1F8FFFFEA70402DE951
S11306D00050A0E30560A0E1090000EA0500A0E1E4
S11306E00410A0E10620A0E176FFFFEB014084E2C4
S11306F0F00054E3F8FFFF1A015085E2050D55E3BD
S11307007080BD080640A0E1F3FFFFEA70402DE9C8
S11307100050A0E30560A0E1090000EA0500A0E1A3
S11307200410A0E10620A0E166FFFFEB014084E293
S1130730F00054E3F8FFFF1A015085E2050D55E37C
S11307407080BD080640A0E1F3FFFFEAFF3F03E32A
S1130750203F4FE30120A0E3DF2F03E5D33F13E560
S1130760010013E31EFF2F01FF2F03E3202F4FE3AC
S1130770D33F12E5010013E3FCFFFF1A1EFF2FE134
S1130780F84F2DE9BC4006E3004040E30130A0E30C
S11307901C3084E5FF5F03E3205F4FE33233A0E3C3
S11307A0DB3F05E5E8FFFFEBDF3F15E56C3184E552
S11307B00331A0E3DB3F05E5DB3F15E56C3184E560
S11307C0D1FFFFEBC0FFFFEB0040A0E30450A0E12A
S11307D0BC6006E3006040E3568505E3558545E3C8
S11307E0B57108E34E7B41E34B9FA0E304A0A0E175
S11307F000B0E0E3030015E31700001A990000EBD2
S11308007C3086E29720C1E0C02FA0E1C12262E0E3
S1130810990260E0000060E2030084E7910000EBCD
S1130820472F86E29810C3E0C03F43E0833083E063
S1130830000063E0000260E08000A0E14A0080E282
S1130840020084E72C3086E20120A0E3032084E741
S1130850CC3086E203A084E74E0000EAC53FA0E165
S1130860233FA0E1032085E0032002E2023063E09D
S1130870010053E31700001A7A0000EB7C2086E2A3
S11308809730C1E0C03FA0E1C13263E0990363E067
S11308904D3F83E2023083E2023084E7710000EBD3
S11308A0472F86E29810C3E0C03F43E0833083E0E3
S11308B0000063E0000260E08000A0E14A0080E202
S11308C0020084E72C3086E203B084E7CC3086E271
S11308D003A084E72F0000EA020053E31700001A84
S11308E0600000EB7C2086E29810C3E0C03F43E048
S11308F0833083E0000063E0000260E08000A0E158
S1130900720080E2020084E7560000EB473F86E273
S11309109720C1E0C02FA0E1C12262E0990260E00B
S1130920000060E2030084E72C3086E203A084E741
S1130930CC3086E20120A0E3032084E7150000EA1E
S1130940480000EB7C2086E29810C3E0C03F43E0FF
S1130950833083E0000063E0000260E08000A0E1F7
S1130960720080E2020084E73E0000EB473F86E22B
S11309709720C1E0C02FA0E1C12262E0990260E0AB
S1130980EF0080E2030084E72C3086E203A084E7D2
S1130990CC3086E203B084E7015085E2044084E26F
S11309A00C0055E392FFFF1A7260A0E34A50A0E3E3
S11309B0BC4006E3004040E3FF7F03E3207F4FE3B6
S11309C051FFFFEB0600A0E10510A0E1C4FEFFEB20
S11309D07031D4E5000053E3F88FBD181EFEFFEB21
S11309E008FFFFEB62FEFFEB57FFFFEBDB3F17E572
S11309F06C3184E5F1FFFFEA0010A0E10000A0E300
S1130A0008402DE90020A0E10030A0E12C0000EB1B
S1130A100840BDE81EFF2FE108402DE90010A0E3C7
S1130A200040A0E1630000EB18309FE5000093E56F
S1130A303C3090E5000053E30FE0A01113FF2F11A9
S1130A400400A0E1E70000EB005C000010309FE52B
S1130A50003093E50020A0E3A80083E5AC2083E503
S1130A601EFF2FE1685C000004402DE544309FE543
S1130A7000C093E540409FE5A8209CE5920404E073
S1130A80AC109CE534309FE5934124E0920381E06F
S1130A900120A0E3002092E0011084E00030A0E3F4
S1130AA00130A3E0A8208CE5AC308CE50201C3E35F
S1130AB01000BDE81EFF2FE1685C00002DF45158C2
S1130AC02D7F954CE4C09FE5F0412DE900409CE565
S1130AD048C194E500005CE353CF840204509CE5D4
S1130AE048C184051F0055E310D04DE20060A0E129
S1130AF0150000DAB8009FE5000050E30100001A79
S1130B000000E0E3180000EA190EA0E30C108DE5E4
S1130B1008208DE504308DE500F020E300C050E2AC
S1130B200C109DE508209DE504309DE5F3FFFF0AC8
S1130B30485194E50000A0E304008CE500508CE5E6
S1130B4048C184E588018CE58C018CE5000056E3FE
S1130B5004409CE50700001A023084E2014084E26C
S1130B6003118CE704408CE50000A0E310D08DE273
S1130B70F041BDE81EFF2FE10100A0E31004A0E155
S1130B8004818CE0020056E388719CE5083188E515
S1130B908C319C05007087E1000083010850A0E1BE
S1130BA0882088E588718CE58C018C05E9FFFFEAD3
S1130BB0005C000000000000F04F2DE968319FE563
S1130BC0003093E514D04DE204308DE5523F83E2CA
S1130BD008008DE50C308DE50170A0E10180A0E3F3
S1130BE004309DE5486193E5000056E30CB09DE5B3
S1130BF03300000A045096E5014055E288A086526D
S1130C001F50855205518A500700005A290000EAF6
S1130C10003095E5070053E10500000A014044E275
S1130C20010074E3045045E22200000A000057E387
S1130C30F6FFFF1A043096E505206AE0013043E22E
S1130C40022086E0040053E1783012E50010A0137E
S1130C500440860578100215000053E3EEFFFF0AF6
S1130C601824A0E1881196E5010012E1049096E5AC
S1130C701600000A8C1196E5010012E11600001A14
S1130C8008009DE5801015E50FE0A0E113FF2FE1BA
S1130C90043096E5090053E1D0FFFF1A00309BE5CC
S1130CA0060053E1CDFFFF1A014044E2010074E362
S1130CB0045045E2DCFFFF1A70109FE5000051E389
S1130CC00900001A14D08DE2F04FBDE81EFF2FE199
S1130CD00FE0A0E113FF2FE1ECFFFFEA800015E530
S1130CE00FE0A0E113FF2FE1E8FFFFEA043096E5EF
S1130CF0000053E3003096E50800001A000053E3B7
S1130D000600000A0600A0E100308BE500F020E3B5
S1130D1000609BE5000056E3B5FFFF1AE8FFFFEA19
S1130D2006B0A0E10360A0E1F9FFFFEA005C000067
S1130D300000000008402DE910309FE5000053E357
S1130D400C009F152BFFFF1B0840BDE81EFF2FE181
S1130D50285C0000580D000038402DE930509FE514
S1130D6030409FE5044065E04441B0E10451851002
S1130D700400000A043035E50FE0A0E113FF2FE181
S1130D80014054E2FAFFFF1AA61300EB3840BDE815
S1130D901EFF2FE1405C0000445C000008402DE988
S1130DA01D0000EB30309FE5000053E30000931575
S1130DB00300A00124309FE5000053E300109315C5
S1130DC00310A0010020A0E36CFEFFEB10309FE5B0
S1130DD0000053E30FFFFF1BFEFFFFEA00000000CB
S1130DE000000000180A000004E02DE51800A0E34C
S1130DF004109FE5563412EFFEFFFFEA26000200BE
S1130E00FEFFFFEAFEFFFFEAFEFFFFEAFEFFFFEA46
S1130E10FEFFFFEAFEFFFFEAFEFFFFEA70402DE956
S1130E206C509FE56C609FE5066065E04661B0E14B
S1130E30045045120040A0130500000A0430B5E533
S1130E40014084E20FE0A0E113FF2FE1040056E12A
S1130E50F9FFFF1A40509FE540609FE5066065E09A
S1130E60681300EB4661B0E1045045120040A01342
S1130E700500000A0430B5E5014084E20FE0A0E17A
S1130E8013FF2FE1040056E1F9FFFF1A7040BDE89B
S1130E901EFF2FE1205C0000205C0000205C0000AD
S1070EA0285C0000C6
S1070EA40000000046
S1130EA8FFFFFFFFFFFFFFFFFFFFFFFFFFFFFFFF46
S1130EB8FFFFFFFFFFFFFFFFFFFFFFFFFFFFFFFF36
S1130EC8FFFFFFFFFFFFFFFFFFFFFFFFFFFFFFFF26
S1130ED8FFFFFFFFFFFFFFFFFFFFFFFFFFFFFFFF16
S1130EE8FFFFFFFFFFFFFFFFFFFFFFFFFFFFFFFF06
S1130EF8FFFFFFFFFFFFFFFFFFFFFFFFFFFFFFFFF6
S1130F08FFFFFFFFFFFFFFFFFFFFFFFFFFFFFFFFE5
S1130F18FFFFFFFFFFFFFFFFFFFFFFFFFFFFFFFFD5
S1130F28FFFFFFFFFFFFFFFFFFFFFFFFFFFFFFFFC5
S1130F38FFFFFFFFFFFFFFFFFFFFFFFFFFFFFFFFB5
S1130F48FFFFFFFFFFFFFFFFFFFFFFFFFFFFFFFFA5
S1130F58FFFFFFFFFFFFE4FBE4FBE4FBE4FBE4FB30
S1130F68E4FBE4FBE4FBE4FBE4FBE4FBE4FBE4FB7D
S1130F78E4FBE4FBE4FBE4FBE4FBE4FBE4FBE4FB6D
S1130F88E4FBE4FBE4FBE4FBE4FBE4FBE4FBE4FB5D
S1130F98FFFFE4FBE4FBE4FBE4FBE4FBE4FBE4FB2E
S1130FA8E4FBE4FBE4FBE4FBE4FBE4FBE4FBE4FB3D
S1130FB8E4FBE4FBE4FBE4FBE4FBE4FBE4FBE4FB2D
S1130FC8E4FBE4FBE4FBE4FBE4FBE4FBE4FBFFFFFE
S1130FD8E4FBE4FBE4FBE4FBE4FBE4FBE4FBE4FB0D
S1130FE8E4FBE4FBE4FBE4FBE4FBE4FBE4FBE4FBFD
S1130FF8E4FBE4FBE4FBE4FBE4FBE4FBE4FBE4FBED
S1131008E4FBE4FBE4FBFFFFFFFFE4FBE4FBE4FB9E
S1131018E4FBE4FBE4FBE4FBE4FBE4FBE4FBE4FBCC
S1131028E4FBE4FBE4FBE4FBE4FBE4FBE4FBE4FBBC
S1131038E4FBE4FBE4FBE4FBE4FBE4FBE4FBE4FBAC
S1131048E4FBE4FBFFFFE4FBE4FBE4FBE4FBE4FB7D
S1131058E4FBE4FBE4FBE4FBE4FBE4FBE4FBE4FB8C
S1131068E4FBE4FBE4FBE4FBE4FBE4FBE4FBE4FB7C
S1131078E4FBE4FBE4FBE4FBE4FBE4FBE4FBE4FB6C
S1131088E4FBFFFFE4FBE4FBE4FBE4FBE4FBE4FB3D
S1131098E4FBE4FBE4FBE4FBE4FBE4FBE4FBE4FB4C
S11310A8E4FBE4FBE4FBE4FBE4FBE4FBE4FBE4FB3C
S11310B8E4FBE4FBE4FBE4FBE4FBFFFFFFFFE4FBEE
S11310C8E4FBE4FBE4FBE4FBE4FBE4FBE4FBE4FB1C
S11310D8E4FBE4FBE4FBE4FBE4FBE4FBE4FBE4FB0C
S11310E8E4FBE4FBE4FBE4FBE4FBE4FBE4FBE4FBFC
S11310F8E4FBE4FBE4FBE4FBFFFFE4FBE4FBE4FBCD
S1131108E4FBE4FBE4FBE4FBE4FBE4FBE4FBE4FBDB
S1131118E4FBE4FBE4FBE4FBE4FBE4FBE4FBE4FBCB
S1131128E4FBE4FBE4FBE4FBE4FBE4FBE4FBE4FBBB
S1131138E4FBE4FBE4FBFFFFE4FBE4FBE4FBE4FB8C
S1131148E4FBE4FBE4FBE4FBE4FBE4FBE4FBE4FB9B
S1131158E4FBE4FBE4FBE4FBE4FBE4FBE4FBE4FB8B
S1131168E4FBE4FBE4FBE4FBE4FBE4FBE4FBFFFF5C
S1131178FFFFE4FBE4FBE4FBE4FBE4FBE4FBE4FB4C
S1131188E4FBE4FBE4FBE4FBE4FBE4FBE4FBE4FB5B
S1131198E4FBE4FBE4FBE4FBE4FBE4FBE4FBE4FB4B
S11311A8E4FBE4FBE4FBE4FBE4FBE4FBFFFFE4FB1C
S11311B8E4FBE4FBE4FBE4FBE4FBE4FBE4FBE4FB2B
S11311C8E4FBE4FBE4FBE4FBE4FBE4FBE4FBE4FB1B
S11311D8E4FBE4FBE4FBE4FBE4FBE4FBE4FBE4FB0B
S11311E8E4FBE4FBE4FBE4FBE4FBFFFFE4FBE4FBDC
S11311F8E4FBE4FBE4FBE4FBE4FBE4FBE4FBE4FBEB
S1131208E4FBE4FBE4FBE4FBE4FBE4FBE4FBE4FBDA
S1131218E4FBE4FBE4FBE4FBE4FBE4FBE4FBE4FBCA
S1131228E4FBFFFFFFFFE4FBE4FBE4FBE4FBE4FB7C
S1131238E4FBE4FBE4FBE4FBE4FBE4FBE4FBE4FBAA
S1131248E4FBE4FBE4FBE4FBE4FBE4FBE4FBE4FB9A
S1131258E4FBE4FBE4FBE4FBE4FBE4FBE4FBE4FB8A
S1131268FFFFE4FBE4FBE4FBE4FBE4FBE4FBE4FB5B
S1131278E4FBE4FBE4FBE4FBE4FBE4FBE4FBE4FB6A
S1131288E4FBE4FBE4FBE4FBE4FBE4FBE4FBE4FB5A
S1131298E4FBE4FBE4FBE4FBE4FBE4FBE4FBFFFF2B
S11312A8E4FBE4FBE4FBE4FBE4FBE4FBE4FBE4FB3A
S11312B8E4FBE4FBE4FBE4FBE4FBE4FBE4FBE4FB2A
S11312C8E4FBE4FBE4FBE4FBE4FBE4FBE4FBE4FB1A
S11312D8E4FBE4FBE4FBFFFFFFFFE4FBE4FBE4FBCC
S11312E8E4FBE4FBE4FBE4FBE4FBE4FBE4FBE4FBFA
S11312F8E4FBE4FBE4FBE4FBE4FBE4FBE4FBE4FBEA
S1131308E4FBE4FBE4FBE4FBE4FBE4FBE4FBE4FBD9
S1131318E4FBE4FBFFFFE4FBE4FBE4FBE4FBE4FBAA
S1131328E4FBE4FBE4FBE4FBE4FBE4FBE4FBE4FBB9
S1131338E4FBE4FBE4FBE4FBE4FBE4FBE4FBE4FBA9
S1131348E4FBE4FBE4FBE4FBE4FBE4FBE4FBE4FB99
S1131358E4FBFFFFE4FBE4FBE4FBE4FBE4FBE4FB6A
S1131368E4FBE4FBE4FBE4FBE4FBE4FBE4FBE4FB79
S1131378E4FBE4FBE4FBE4FBE4FBE4FBE4FBE4FB69
S1131388E4FBE4FBE4FBE4FBE4FBFFFFFFFFE4FB1B
S1131398E4FBE4FBE4FBE4FBE4FBE4FBE4FBE4FB49
S11313A8E4FBE4FBE4FBE4FBE4FBE4FBE4FBE4FB39
S11313B8E4FBE4FBE4FBE4FBE4FBE4FBE4FBE4FB29
S11313C8E4FBE4FBE4FBE4FBFFFFE4FBE4FBE4FBFA
S11313D8E4FBE4FBE4FBE4FBE4FBE4FBE4FBE4FB09
S11313E8E4FBE4FBE4FBE4FBE4FBE4FBE4FBE4FBF9
S11313F8E4FBE4FBE4FBE4FBE4FBE4FBE4FBE4FBE9
S1131408E4FBE4FBE4FBFFFFE4FBE4FBE4FBE4FBB9
S1131418E4FBE4FBE4FBE4FBE4FBE4FBE4FBE4FBC8
S1131428E4FBE4FBE4FBE4FBE4FBE4FBE4FBE4FBB8
S1131438E4FBE4FBE4FBE4FBE4FBE4FBE4FBFFFF89
S1131448FFFFE4FBE4FBE4FBE4FBE4FBE4FBE4FB79
S1131458E4FBE4FBE4FBE4FBE4FBE4FBE4FBE4FB88
S1131468E4FBE4FBE4FBE4FBE4FBE4FBE4FBE4FB78
S1131478E4FBE4FBE4FBE4FBE4FBE4FBFFFFE4FB49
S1131488E4FBE4FBE4FBE4FBE4FBE4FBE4FBE4FB58
S1131498E4FBE4FBE4FBE4FBE4FBE4FBE4FBE4FB48
S11314A8E4FBE4FBE4FBE4FBE4FBE4FBE4FBE4FB38
S11314B8E4FBE4FBE4FBE4FBE4FBFFFFE4FBE4FB09
S11314C8E4FBE4FBE4FBE4FBE4FBE4FBE4FBE4FB18
S11314D8E4FBE4FBE4FBE4FBE4FBE4FBE4FBE4FB08
S11314E8E4FBE4FBE4FBE4FBE4FBE4FBE4FBE4FBF8
S11314F8E4FBFFFFFFFFE4FBE4FBE4FBE4FBE4FBAA
S1131508E4FBE4FBE4FBE4FBE4FBE4FBE4FBE4FBD7
S1131518E4FBE4FBE4FBE4FBE4FBE4FBE4FBE4FBC7
S1131528E4FBE4FBE4FBE4FBE4FBE4FBE4FBE4FBB7
S1131538FFFFE4FBE4FBE4FBE4FBE4FBE4FBE4FB88
S1131548E4FBE4FBE4FBE4FBE4FBE4FBE4FBE4FB97
S1131558E4FBE4FBE4FBE4FBE4FBE4FBE4FBE4FB87
S1131568E4FBE4FBE4FBE4FBE4FBE4FBE4FBFFFF58
S1131578E4FBE4FBE4FBE4FBE4FBE4FBE4FBE4FB67
S1131588E4FBE4FBE4FBE4FBE4FBE4FBE4FBE4FB57
S1131598E4FBE4FBE4FBE4FBE4FBE4FBE4FBE4FB47
S11315A8E4FBE4FBE4FBFFFFFFFFE4FBE4FBE4FBF9
S11315B8E4FBE4FBE4FBE4FBE4FBE4FBE4FBE4FB27
S11315C8E4FBE4FBE4FBE4FBE4FBE4FBE4FBE4FB17
S11315D8E4FBE4FBE4FBE4FBE4FBE4FBE4FBE4FB07
S11315E8E4FBE4FBFFFFE4FBE4FBE4FBE4FBE4FBD8
S11315F8E4FBE4FBE4FBE4FBE4FBE4FBE4FBE4FBE7
S1131608E4FBE4FBE4FBE4FBE4FBE4FBE4FBE4FBD6
S1131618E4FBE4FBE4FBE4FBE4FBE4FBE4FBE4FBC6
S1131628E4FBFFFFE4FBE4FBE4FBE4FBE4FBE4FB97
S1131638E4FBE4FBE4FBE4FBE4FBE4FBE4FBE4FBA6
S1131648E4FBE4FBE4FBE4FBE4FBE4FBE4FBE4FB96
S1131658E4FBE4FBE4FBE4FBE4FBFFFFFFFFE4FB48
S1131668E4FBE4FBE4FBE4FBE4FBE4FBE4FBE4FB76
S1131678E4FBE4FBE4FBE4FBE4FBE4FBE4FBE4FB66
S1131688E4FBE4FBE4FBE4FBE4FBE4FBE4FBE4FB56
S1131698E4FBE4FBE4FBE4FBFFFFE4FBE4FBE4FB27
S11316A8E4FBE4FBE4FBE4FBE4FBE4FBE4FBE4FB36
S11316B8E4FBE4FBE4FBE4FBE4FBE4FBE4FBE4FB26
S11316C8E4FBE4FBE4FBE4FBE4FBE4FBE4FBE4FB16
S11316D8E4FBE4FBE4FBFFFFE4FBE4FBE4FBE4FBE7
S11316E8E4FBE4FBE4FBE4FBE4FBE4FBE4FBE4FBF6
S11316F8E4FBE4FBE4FBE4FBE4FBE4FBE4FBE4FBE6
S1131708E4FBE4FBE4FBE4FBE4FBE4FBE4FBFFFFB6
S1131718FFFFE4FBE4FBE4FBE4FBE4FBE4FBE4FBA6
S1131728E4FBE4FBE4FBE4FBE4FBE4FBE4FBE4FBB5
S1131738E4FBE4FBE4FBE4FBE4FBE4FBE4FBE4FBA5
S1131748E4FBE4FBE4FBE4FBE4FBE4FBFFFFE4FB76
S1131758E4FBE4FBE4FBE4FBE4FBE4FBE4FBE4FB85
S1131768E4FBE4FBE4FBE4FBE4FBE4FBE4FBE4FB75
S1131778E4FBE4FBE4FBE4FBE4FBE4FBE4FBE4FB65
S1131788E4FBE4FBE4FBE4FBE4FBFFFFE4FBE4FB36
S1131798E4FBE4FBE4FBE4FBE4FBE4FBE4FBE4FB45
S11317A8E4FBE4FBE4FBE4FBE4FBE4FBE4FBE4FB35
S11317B8E4FBE4FBE4FBE4FBE4FBE4FBE4FBE4FB25
S11317C8E4FBFFFFFFFFE4FBE4FBE4FBE4FBE4FBD7
S11317D8E4FBE4FBE4FBE4FBE4FBE4FBE4FBE4FB05
S11317E8E4FBE4FBE4FBE4FBE4FBE4FBE4FBE4FBF5
S11317F8E4FBE4FBE4FBE4FBE4FBE4FBE4FBE4FBE5
S1131808FFFFE4FBE4FBE4FBE4FBE4FBE4FBE4FBB5
S1131818E4FBE4FBE4FBE4FBE4FBE4FBE4FBE4FBC4
S1131828E4FBE4FBE4FBE4FBE4FBE4FBE4FBE4FBB4
S1131838E4FBE4FBE4FBE4FBE4FBE4FBE4FBFFFF85
S1131848E4FBE4FBE4FBE4FBE4FBE4FBE4FBE4FB94
S1131858E4FBE4FBE4FBE4FBE4FBE4FBE4FBE4FB84
S1131868E4FBE4FBE4FBE4FBE4FBE4FBE4FBE4FB74
S1131878E4FBE4FBE4FBFFFFFFFFE4FBE4FBE4FB26
S1131888E4FBE4FBE4FBE4FBE4FBE4FBE4FBE4FB54
S1131898E4FBE4FBE4FBE4FBE4FBE4FBE4FBE4FB44
S11318A8E4FBE4FBE4FBE4FBE4FBE4FBE4FBE4FB34
S11318B8E4FBE4FBFFFFE4FBE4FBE4FBE4FBE4FB05
S11318C8E4FBE4FBE4FBE4FBE4FBE4FBE4FBE4FB14
S11318D8E4FBE4FBE4FBE4FBE4FBE4FBE4FBE4FB04
S11318E8E4FBE4FBE4FBE4FBE4FBE4FBE4FBE4FBF4
S11318F8E4FBFFFFE4FBE4FBE4FBE4FBE4FBE4FBC5
S1131908E4FBE4FBE4FBE4FBE4FBE4FBE4FBE4FBD3
S1131918E4FBE4FBE4FBE4FBE4FBE4FBE4FBE4FBC3
S1131928E4FBE4FBE4FBE4FBE4FBFFFFFFFFE4FB75
S1131938E4FBE4FBE4FBE4FBE4FBE4FBE4FBE4FBA3
S1131948E4FBE4FBE4FBE4FBE4FBE4FBE4FBE4FB93
S1131958E4FBE4FBE4FBE4FBE4FBE4FBE4FBE4FB83
S1131968E4FBE4FBE4FBE4FBFFFFE4FBE4FBE4FB54
S1131978E4FBE4FBE4FBE4FBE4FBE4FBE4FBE4FB63
S1131988E4FBE4FBE4FBE4FBE4FBE4FBE4FBE4FB53
S1131998E4FBE4FBE4FBE4FBE4FBE4FBE4FBE4FB43
S11319A8E4FBE4FBE4FBFFFFE4FBE4FBE4FBE4FB14
S11319B8E4FBE4FBE4FBE4FBE4FBE4FBE4FBE4FB23
S11319C8E4FBE4FBE4FBE4FBE4FBE4FBE4FBE4FB13
S11319D8E4FBE4FBE4FBE4FBE4FBE4FBE4FBFFFFE4
S11319E8FFFFE4FBE4FBE4FBE4FBE4FBE4FBE4FBD4
S11319F8E4FBE4FBE4FBE4FBE4FBE4FBE4FBE4FBE3
S1131A08E4FBE4FBE4FBE4FBE4FBE4FBE4FBE4FBD2
S1131A18E4FBE4FBE4FBE4FBE4FBE4FBFFFFE4FBA3
S1131A28E4FBE4FBE4FBE4FBE4FBE4FBE4FBE4FBB2
S1131A38E4FBE4FBE4FBE4FBE4FBE4FBE4FBE4FBA2
S1131A48E4FBE4FBE4FBE4FBE4FBE4FBE4FBE4FB92
S1131A58E4FBE4FBE4FBE4FBE4FBFFFFE4FBE4FB63
S1131A68E4FBE4FBE4FBE4FBE4FBE4FBE4FBE4FB72
S1131A78E4FBE4FBE4FBE4FBE4FBE4FBE4FBE4FB62
S1131A88E4FBE4FBE4FBE4FBE4FBE4FBE4FBE4FB52
S1131A98E4FBFFFFFFFFE4FBE4FBE4FBE4FBE4FB04
S1131AA8E4FBE4FBE4FBE4FBE4FBE4FBE4FBE4FB32
S1131AB8E4FBE4FBE4FBE4FBE4FBE4FBE4FBE4FB22
S1131AC8E4FBE4FBE4FBE4FBE4FBE4FBE4FBE4FB12
S1131AD8FFFFE4FBE4FBE4FBE4FBE4FBE4FBE4FBE3
S1131AE8E4FBE4FBE4FBE4FBE4FBE4FBE4FBE4FBF2
S1131AF8E4FBE4FBE4FBE4FBE4FBE4FBE4FBE4FBE2
S1131B08E4FBE4FBE4FBE4FBE4FBE4FBE4FBFFFFB2
S1131B18E4FBE4FBE4FBE4FBE4FBE4FBE4FBE4FBC1
S1131B28E4FBE4FBE4FBE4FBE4FBE4FBE4FBE4FBB1
S1131B38E4FBE4FBE4FBE4FBE4FBE4FBE4FBE4FBA1
S1131B48E4FBE4FBE4FBFFFFFFFFE4FBE4FBE4FB53
S1131B58E4FBE4FBE4FBE4FBE4FBE4FBE4FBE4FB81
S1131B68E4FBE4FBE4FBE4FBE4FBE4FBE4FBE4FB71
S1131B78E4FBE4FBE4FBE4FBE4FBE4FBE4FBE4FB61
S1131B88E4FBE4FBFFFFE4FBE4FBE4FBE4FBE4FB32
S1131B98E4FBE4FBE4FBE4FBE4FBE4FBE4FBE4FB41
S1131BA8E4FBE4FBE4FBE4FBE4FBE4FBE4FBE4FB31
S1131BB8E4FBE4FBE4FBE4FBE4FBE4FBE4FBE4FB21
S1131BC8E4FBFFFFE4FBE4FBE4FBE4FBE4FBE4FBF2
S1131BD8E4FBE4FBE4FBE4FBE4FBE4FBE4FBE4FB01
S1131BE8E4FBE4FBE4FBE4FBE4FBE4FBE4FBE4FBF1
S1131BF8E4FBE4FBE4FBE4FBE4FBFFFFFFFFE4FBA3
S1131C08E4FBE4FBE4FBE4FBE4FBE4FBE4FBE4FBD0
S1131C18E4FBE4FBE4FBE4FBE4FBE4FBE4FBE4FBC0
S1131C28E4FBE4FBE4FBE4FBE4FBE4FBE4FBE4FBB0
S1131C38E4FBE4FBE4FBE4FBFFFFE4FBE4FBE4FB81
S1131C48E4FBE4FBE4FBE4FBE4FBE4FBE4FBE4FB90
S1131C58E4FBE4FBE4FBE4FBE4FBE4FBE4FBE4FB80
S1131C68E4FBE4FBE4FBE4FBE4FBE4FBE4FBE4FB70
S1131C78E4FBE4FBE4FBFFFFE4FBE4FBE4FBE4FB41
S1131C88E4FBE4FBE4FBE4FBE4FBE4FBE4FBE4FB50
S1131C98E4FBE4FBE4FBE4FBE4FBE4FBE4FBE4FB40
S1131CA8E4FBE4FBE4FBE4FBE4FBE4FBE4FBFFFF11
S1131CB8FFFFE4FBE4FBE4FBE4FBE4FBE4FBE4FB01
S1131CC8E4FBE4FBE4FBE4FBE4FBE4FBE4FBE4FB10
S1131CD8E4FBE4FBE4FBE4FBE4FBE4FBE4FBE4FB00
S1131CE8E4FBE4FBE4FBE4FBE4FBE4FBFFFFE4FBD1
S1131CF8E4FBE4FBE4FBE4FBE4FBE4FBE4FBE4FBE0
S1131D08E4FBE4FBE4FBE4FBE4FBE4FBE4FBE4FBCF
S1131D18E4FBE4FBE4FBE4FBE4FBE4FBE4FBE4FBBF
S1131D28E4FBE4FBE4FBE4FBE4FBFFFFE4FBE4FB90
S1131D38E4FBE4FBE4FBE4FBE4FBE4FBE4FBE4FB9F
S1131D48E4FBE4FBE4FBE4FBE4FBE4FBE4FBE4FB8F
S1131D58E4FBE4FBE4FBE4FBE4FBE4FBE4FBE4FB7F
S1131D68E4FBFFFFFFFFE4FBE4FBE4FBE4FBE4FB31
S1131D78E4FBE4FBE4FBE4FBE4FBE4FBE4FBE4FB5F
S1131D88E4FBE4FBE4FBE4FBE4FBE4FBE4FBE4FB4F
S1131D98E4FBE4FBE4FBE4FBE4FBE4FBE4FBE4FB3F
S1131DA8FFFFE4FBE4FBE4FBE4FBE4FBE4FBE4FB10
S1131DB8E4FBE4FBE4FBE4FBE4FBE4FBE4FBE4FB1F
S1131DC8E4FBE4FBE4FBE4FBE4FBE4FBE4FBE4FB0F
S1131DD8E4FBE4FBE4FBE4FBE4FBE4FBE4FBFFFFE0
S1131DE8E4FBE4FBE4FBE4FBE4FBE4FBE4FBE4FBEF
S1131DF8E4FBE4FBE4FBE4FBE4FBE4FBE4FBE4FBDF
S1131E08E4FBE4FBE4FBE4FBE4FBE4FBE4FBE4FBCE
S1131E18E4FBE4FBE4FBFFFFFFFFE4FBE4FBE4FB80
S1131E28E4FBE4FBE4FBE4FBE4FBE4FBE4FBE4FBAE
S1131E38E4FBE4FBE4FBE4FBE4FBE4FBE4FBE4FB9E
S1131E48E4FBE4FBE4FBE4FBE4FBE4FBE4FBE4FB8E
S1131E58E4FBE4FBFFFFE4FBE4FBE4FBE4FBE4FB5F
S1131E68E4FBE4FBE4FBE4FBE4FBE4FBE4FBE4FB6E
S1131E78E4FBE4FBE4FBE4FBE4FBE4FBE4FBE4FB5E
S1131E88E4FBE4FBE4FBE4FBE4FBE4FBE4FBE4FB4E
S1131E98E4FBFFFFE4FBE4FBE4FBE4FBE4FBE4FB1F
S1131EA8E4FBE4FBE4FBE4FBE4FBE4FBE4FBE4FB2E
S1131EB8E4FBE4FBE4FBE4FBE4FBE4FBE4FBE4FB1E
S1131EC8E4FBE4FBE4FBE4FBE4FBFFFFFFFFE4FBD0
S1131ED8E4FBE4FBE4FBE4FBE4FBE4FBE4FBE4FBFE
S1131EE8E4FBE4FBE4FBE4FBE4FBE4FBE4FBE4FBEE
S1131EF8E4FBE4FBE4FBE4FBE4FBE4FBE4FBE4FBDE
S1131F08E4FBE4FBE4FBE4FBFFFFE4FBE4FBE4FBAE
S1131F18E4FBE4FBE4FBE4FBE4FBE4FBE4FBE4FBBD
S1131F28E4FBE4FBE4FBE4FBE4FBE4FBE4FBE4FBAD
S1131F38E4FBE4FBE4FBE4FBE4FBE4FBE4FBE4FB9D
S1131F48E4FBE4FBE4FBFFFFE4FBE4FBE4FBE4FB6E
S1131F58E4FBE4FBE4FBE4FBE4FBE4FBE4FBE4FB7D
S1131F68E4FBE4FBE4FBE4FBE4FBE4FBE4FBE4FB6D
S1131F78E4FBE4FBE4FBE4FBE4FBE4FBE4FBFFFF3E
S1131F88FFFFE4FBE4FBE4FBE4FBE4FBE4FBE4FB2E
S1131F98E4FBE4FBE4FBE4FBE4FBE4FBE4FBE4FB3D
S1131FA8E4FBE4FBE4FBE4FBE4FBE4FBE4FBE4FB2D
S1131FB8E4FBE4FBE4FBE4FBE4FBE4FBFFFFE4FBFE
S1131FC8E4FBE4FBE4FBE4FBE4FBE4FBE4FBE4FB0D
S1131FD8E4FBE4FBE4FBE4FBE4FBE4FBE4FBE4FBFD
S1131FE8E4FBE4FBE4FBE4FBE4FBE4FBE4FBE4FBED
S1131FF8E4FBE4FBE4FBE4FBE4FBFFFFE4FBE4FBBE
S1132008E4FBE4FBE4FBE4FBE4FBE4FBE4FBE4FBCC
S1132018E4FBE4FBE4FBE4FBE4FBE4FBE4FBE4FBBC
S1132028E4FBE4FBE4FBE4FBE4FBE4FBE4FBE4FBAC
S1132038E4FBFFFFFFFFE4FBE4FBE4FBE4FBE4FB5E
S1132048E4FBE4FBE4FBE4FBE4FBE4FBE4FBE4FB8C
S1132058E4FBE4FBE4FBE4FBE4FBE4FBE4FBE4FB7C
S1132068E4FBE4FBE4FBE4FBE4FBE4FBE4FBE4FB6C
S1132078FFFFE4FBE4FBE4FBE4FBE4FBE4FBE4FB3D
S1132088E4FBE4FBE4FBE4FBE4FBE4FBE4FBE4FB4C
S1132098E4FBE4FBE4FBE4FBE4FBE4FBE4FBE4FB3C
S11320A8E4FBE4FBE4FBE4FBE4FBE4FBE4FBFFFF0D
S11320B8E4FBE4FBE4FBE4FBE4FBE4FBE4FBE4FB1C
S11320C8E4FBE4FBE4FBE4FBE4FBE4FBE4FBE4FB0C
S11320D8E4FBE4FBE4FBE4FBE4FBE4FBE4FBE4FBFC
S11320E8E4FBE4FBE4FBFFFFFFFFE4FBE4FBE4FBAE
S11320F8E4FBE4FBE4FBE4FBE4FBE4FBE4FBE4FBDC
S1132108E4FBE4FBE4FBE4FBE4FBE4FBE4FBE4FBCB
S1132118E4FBE4FBE4FBE4FBE4FBE4FBE4FBE4FBBB
S1132128E4FBE4FBFFFFE4FBE4FBE4FBE4FBE4FB8C
S1132138E4FBE4FBE4FBE4FBE4FBE4FBE4FBE4FB9B
S1132148E4FBE4FBE4FBE4FBE4FBE4FBE4FBE4FB8B
S1132158E4FBE4FBE4FBE4FBE4FBE4FBE4FBE4FB7B
S1132168E4FBFFFFE4FBE4FBE4FBE4FBE4FBE4FB4C
S1132178E4FBE4FBE4FBE4FBE4FBE4FBE4FBE4FB5B
S1132188E4FBE4FBE4FBE4FBE4FBE4FBE4FBE4FB4B
S1132198E4FBE4FBE4FBE4FBE4FBFFFFFFFFE4FBFD
S11321A8E4FBE4FBE4FBE4FBE4FBE4FBE4FBE4FB2B
S11321B8E4FBE4FBE4FBE4FBE4FBE4FBE4FBE4FB1B
S11321C8E4FBE4FBE4FBE4FBE4FBE4FBE4FBE4FB0B
S11321D8E4FBE4FBE4FBE4FBFFFFE4FBE4FBE4FBDC
S11321E8E4FBE4FBE4FBE4FBE4FBE4FBE4FBE4FBEB
S11321F8E4FBE4FBE4FBE4FBE4FBE4FBE4FBE4FBDB
S1132208E4FBE4FBE4FBE4FBE4FBE4FBE4FBE4FBCA
S1132218E4FBE4FBE4FBFFFFE4FBE4FBE4FBE4FB9B
S1132228E4FBE4FBE4FBE4FBE4FBE4FBE4FBE4FBAA
S1132238E4FBE4FBE4FBE4FBE4FBE4FBE4FBE4FB9A
S1132248E4FBE4FBE4FBE4FBE4FBE4FBE4FBFFFF6B
S1132258FFFFE4FBE4FBE4FBE4FBE4FBE4FBE4FB5B
S1132268E4FBE4FBE4FBE4FBE4FBE4FBE4FBE4FB6A
S1132278E4FBE4FBE4FBE4FBE4FBE4FBE4FBE4FB5A
S1132288E4FBE4FBE4FBE4FBE4FBE4FBFFFFE4FB2B
S1132298E4FBE4FBE4FBE4FBE4FBE4FBE4FBE4FB3A
S11322A8E4FBE4FBE4FBE4FBE4FBE4FBE4FBE4FB2A
S11322B8E4FBE4FBE4FBE4FBE4FBE4FBE4FBE4FB1A
S11322C8E4FBE4FBE4FBE4FBE4FBFFFFE4FBE4FBEB
S11322D8E4FBE4FBE4FBE4FBE4FBE4FBE4FBE4FBFA
S11322E8E4FBE4FBE4FBE4FBE4FBE4FBE4FBE4FBEA
S11322F8E4FBE4FBE4FBE4FBE4FBE4FBE4FBE4FBDA
S1132308E4FBFFFFFFFFE4FBE4FBE4FBE4FBE4FB8B
S1132318E4FBE4FBE4FBE4FBE4FBE4FBE4FBE4FBB9
S1132328E4FBE4FBE4FBE4FBE4FBE4FBE4FBE4FBA9
S1132338E4FBE4FBE4FBE4FBE4FBE4FBE4FBE4FB99
S1132348FFFFE4FBE4FBE4FBE4FBE4FBE4FBE4FB6A
S1132358E4FBE4FBE4FBE4FBE4FBE4FBE4FBE4FB79
S1132368E4FBE4FBE4FBE4FBE4FBE4FBE4FBE4FB69
S1132378E4FBE4FBE4FBE4FBE4FBE4FBE4FBFFFF3A
S1132388E4FBE4FBE4FBE4FBE4FBE4FBE4FBE4FB49
S1132398E4FBE4FBE4FBE4FBE4FBE4FBE4FBE4FB39
S11323A8E4FBE4FBE4FBE4FBE4FBE4FBE4FBE4FB29
S11323B8E4FBE4FBE4FBFFFFFFFFFFFFFFFFFFFF7E
S11323C8FFFFFFFFFFFFFFFFFFFFFFFFFFFFFFFF11
S11323D8FFFFFFFFFFFFFFFFFFFFFFFFFFFFFFFF01
S11323E8FFFFFFFFFFFFFFFFFFFFFFFFFFFFFFFFF1
S11323F8FFFFFFFFFFFFFFFFFFFFFFFFFFFFFFFFE1
S1132408FFFFFFFFFFFFFFFFFFFFFFFFFFFFFFFFD0
S1132418FFFFFFFFFFFFFFFFFFFFFFFFFFFFFFFFC0
S1132428FFFFFFFFFFFFFFFFFFFFFFFFFFFFFFFFB0
S1132438FFFFFFFFFFFFFFFFFFFFFFFFFFFFFFFFA0
S1132448FFFFFFFFFFFFFFFFFFFFFFFFFFFFFFFF90
S1132458FFFFFFFFFFFFFFFFFFFFFFFFFFFFFFFF80
S1132468FFFFFFFFFFFFFFFFFFFFFFFFFFFFE4FB8F
S1132478E4FBE4FBE4FBE4FBE4FBE4FBE4FBE4FB58
S1132488E4FBE4FBE4FBE4FBE4FBE4FBE4FBE4FB48
S1132498E4FBE4FBE4FBE4FBE4FBE4FBE4FBE4FB38
S11324A8E4FBE4FBE4FBE4FBFFFFE4FBE4FBE4FB09
S11324B8E4FBE4FBE4FBE4FBE4FBE4FBE4FBE4FB18
S11324C8E4FBE4FBE4FBE4FBE4FBE4FBE4FBE4FB08
S11324D8E4FBE4FBE4FBE4FBE4FBE4FBE4FBE4FBF8
S11324E8E4FBE4FBE4FBFFFFE4FBE4FBE4FBE4FBC9
S11324F8E4FBE4FBE4FBE4FBE4FBE4FBE4FBE4FBD8
S1132508E4FBE4FBE4FBE4FBE4FBE4FBE4FBE4FBC7
S1132518E4FBE4FBE4FBE4FBE4FBE4FBE4FBFFFF98
S1132528FFFFE4FBE4FBE4FBE4FBE4FBE4FBE4FB88
S1132538E4FBE4FBE4FBE4FBE4FBE4FBE4FBE4FB97
S1132548E4FBE4FBE4FBE4FBE4FBE4FBE4FBE4FB87
S1132558E4FBE4FBE4FBE4FBE4FBE4FBFFFFE4FB58
S1132568E4FBE4FBE4FBE4FBE4FBE4FBE4FBE4FB67
S1132578E4FBE4FBE4FBE4FBE4FBE4FBE4FBE4FB57
S1132588E4FBE4FBE4FBE4FBE4FBE4FBE4FBE4FB47
S1132598E4FBE4FBE4FBE4FBE4FBFFFFE4FBE4FB18
S11325A8E4FBE4FBE4FBE4FBE4FBE4FBE4FBE4FB27
S11325B8E4FBE4FBE4FBE4FBE4FBE4FBE4FBE4FB17
S11325C8E4FBE4FBE4FBE4FBE4FBE4FBE4FBE4FB07
S11325D8E4FBFFFFFFFFE4FBE4FBE4FBE4FBE4FBB9
S11325E8E4FBE4FBE4FBE4FBE4FBE4FBE4FBE4FBE7
S11325F8E4FBE4FBE4FBE4FBE4FBE4FBE4FBE4FBD7
S1132608E4FBE4FBE4FBE4FBE4FBE4FBE4FBE4FBC6
S1132618FFFFE4FBE4FBE4FBE4FBE4FBE4FBE4FB97
S1132628E4FBE4FBE4FBE4FBE4FBE4FBE4FBE4FBA6
S1132638E4FBE4FBE4FBE4FBE4FBE4FBE4FBE4FB96
S1132648E4FBE4FBE4FBE4FBE4FBE4FBE4FBFFFF67
S1132658E4FBE4FBE4FBE4FBE4FBE4FBE4FBE4FB76
S1132668E4FBE4FBE4FBE4FBE4FBE4FBE4FBE4FB66
S1132678E4FBE4FBE4FBE4FBE4FBE4FBE4FBE4FB56
S1132688E4FBE4FBE4FBFFFFFFFFE4FBE4FBE4FB08
S1132698E4FBE4FBE4FBE4FBE4FBE4FBE4FBE4FB36
S11326A8E4FBE4FBE4FBE4FBE4FBE4FBE4FBE4FB26
S11326B8E4FBE4FBE4FBE4FBE4FBE4FBE4FBE4FB16
S11326C8E4FBE4FBFFFFE4FBE4FBE4FBE4FBE4FBE7
S11326D8E4FBE4FBE4FBE4FBE4FBE4FBE4FBE4FBF6
S11326E8E4FBE4FBE4FBE4FBE4FBE4FBE4FBE4FBE6
S11326F8E4FBE4FBE4FBE4FBE4FBE4FBE4FBE4FBD6
S1132708E4FBFFFFE4FBE4FBE4FBE4FBE4FBE4FBA6
S1132718E4FBE4FBE4FBE4FBE4FBE4FBE4FBE4FBB5
S1132728E4FBE4FBE4FBE4FBE4FBE4FBE4FBE4FBA5
S1132738E4FBE4FBE4FBE4FBE4FBFFFFFFFFE4FB57
S1132748E4FBE4FBE4FBE4FBE4FBE4FBE4FBE4FB85
S1132758E4FBE4FBE4FBE4FBE4FBE4FBE4FBE4FB75
S1132768E4FBE4FBE4FBE4FBE4FBE4FBE4FBE4FB65
S1132778E4FBE4FBE4FBE4FBFFFFE4FBE4FBE4FB36
S1132788E4FBE4FBE4FBE4FBE4FBE4FBE4FBE4FB45
S1132798E4FBE4FBE4FBE4FBE4FBE4FBE4FBE4FB35
S11327A8E4FBE4FBE4FBE4FBE4FBE4FBE4FBE4FB25
S11327B8E4FBE4FBE4FBFFFFE4FBE4FBE4FBE4FBF6
S11327C8E4FBE4FBE4FBE4FBE4FBE4FBE4FBE4FB05
S11327D8E4FBE4FBE4FBE4FBE4FBE4FBE4FBE4FBF5
S11327E8E4FBE4FBE4FBE4FBE4FBE4FBE4FBFFFFC6
S11327F8FFFFE4FBE4FBE4FBE4FBE4FBE4FBE4FBB6
S1132808E4FBE4FBE4FBE4FBE4FBE4FBE4FBE4FBC4
S1132818E4FBE4FBE4FBE4FBE4FBE4FBE4FBE4FBB4
S1132828E4FBE4FBE4FBE4FBE4FBE4FBFFFFE4FB85
S1132838E4FBE4FBE4FBE4FBE4FBE4FBE4FBE4FB94
S1132848E4FBE4FBE4FBE4FBE4FBE4FBE4FBE4FB84
S1132858E4FBE4FBE4FBE4FBE4FBE4FBE4FBE4FB74
S1132868E4FBE4FBE4FBE4FBE4FBFFFFE4FBE4FB45
S1132878E4FBE4FBE4FBE4FBE4FBE4FBE4FBE4FB54
S1132888E4FBE4FBE4FBE4FBE4FBE4FBE4FBE4FB44
S1132898E4FBE4FBE4FBE4FBE4FBE4FBE4FBE4FB34
S11328A8E4FBFFFFFFFFE4FBE4FBE4FBE4FBE4FBE6
S11328B8E4FBE4FBE4FBE4FBE4FBE4FBE4FBE4FB14
S11328C8E4FBE4FBE4FBE4FBE4FBE4FBE4FBE4FB04
S11328D8E4FBE4FBE4FBE4FBE4FBE4FBE4FBE4FBF4
S11328E8FFFFE4FBE4FBE4FBE4FBE4FBE4FBE4FBC5
S11328F8E4FBE4FBE4FBE4FBE4FBE4FBE4FBE4FBD4
S1132908E4FBE4FBE4FBE4FBE4FBE4FBE4FBE4FBC3
S1132918E4FBE4FBE4FBE4FBE4FBE4FBE4FBFFFF94
S1132928E4FBE4FBE4FBE4FBE4FBE4FBE4FBE4FBA3
S1132938E4FBE4FBE4FBE4FBE4FBE4FBE4FBE4FB93
S1132948E4FBE4FBE4FBE4FBE4FBE4FBE4FBE4FB83
S1132958E4FBE4FBE4FBFFFFFFFFE4FBE4FBE4FB35
S1132968E4FBE4FBE4FBE4FBE4FBE4FBE4FBE4FB63
S1132978E4FBE4FBE4FBE4FBE4FBE4FBE4FBE4FB53
S1132988E4FBE4FBE4FBE4FBE4FBE4FBE4FBE4FB43
S1132998E4FBE4FBFFFFE4FBE4FBE4FBE4FBE4FB14
S11329A8E4FBE4FBE4FBE4FBE4FBE4FBE4FBE4FB23
S11329B8E4FBE4FBE4FBE4FBE4FBE4FBE4FBE4FB13
S11329C8E4FBE4FBE4FBE4FBE4FBE4FBE4FBE4FB03
S11329D8E4FBFFFFE4FBE4FBE4FBE4FBE4FBE4FBD4
S11329E8E4FBE4FBE4FBE4FBE4FBE4FBE4FBE4FBE3
S11329F8E4FBE4FBE4FBE4FBE4FBE4FBE4FBE4FBD3
S1132A08E4FBE4FBE4FBE4FBE4FBFFFFFFFFE4FB84
S1132A18E4FBE4FBE4FBE4FBE4FBE4FBE4FBE4FBB2
S1132A28E4FBE4FBE4FBE4FBE4FBE4FBE4FBE4FBA2
S1132A38E4FBE4FBE4FBE4FBE4FBE4FBE4FBE4FB92
S1132A48E4FBE4FBE4FBE4FBFFFFE4FBE4FBE4FB63
S1132A58E4FBE4FBE4FBE4FBE4FBE4FBE4FBE4FB72
S1132A68E4FBE4FBE4FBE4FBE4FBE4FBE4FBE4FB62
S1132A78E4FBE4FBE4FBE4FBE4FBE4FBE4FBE4FB52
S1132A88E4FBE4FBE4FBFFFFE4FBE4FBE4FBE4FB23
S1132A98E4FBE4FBE4FBE4FBE4FBE4FBE4FBE4FB32
S1132AA8E4FBE4FBE4FBE4FBE4FBE4FBE4FBE4FB22
S1132AB8E4FBE4FBE4FBE4FBE4FBE4FBE4FBFFFFF3
S1132AC8FFFFE4FBE4FBE4FBE4FBE4FBE4FBE4FBE3
S1132AD8E4FBE4FBE4FBE4FBE4FBE4FBE4FBE4FBF2
S1132AE8E4FBE4FBE4FBE4FBE4FBE4FBE4FBE4FBE2
S1132AF8E4FBE4FBE4FBE4FBE4FBE4FBFFFFE4FBB3
S1132B08E4FBE4FBE4FBE4FBE4FBE4FBE4FBE4FBC1
S1132B18E4FBE4FBE4FBE4FBE4FBE4FBE4FBE4FBB1
S1132B28E4FBE4FBE4FBE4FBE4FBE4FBE4FBE4FBA1
S1132B38E4FBE4FBE4FBE4FBE4FBFFFFE4FBE4FB72
S1132B48E4FBE4FBE4FBE4FBE4FBE4FBE4FBE4FB81
S1132B58E4FBE4FBE4FBE4FBE4FBE4FBE4FBE4FB71
S1132B68E4FBE4FBE4FBE4FBE4FBE4FBE4FBE4FB61
S1132B78E4FBFFFFFFFFE4FBE4FBE4FBE4FBE4FB13
S1132B88E4FBE4FBE4FBE4FBE4FBE4FBE4FBE4FB41
S1132B98E4FBE4FBE4FBE4FBE4FBE4FBE4FBE4FB31
S1132BA8E4FBE4FBE4FBE4FBE4FBE4FBE4FBE4FB21
S1132BB8FFFFE4FBE4FBE4FBE4FBE4FBE4FBE4FBF2
S1132BC8E4FBE4FBE4FBE4FBE4FBE4FBE4FBE4FB01
S1132BD8E4FBE4FBE4FBE4FBE4FBE4FBE4FBE4FBF1
S1132BE8E4FBE4FBE4FBE4FBE4FBE4FBE4FBFFFFC2
S1132BF8E4FBE4FBE4FBE4FBE4FBE4FBE4FBE4FBD1
S1132C08E4FBE4FBE4FBE4FBE4FBE4FBE4FBE4FBC0
S1132C18E4FBE4FBE4FBE4FBE4FBE4FBE4FBE4FBB0
S1132C28E4FBE4FBE4FBFFFFFFFFE4FBE4FBE4FB62
S1132C38E4FBE4FBE4FBE4FBE4FBE4FBE4FBE4FB90
S1132C48E4FBE4FBE4FBE4FBE4FBE4FBE4FBE4FB80
S1132C58E4FBE4FBE4FBE4FBE4FBE4FBE4FBE4FB70
S1132C68E4FBE4FBFFFFE4FBE4FBE4FBE4FBE4FB41
S1132C78E4FBE4FBE4FBE4FBE4FBE4FBE4FBE4FB50
S1132C88E4FBE4FBE4FBE4FBE4FBE4FBE4FBE4FB40
S1132C98E4FBE4FBE4FBE4FBE4FBE4FBE4FBE4FB30
S1132CA8E4FBFFFFE4FBE4FBE4FBE4FBE4FBE4FB01
S1132CB8E4FBE4FBE4FBE4FBE4FBE4FBE4FBE4FB10
S1132CC8E4FBE4FBE4FBE4FBE4FBE4FBE4FBE4FB00
S1132CD8E4FBE4FBE4FBE4FBE4FBFFFFFFFFE4FBB2
S1132CE8E4FBE4FBE4FBE4FBE4FBE4FBE4FBE4FBE0
S1132CF8E4FBE4FBE4FBE4FBE4FBE4FBE4FBE4FBD0
S1132D08E4FBE4FBE4FBE4FBE4FBE4FBE4FBE4FBBF
S1132D18E4FBE4FBE4FBE4FBFFFFE4FBE4FBE4FB90
S1132D28E4FBE4FBE4FBE4FBE4FBE4FBE4FBE4FB9F
S1132D38E4FBE4FBE4FBE4FBE4FBE4FBE4FBE4FB8F
S1132D48E4FBE4FBE4FBE4FBE4FBE4FBE4FBE4FB7F
S1132D58E4FBE4FBE4FBFFFFE4FBE4FBE4FBE4FB50
S1132D68E4FBE4FBE4FBE4FBE4FBE4FBE4FBE4FB5F
S1132D78E4FBE4FBE4FBE4FBE4FBE4FBE4FBE4FB4F
S1132D88E4FBE4FBE4FBE4FBE4FBE4FBE4FBFFFF20
S1132D98FFFFE4FBE4FBE4FBE4FBE4FBE4FBE4FB10
S1132DA8E4FBE4FBE4FBE4FBE4FBE4FBE4FBE4FB1F
S1132DB8E4FBE4FBE4FBE4FBE4FBE4FBE4FBE4FB0F
S1132DC8E4FBE4FBE4FBE4FBE4FBE4FBFFFFE4FBE0
S1132DD8E4FBE4FBE4FBE4FBE4FBE4FBE4FBE4FBEF
S1132DE8E4FBE4FBE4FBE4FBE4FBE4FBE4FBE4FBDF
S1132DF8E4FBE4FBE4FBE4FBE4FBE4FBE4FBE4FBCF
S1132E08E4FBE4FBE4FBE4FBE4FBFFFFE4FBE4FB9F
S1132E18E4FBE4FBE4FBE4FBE4FBE4FBE4FBE4FBAE
S1132E28E4FBE4FBE4FBE4FBE4FBE4FBE4FBE4FB9E
S1132E38E4FBE4FBE4FBE4FBE4FBE4FBE4FBE4FB8E
S1132E48E4FBFFFFFFFFE4FBE4FBE4FBE4FBE4FB40
S1132E58E4FBE4FBE4FBE4FBE4FBE4FBE4FBE4FB6E
S1132E68E4FBE4FBE4FBE4FBE4FBE4FBE4FBE4FB5E
S1132E78E4FBE4FBE4FBE4FBE4FBE4FBE4FBE4FB4E
S1132E88FFFFE4FBE4FBE4FBE4FBE4FBE4FBE4FB1F
S1132E98E4FBE4FBE4FBE4FBE4FBE4FBE4FBE4FB2E
S1132EA8E4FBE4FBE4FBE4FBE4FBE4FBE4FBE4FB1E
S1132EB8E4FBE4FBE4FBE4FBE4FBE4FBE4FBFFFFEF
S1132EC8E4FBE4FBE4FBE4FBE4FBE4FBE4FBE4FBFE
S1132ED8E4FBE4FBE4FBE4FBE4FBE4FBE4FBE4FBEE
S1132EE8E4FBE4FBE4FBE4FBE4FBE4FBE4FBE4FBDE
S1132EF8E4FBE4FBE4FBFFFFFFFFE4FBE4FBE4FB90
S1132F08E4FBE4FBE4FBE4FBE4FBE4FBE4FBE4FBBD
S1132F18E4FBE4FBE4FBE4FBE4FBE4FBE4FBE4FBAD
S1132F28E4FBE4FBE4FBE4FBE4FBE4FBE4FBE4FB9D
S1132F38E4FBE4FBFFFFE4FBE4FBE4FBE4FBE4FB6E
S1132F48E4FBE4FBE4FBE4FBE4FBE4FBE4FBE4FB7D
S1132F58E4FBE4FBE4FBE4FBE4FBE4FBE4FBE4FB6D
S1132F68E4FBE4FBE4FBE4FBE4FBE4FBE4FBE4FB5D
S1132F78E4FBFFFFE4FBE4FBE4FBE4FBE4FBE4FB2E
S1132F88E4FBE4FBE4FBE4FBE4FBE4FBE4FBE4FB3D
S1132F98E4FBE4FBE4FBE4FBE4FBE4FBE4FBE4FB2D
S1132FA8E4FBE4FBE4FBE4FBE4FBFFFFFFFFE4FBDF
S1132FB8E4FBE4FBE4FBE4FBE4FBE4FBE4FBE4FB0D
S1132FC8E4FBE4FBE4FBE4FBE4FBE4FBE4FBE4FBFD
S1132FD8E4FBE4FBE4FBE4FBE4FBE4FBE4FBE4FBED
S1132FE8E4FBE4FBE4FBE4FBFFFFE4FBE4FBE4FBBE
S1132FF8E4FBE4FBE4FBE4FBE4FBE4FBE4FBE4FBCD
S1133008E4FBE4FBE4FBE4FBE4FBE4FBE4FBE4FBBC
S1133018E4FBE4FBE4FBE4FBE4FBE4FBE4FBE4FBAC
S1133028E4FBE4FBE4FBFFFFE4FBE4FBE4FBE4FB7D
S1133038E4FBE4FBE4FBE4FBE4FBE4FBE4FBE4FB8C
S1133048E4FBE4FBE4FBE4FBE4FBE4FBE4FBE4FB7C
S1133058E4FBE4FBE4FBE4FBE4FBE4FBE4FBFFFF4D
S1133068FFFFE4FBE4FBE4FBE4FBE4FBE4FBE4FB3D
S1133078E4FBE4FBE4FBE4FBE4FBE4FBE4FBE4FB4C
S1133088E4FBE4FBE4FBE4FBE4FBE4FBE4FBE4FB3C
S1133098E4FBE4FBE4FBE4FBE4FBE4FBFFFFE4FB0D
S11330A8E4FBE4FBE4FBE4FBE4FBE4FBE4FBE4FB1C
S11330B8E4FBE4FBE4FBE4FBE4FBE4FBE4FBE4FB0C
S11330C8E4FBE4FBE4FBE4FBE4FBE4FBE4FBE4FBFC
S11330D8E4FBE4FBE4FBE4FBE4FBFFFFE4FBE4FBCD
S11330E8E4FBE4FBE4FBE4FBE4FBE4FBE4FBE4FBDC
S11330F8E4FBE4FBE4FBE4FBE4FBE4FBE4FBE4FBCC
S1133108E4FBE4FBE4FBE4FBE4FBE4FBE4FBE4FBBB
S1133118E4FBFFFFFFFFE4FBE4FBE4FBE4FBE4FB6D
S1133128E4FBE4FBE4FBE4FBE4FBE4FBE4FBE4FB9B
S1133138E4FBE4FBE4FBE4FBE4FBE4FBE4FBE4FB8B
S1133148E4FBE4FBE4FBE4FBE4FBE4FBE4FBE4FB7B
S1133158FFFFE4FBE4FBE4FBE4FBE4FBE4FBE4FB4C
S1133168E4FBE4FBE4FBE4FBE4FBE4FBE4FBE4FB5B
S1133178E4FBE4FBE4FBE4FBE4FBE4FBE4FBE4FB4B
S1133188E4FBE4FBE4FBE4FBE4FBE4FBE4FBFFFF1C
S1133198E4FBE4FBE4FBE4FBE4FBE4FBE4FBE4FB2B
S11331A8E4FBE4FBE4FBE4FBE4FBE4FBE4FBE4FB1B
S11331B8E4FBE4FBE4FBE4FBE4FBE4FBE4FBE4FB0B
S11331C8E4FBE4FBE4FBFFFFFFFFE4FBE4FBE4FBBD
S11331D8E4FBE4FBE4FBE4FBE4FBE4FBE4FBE4FBEB
S11331E8E4FBE4FBE4FBE4FBE4FBE4FBE4FBE4FBDB
S11331F8E4FBE4FBE4FBE4FBE4FBE4FBE4FBE4FBCB
S1133208E4FBE4FBFFFFE4FBE4FBE4FBE4FBE4FB9B
S1133218E4FBE4FBE4FBE4FBE4FBE4FBE4FBE4FBAA
S1133228E4FBE4FBE4FBE4FBE4FBE4FBE4FBE4FB9A
S1133238E4FBE4FBE4FBE4FBE4FBE4FBE4FBE4FB8A
S1133248E4FBFFFFE4FBE4FBE4FBE4FBE4FBE4FB5B
S1133258E4FBE4FBE4FBE4FBE4FBE4FBE4FBE4FB6A
S1133268E4FBE4FBE4FBE4FBE4FBE4FBE4FBE4FB5A
S1133278E4FBE4FBE4FBE4FBE4FBFFFFFFFFE4FB0C
S1133288E4FBE4FBE4FBE4FBE4FBE4FBE4FBE4FB3A
S1133298E4FBE4FBE4FBE4FBE4FBE4FBE4FBE4FB2A
S11332A8E4FBE4FBE4FBE4FBE4FBE4FBE4FBE4FB1A
S11332B8E4FBE4FBE4FBE4FBFFFFE4FBE4FBE4FBEB
S11332C8E4FBE4FBE4FBE4FBE4FBE4FBE4FBE4FBFA
S11332D8E4FBE4FBE4FBE4FBE4FBE4FBE4FBE4FBEA
S11332E8E4FBE4FBE4FBE4FBE4FBE4FBE4FBE4FBDA
S11332F8E4FBE4FBE4FBFFFFE4FBE4FBE4FBE4FBAB
S1133308E4FBE4FBE4FBE4FBE4FBE4FBE4FBE4FBB9
S1133318E4FBE4FBE4FBE4FBE4FBE4FBE4FBE4FBA9
S1133328E4FBE4FBE4FBE4FBE4FBE4FBE4FBFFFF7A
S1133338FFFFE4FBE4FBE4FBE4FBE4FBE4FBE4FB6A
S1133348E4FBE4FBE4FBE4FBE4FBE4FBE4FBE4FB79
S1133358E4FBE4FBE4FBE4FBE4FBE4FBE4FBE4FB69
S1133368E4FBE4FBE4FBE4FBE4FBE4FBFFFFE4FB3A
S1133378E4FBE4FBE4FBE4FBE4FBE4FBE4FBE4FB49
S1133388E4FBE4FBE4FBE4FBE4FBE4FBE4FBE4FB39
S1133398E4FBE4FBE4FBE4FBE4FBE4FBE4FBE4FB29
S11333A8E4FBE4FBE4FBE4FBE4FBFFFFE4FBE4FBFA
S11333B8E4FBE4FBE4FBE4FBE4FBE4FBE4FBE4FB09
S11333C8E4FBE4FBE4FBE4FBE4FBE4FBE4FBE4FBF9
S11333D8E4FBE4FBE4FBE4FBE4FBE4FBE4FBE4FBE9
S11333E8E4FBFFFFFFFFE4FBE4FBE4FBE4FBE4FB9B
S11333F8E4FBE4FBE4FBE4FBE4FBE4FBE4FBE4FBC9
S1133408E4FBE4FBE4FBE4FBE4FBE4FBE4FBE4FBB8
S1133418E4FBE4FBE4FBE4FBE4FBE4FBE4FBE4FBA8
S1133428FFFFE4FBE4FBE4FBE4FBE4FBE4FBE4FB79
S1133438E4FBE4FBE4FBE4FBE4FBE4FBE4FBE4FB88
S1133448E4FBE4FBE4FBE4FBE4FBE4FBE4FBE4FB78
S1133458E4FBE4FBE4FBE4FBE4FBE4FBE4FBFFFF49
S1133468E4FBE4FBE4FBE4FBE4FBE4FBE4FBE4FB58
S1133478E4FBE4FBE4FBE4FBE4FBE4FBE4FBE4FB48
S1133488E4FBE4FBE4FBE4FBE4FBE4FBE4FBE4FB38
S1133498E4FBE4FBE4FBFFFFFFFFE4FBE4FBE4FBEA
S11334A8E4FBE4FBE4FBE4FBE4FBE4FBE4FBE4FB18
S11334B8E4FBE4FBE4FBE4FBE4FBE4FBE4FBE4FB08
S11334C8E4FBE4FBE4FBE4FBE4FBE4FBE4FBE4FBF8
S11334D8E4FBE4FBFFFFE4FBE4FBE4FBE4FBE4FBC9
S11334E8E4FBE4FBE4FBE4FBE4FBE4FBE4FBE4FBD8
S11334F8E4FBE4FBE4FBE4FBE4FBE4FBE4FBE4FBC8
S1133508E4FBE4FBE4FBE4FBE4FBE4FBE4FBE4FBB7
S1133518E4FBFFFFE4FBE4FBE4FBE4FBE4FBE4FB88
S1133528E4FBE4FBE4FBE4FBE4FBE4FBE4FBE4FB97
S1133538E4FBE4FBE4FBE4FBE4FBE4FBE4FBE4FB87
S1133548E4FBE4FBE4FBE4FBE4FBFFFFFFFFE4FB39
S1133558E4FBE4FBE4FBE4FBE4FBE4FBE4FBE4FB67
S1133568E4FBE4FBE4FBE4FBE4FBE4FBE4FBE4FB57
S1133578E4FBE4FBE4FBE4FBE4FBE4FBE4FBE4FB47
S1133588E4FBE4FBE4FBE4FBFFFFE4FBE4FBE4FB18
S1133598E4FBE4FBE4FBE4FBE4FBE4FBE4FBE4FB27
S11335A8E4FBE4FBE4FBE4FBE4FBE4FBE4FBE4FB17
S11335B8E4FBE4FBE4FBE4FBE4FBE4FBE4FBE4FB07
S11335C8E4FBE4FBE4FBFFFFE4FBE4FBE4FBE4FBD8
S11335D8E4FBE4FBE4FBE4FBE4FBE4FBE4FBE4FBE7
S11335E8E4FBE4FBE4FBE4FBE4FBE4FBE4FBE4FBD7
S11335F8E4FBE4FBE4FBE4FBE4FBE4FBE4FBFFFFA8
S1133608FFFFE4FBE4FBE4FBE4FBE4FBE4FBE4FB97
S1133618E4FBE4FBE4FBE4FBE4FBE4FBE4FBE4FBA6
S1133628E4FBE4FBE4FBE4FBE4FBE4FBE4FBE4FB96
S1133638E4FBE4FBE4FBE4FBE4FBE4FBFFFFE4FB67
S1133648E4FBE4FBE4FBE4FBE4FBE4FBE4FBE4FB76
S1133658E4FBE4FBE4FBE4FBE4FBE4FBE4FBE4FB66
S1133668E4FBE4FBE4FBE4FBE4FBE4FBE4FBE4FB56
S1133678E4FBE4FBE4FBE4FBE4FBFFFFE4FBE4FB27
S1133688E4FBE4FBE4FBE4FBE4FBE4FBE4FBE4FB36
S1133698E4FBE4FBE4FBE4FBE4FBE4FBE4FBE4FB26
S11336A8E4FBE4FBE4FBE4FBE4FBE4FBE4FBE4FB16
S11336B8E4FBFFFFFFFFE4FBE4FBE4FBE4FBE4FBC8
S11336C8E4FBE4FBE4FBE4FBE4FBE4FBE4FBE4FBF6
S11336D8E4FBE4FBE4FBE4FBE4FBE4FBE4FBE4FBE6
S11336E8E4FBE4FBE4FBE4FBE4FBE4FBE4FBE4FBD6
S11336F8FFFFE4FBE4FBE4FBE4FBE4FBE4FBE4FBA7
S1133708E4FBE4FBE4FBE4FBE4FBE4FBE4FBE4FBB5
S1133718E4FBE4FBE4FBE4FBE4FBE4FBE4FBE4FBA5
S1133728E4FBE4FBE4FBE4FBE4FBE4FBE4FBFFFF76
S1133738E4FBE4FBE4FBE4FBE4FBE4FBE4FBE4FB85
S1133748E4FBE4FBE4FBE4FBE4FBE4FBE4FBE4FB75
S1133758E4FBE4FBE4FBE4FBE4FBE4FBE4FBE4FB65
S1133768E4FBE4FBE4FBFFFFFFFFE4FBE4FBE4FB17
S1133778E4FBE4FBE4FBE4FBE4FBE4FBE4FBE4FB45
S1133788E4FBE4FBE4FBE4FBE4FBE4FBE4FBE4FB35
S1133798E4FBE4FBE4FBE4FBE4FBE4FBE4FBE4FB25
S11337A8E4FBE4FBFFFFE4FBE4FBE4FBE4FBE4FBF6
S11337B8E4FBE4FBE4FBE4FBE4FBE4FBE4FBE4FB05
S11337C8E4FBE4FBE4FBE4FBE4FBE4FBE4FBE4FBF5
S11337D8E4FBE4FBE4FBE4FBE4FBE4FBE4FBE4FBE5
S11337E8E4FBFFFFE4FBE4FBE4FBE4FBE4FBE4FBB6
S11337F8E4FBE4FBE4FBE4FBE4FBE4FBE4FBE4FBC5
S1133808E4FBE4FBE4FBE4FBE4FBE4FBE4FBE4FBB4
S1133818E4FBE4FBE4FBE4FBE4FBFFFFFFFFE4FB66
S1133828E4FBE4FBE4FBE4FBE4FBE4FBE4FBE4FB94
S1133838E4FBE4FBE4FBE4FBE4FBE4FBE4FBE4FB84
S1133848E4FBE4FBE4FBE4FBE4FBE4FBE4FBE4FB74
S1133858E4FBE4FBE4FBE4FBFFFFE4FBE4FBE4FB45
S1133868E4FBE4FBE4FBE4FBE4FBE4FBE4FBE4FB54
S1133878E4FBE4FBE4FBE4FBE4FBE4FBE4FBE4FB44
S1133888E4FBE4FBE4FBE4FBE4FBE4FBE4FBE4FB34
S1133898E4FBE4FBE4FBFFFFE4FBE4FBE4FBE4FB05
S11338A8E4FBE4FBE4FBE4FBE4FBE4FBE4FBE4FB14
S11338B8E4FBE4FBE4FBE4FBE4FBE4FBE4FBE4FB04
S11338C8E4FBE4FBE4FBE4FBE4FBE4FBE4FBFFFFD5
S11338D8FFFFFFFFFFFFFFFFFFFFFFFFFFFFFFFFEC
S11338E8FFFFFFFFFFFFFFFFFFFFFFFFFFFFFFFFDC
S11338F8FFFFFFFFFFFFFFFFFFFFFFFFFFFFFFFFCC
S1133908FFFFFFFFFFFFFFFFFFFFFFFFFFFFFFFFBB
S1133918FFFFFFFFFFFFFFFFFFFFFFFFFFFFFFFFAB
S1133928FFFFFFFFFFFFFFFFFFFFFFFFFFFFFFFF9B
S1133938FFFFFFFFFFFFFFFFFFFFFFFFFFFFFFFF8B
S1133948FFFFFFFFFFFFFFFFFFFFFFFFFFFFFFFF7B
S1133958FFFFFFFFFFFFFFFFFFFFFFFFFFFFFFFF6B
S1133968FFFFFFFFFFFFFFFFFFFFFFFFFFFFFFFF5B
S1133978FFFFFFFFFFFFFFFFFFFFFFFFFFFFFFFF4B
S1133988FFFFFFFFFFFFE4FBE4FBE4FBE4FBE4FBD6
S1133998E4FBE4FBE4FBE4FBE4FBE4FBE4FBE4FB23
S11339A8E4FBE4FBE4FBE4FBE4FBE4FBE4FBE4FB13
S11339B8E4FBE4FBE4FBE4FBE4FBE4FBE4FBE4FB03
S11339C8FFFFE4FBE4FBE4FBE4FBE4FBE4FBE4FBD4
S11339D8E4FBE4FBE4FBE4FBE4FBE4FBE4FBE4FBE3
S11339E8E4FBE4FBE4FBE4FBE4FBE4FBE4FBE4FBD3
S11339F8E4FBE4FBE4FBE4FBE4FBE4FBE4FBFFFFA4
S1133A08E4FBE4FBE4FBE4FBE4FBE4FBE4FBE4FBB2
S1133A18E4FBE4FBE4FBE4FBE4FBE4FBE4FBE4FBA2
S1133A28E4FBE4FBE4FBE4FBE4FBE4FBE4FBE4FB92
S1133A38E4FBE4FBE4FBFFFFFFFFE4FBE4FBE4FB44
S1133A48E4FBE4FBE4FBE4FBE4FBE4FBE4FBE4FB72
S1133A58E4FBE4FBE4FBE4FBE4FBE4FBE4FBE4FB62
S1133A68E4FBE4FBE4FBE4FBE4FBE4FBE4FBE4FB52
S1133A78E4FBE4FBFFFFE4FBE4FBE4FBE4FBE4FB23
S1133A88E4FBE4FBE4FBE4FBE4FBE4FBE4FBE4FB32
S1133A98E4FBE4FBE4FBE4FBE4FBE4FBE4FBE4FB22
S1133AA8E4FBE4FBE4FBE4FBE4FBE4FBE4FBE4FB12
S1133AB8E4FBFFFFE4FBE4FBE4FBE4FBE4FBE4FBE3
S1133AC8E4FBE4FBE4FBE4FBE4FBE4FBE4FBE4FBF2
S1133AD8E4FBE4FBE4FBE4FBE4FBE4FBE4FBE4FBE2
S1133AE8E4FBE4FBE4FBE4FBE4FBFFFFFFFFE4FB94
S1133AF8E4FBE4FBE4FBE4FBE4FBE4FBE4FBE4FBC2
S1133B08E4FBE4FBE4FBE4FBE4FBE4FBE4FBE4FBB1
S1133B18E4FBE4FBE4FBE4FBE4FBE4FBE4FBE4FBA1
S1133B28E4FBE4FBE4FBE4FBFFFFE4FBE4FBE4FB72
S1133B38E4FBE4FBE4FBE4FBE4FBE4FBE4FBE4FB81
S1133B48E4FBE4FBE4FBE4FBE4FBE4FBE4FBE4FB71
S1133B58E4FBE4FBE4FBE4FBE4FBE4FBE4FBE4FB61
S1133B68E4FBE4FBE4FBFFFFE4FBE4FBE4FBE4FB32
S1133B78E4FBE4FBE4FBE4FBE4FBE4FBE4FBE4FB41
S1133B88E4FBE4FBE4FBE4FBE4FBE4FBE4FBE4FB31
S1133B98E4FBE4FBE4FBE4FBE4FBE4FBE4FBFFFF02
S1133BA8FFFFE4FBE4FBE4FBE4FBE4FBE4FBE4FBF2
S1133BB8E4FBE4FBE4FBE4FBE4FBE4FBE4FBE4FB01
S1133BC8E4FBE4FBE4FBE4FBE4FBE4FBE4FBE4FBF1
S1133BD8E4FBE4FBE4FBE4FBE4FBE4FBFFFFE4FBC2
S1133BE8E4FBE4FBE4FBE4FBE4FBE4FBE4FBE4FBD1
S1133BF8E4FBE4FBE4FBE4FBE4FBE4FBE4FBE4FBC1
S1133C08E4FBE4FBE4FBE4FBE4FBE4FBE4FBE4FBB0
S1133C18E4FBE4FBE4FBE4FBE4FBFFFFE4FBE4FB81
S1133C28E4FBE4FBE4FBE4FBE4FBE4FBE4FBE4FB90
S1133C38E4FBE4FBE4FBE4FBE4FBE4FBE4FBE4FB80
S1133C48E4FBE4FBE4FBE4FBE4FBE4FBE4FBE4FB70
S1133C58E4FBFFFFFFFFE4FBE4FBE4FBE4FBE4FB22
S1133C68E4FBE4FBE4FBE4FBE4FBE4FBE4FBE4FB50
S1133C78E4FBE4FBE4FBE4FBE4FBE4FBE4FBE4FB40
S1133C88E4FBE4FBE4FBE4FBE4FBE4FBE4FBE4FB30
S1133C98FFFFE4FBE4FBE4FBE4FBE4FBE4FBE4FB01
S1133CA8E4FBE4FBE4FBE4FBE4FBE4FBE4FBE4FB10
S1133CB8E4FBE4FBE4FBE4FBE4FBE4FBE4FBE4FB00
S1133CC8E4FBE4FBE4FBE4FBE4FBE4FBE4FBFFFFD1
S1133CD8E4FBE4FBE4FBE4FBE4FBE4FBE4FBE4FBE0
S1133CE8E4FBE4FBE4FBE4FBE4FBE4FBE4FBE4FBD0
S1133CF8E4FBE4FBE4FBE4FBE4FBE4FBE4FBE4FBC0
S1133D08E4FBE4FBE4FBFFFFFFFFE4FBE4FBE4FB71
S1133D18E4FBE4FBE4FBE4FBE4FBE4FBE4FBE4FB9F
S1133D28E4FBE4FBE4FBE4FBE4FBE4FBE4FBE4FB8F
S1133D38E4FBE4FBE4FBE4FBE4FBE4FBE4FBE4FB7F
S1133D48E4FBE4FBFFFFE4FBE4FBE4FBE4FBE4FB50
S1133D58E4FBE4FBE4FBE4FBE4FBE4FBE4FBE4FB5F
S1133D68E4FBE4FBE4FBE4FBE4FBE4FBE4FBE4FB4F
S1133D78E4FBE4FBE4FBE4FBE4FBE4FBE4FBE4FB3F
S1133D88E4FBFFFFE4FBE4FBE4FBE4FBE4FBE4FB10
S1133D98E4FBE4FBE4FBE4FBE4FBE4FBE4FBE4FB1F
S1133DA8E4FBE4FBE4FBE4FBE4FBE4FBE4FBE4FB0F
S1133DB8E4FBE4FBE4FBE4FBE4FBFFFFFFFFE4FBC1
S1133DC8E4FBE4FBE4FBE4FBE4FBE4FBE4FBE4FBEF
S1133DD8E4FBE4FBE4FBE4FBE4FBE4FBE4FBE4FBDF
S1133DE8E4FBE4FBE4FBE4FBE4FBE4FBE4FBE4FBCF
S1133DF8E4FBE4FBE4FBE4FBFFFFE4FBE4FBE4FBA0
S1133E08E4FBE4FBE4FBE4FBE4FBE4FBE4FBE4FBAE
S1133E18E4FBE4FBE4FBE4FBE4FBE4FBE4FBE4FB9E
S1133E28E4FBE4FBE4FBE4FBE4FBE4FBE4FBE4FB8E
S1133E38E4FBE4FBE4FBFFFFE4FBE4FBE4FBE4FB5F
S1133E48E4FBE4FBE4FBE4FBE4FBE4FBE4FBE4FB6E
S1133E58E4FBE4FBE4FBE4FBE4FBE4FBE4FBE4FB5E
S1133E68E4FBE4FBE4FBE4FBE4FBE4FBE4FBFFFF2F
S1133E78FFFFE4FBE4FBE4FBE4FBE4FBE4FBE4FB1F
S1133E88E4FBE4FBE4FBE4FBE4FBE4FBE4FBE4FB2E
S1133E98E4FBE4FBE4FBE4FBE4FBE4FBE4FBE4FB1E
S1133EA8E4FBE4FBE4FBE4FBE4FBE4FBFFFFE4FBEF
S1133EB8E4FBE4FBE4FBE4FBE4FBE4FBE4FBE4FBFE
S1133EC8E4FBE4FBE4FBE4FBE4FBE4FBE4FBE4FBEE
S1133ED8E4FBE4FBE4FBE4FBE4FBE4FBE4FBE4FBDE
S1133EE8E4FBE4FBE4FBE4FBE4FBFFFFE4FBE4FBAF
S1133EF8E4FBE4FBE4FBE4FBE4FBE4FBE4FBE4FBBE
S1133F08E4FBE4FBE4FBE4FBE4FBE4FBE4FBE4FBAD
S1133F18E4FBE4FBE4FBE4FBE4FBE4FBE4FBE4FB9D
S1133F28E4FBFFFFFFFFE4FBE4FBE4FBE4FBE4FB4F
S1133F38E4FBE4FBE4FBE4FBE4FBE4FBE4FBE4FB7D
S1133F48E4FBE4FBE4FBE4FBE4FBE4FBE4FBE4FB6D
S1133F58E4FBE4FBE4FBE4FBE4FBE4FBE4FBE4FB5D
S1133F68FFFFE4FBE4FBE4FBE4FBE4FBE4FBE4FB2E
S1133F78E4FBE4FBE4FBE4FBE4FBE4FBE4FBE4FB3D
S1133F88E4FBE4FBE4FBE4FBE4FBE4FBE4FBE4FB2D
S1133F98E4FBE4FBE4FBE4FBE4FBE4FBE4FBFFFFFE
S1133FA8E4FBE4FBE4FBE4FBE4FBE4FBE4FBE4FB0D
S1133FB8E4FBE4FBE4FBE4FBE4FBE4FBE4FBE4FBFD
S1133FC8E4FBE4FBE4FBE4FBE4FBE4FBE4FBE4FBED
S1133FD8E4FBE4FBE4FBFFFFFFFFE4FBE4FBE4FB9F
S1133FE8E4FBE4FBE4FBE4FBE4FBE4FBE4FBE4FBCD
S1133FF8E4FBE4FBE4FBE4FBE4FBE4FBE4FBE4FBBD
S1134008E4FBE4FBE4FBE4FBE4FBE4FBE4FBE4FBAC
S1134018E4FBE4FBFFFFE4FBE4FBE4FBE4FBE4FB7D
S1134028E4FBE4FBE4FBE4FBE4FBE4FBE4FBE4FB8C
S1134038E4FBE4FBE4FBE4FBE4FBE4FBE4FBE4FB7C
S1134048E4FBE4FBE4FBE4FBE4FBE4FBE4FBE4FB6C
S1134058E4FBFFFFE4FBE4FBE4FBE4FBE4FBE4FB3D
S1134068E4FBE4FBE4FBE4FBE4FBE4FBE4FBE4FB4C
S1134078E4FBE4FBE4FBE4FBE4FBE4FBE4FBE4FB3C
S1134088E4FBE4FBE4FBE4FBE4FBFFFFFFFFE4FBEE
S1134098E4FBE4FBE4FBE4FBE4FBE4FBE4FBE4FB1C
S11340A8E4FBE4FBE4FBE4FBE4FBE4FBE4FBE4FB0C
S11340B8E4FBE4FBE4FBE4FBE4FBE4FBE4FBE4FBFC
S11340C8E4FBE4FBE4FBE4FBFFFFE4FBE4FBE4FBCD
S11340D8E4FBE4FBE4FBE4FBE4FBE4FBE4FBE4FBDC
S11340E8E4FBE4FBE4FBE4FBE4FBE4FBE4FBE4FBCC
S11340F8E4FBE4FBE4FBE4FBE4FBE4FBE4FBE4FBBC
S1134108E4FBE4FBE4FBFFFFE4FBE4FBE4FBE4FB8C
S1134118E4FBE4FBE4FBE4FBE4FBE4FBE4FBE4FB9B
S1134128E4FBE4FBE4FBE4FBE4FBE4FBE4FBE4FB8B
S1134138E4FBE4FBE4FBE4FBE4FBE4FBE4FBFFFF5C
S1134148FFFFE4FBE4FBE4FBE4FBE4FBE4FBE4FB4C
S1134158E4FBE4FBE4FBE4FBE4FBE4FBE4FBE4FB5B
S1134168E4FBE4FBE4FBE4FBE4FBE4FBE4FBE4FB4B
S1134178E4FBE4FBE4FBE4FBE4FBE4FBFFFFE4FB1C
S1134188E4FBE4FBE4FBE4FBE4FBE4FBE4FBE4FB2B
S1134198E4FBE4FBE4FBE4FBE4FBE4FBE4FBE4FB1B
S11341A8E4FBE4FBE4FBE4FBE4FBE4FBE4FBE4FB0B
S11341B8E4FBE4FBE4FBE4FBE4FBFFFFE4FBE4FBDC
S11341C8E4FBE4FBE4FBE4FBE4FBE4FBE4FBE4FBEB
S11341D8E4FBE4FBE4FBE4FBE4FBE4FBE4FBE4FBDB
S11341E8E4FBE4FBE4FBE4FBE4FBE4FBE4FBE4FBCB
S11341F8E4FBFFFFFFFFE4FBE4FBE4FBE4FBE4FB7D
S1134208E4FBE4FBE4FBE4FBE4FBE4FBE4FBE4FBAA
S1134218E4FBE4FBE4FBE4FBE4FBE4FBE4FBE4FB9A
S1134228E4FBE4FBE4FBE4FBE4FBE4FBE4FBE4FB8A
S1134238FFFFE4FBE4FBE4FBE4FBE4FBE4FBE4FB5B
S1134248E4FBE4FBE4FBE4FBE4FBE4FBE4FBE4FB6A
S1134258E4FBE4FBE4FBE4FBE4FBE4FBE4FBE4FB5A
S1134268E4FBE4FBE4FBE4FBE4FBE4FBE4FBFFFF2B
S1134278E4FBE4FBE4FBE4FBE4FBE4FBE4FBE4FB3A
S1134288E4FBE4FBE4FBE4FBE4FBE4FBE4FBE4FB2A
S1134298E4FBE4FBE4FBE4FBE4FBE4FBE4FBE4FB1A
S11342A8E4FBE4FBE4FBFFFFFFFFE4FBE4FBE4FBCC
S11342B8E4FBE4FBE4FBE4FBE4FBE4FBE4FBE4FBFA
S11342C8E4FBE4FBE4FBE4FBE4FBE4FBE4FBE4FBEA
S11342D8E4FBE4FBE4FBE4FBE4FBE4FBE4FBE4FBDA
S11342E8E4FBE4FBFFFFE4FBE4FBE4FBE4FBE4FBAB
S11342F8E4FBE4FBE4FBE4FBE4FBE4FBE4FBE4FBBA
S1134308E4FBE4FBE4FBE4FBE4FBE4FBE4FBE4FBA9
S1134318E4FBE4FBE4FBE4FBE4FBE4FBE4FBE4FB99
S1134328E4FBFFFFE4FBE4FBE4FBE4FBE4FBE4FB6A
S1134338E4FBE4FBE4FBE4FBE4FBE4FBE4FBE4FB79
S1134348E4FBE4FBE4FBE4FBE4FBE4FBE4FBE4FB69
S1134358E4FBE4FBE4FBE4FBE4FBFFFFFFFFE4FB1B
S1134368E4FBE4FBE4FBE4FBE4FBE4FBE4FBE4FB49
S1134378E4FBE4FBE4FBE4FBE4FBE4FBE4FBE4FB39
S1134388E4FBE4FBE4FBE4FBE4FBE4FBE4FBE4FB29
S1134398E4FBE4FBE4FBE4FBFFFFE4FBE4FBE4FBFA
S11343A8E4FBE4FBE4FBE4FBE4FBE4FBE4FBE4FB09
S11343B8E4FBE4FBE4FBE4FBE4FBE4FBE4FBE4FBF9
S11343C8E4FBE4FBE4FBE4FBE4FBE4FBE4FBE4FBE9
S11343D8E4FBE4FBE4FBFFFFE4FBE4FBE4FBE4FBBA
S11343E8E4FBE4FBE4FBE4FBE4FBE4FBE4FBE4FBC9
S11343F8E4FBE4FBE4FBE4FBE4FBE4FBE4FBE4FBB9
S1134408E4FBE4FBE4FBE4FBE4FBE4FBE4FBFFFF89
S1134418FFFFE4FBE4FBE4FBE4FBE4FBE4FBE4FB79
S1134428E4FBE4FBE4FBE4FBE4FBE4FBE4FBE4FB88
S1134438E4FBE4FBE4FBE4FBE4FBE4FBE4FBE4FB78
S1134448E4FBE4FBE4FBE4FBE4FBE4FBFFFFE4FB49
S1134458E4FBE4FBE4FBE4FBE4FBE4FBE4FBE4FB58
S1134468E4FBE4FBE4FBE4FBE4FBE4FBE4FBE4FB48
S1134478E4FBE4FBE4FBE4FBE4FBE4FBE4FBE4FB38
S1134488E4FBE4FBE4FBE4FBE4FBFFFFE4FBE4FB09
S1134498E4FBE4FBE4FBE4FBE4FBE4FBE4FBE4FB18
S11344A8E4FBE4FBE4FBE4FBE4FBE4FBE4FBE4FB08
S11344B8E4FBE4FBE4FBE4FBE4FBE4FBE4FBE4FBF8
S11344C8E4FBFFFFFFFFE4FBE4FBE4FBE4FBE4FBAA
S11344D8E4FBE4FBE4FBE4FBE4FBE4FBE4FBE4FBD8
S11344E8E4FBE4FBE4FBE4FBE4FBE4FBE4FBE4FBC8
S11344F8E4FBE4FBE4FBE4FBE4FBE4FBE4FBE4FBB8
S1134508FFFFE4FBE4FBE4FBE4FBE4FBE4FBE4FB88
S1134518E4FBE4FBE4FBE4FBE4FBE4FBE4FBE4FB97
S1134528E4FBE4FBE4FBE4FBE4FBE4FBE4FBE4FB87
S1134538E4FBE4FBE4FBE4FBE4FBE4FBE4FBFFFF58
S1134548E4FBE4FBE4FBE4FBE4FBE4FBE4FBE4FB67
S1134558E4FBE4FBE4FBE4FBE4FBE4FBE4FBE4FB57
S1134568E4FBE4FBE4FBE4FBE4FBE4FBE4FBE4FB47
S1134578E4FBE4FBE4FBFFFFFFFFE4FBE4FBE4FBF9
S1134588E4FBE4FBE4FBE4FBE4FBE4FBE4FBE4FB27
S1134598E4FBE4FBE4FBE4FBE4FBE4FBE4FBE4FB17
S11345A8E4FBE4FBE4FBE4FBE4FBE4FBE4FBE4FB07
S11345B8E4FBE4FBFFFFE4FBE4FBE4FBE4FBE4FBD8
S11345C8E4FBE4FBE4FBE4FBE4FBE4FBE4FBE4FBE7
S11345D8E4FBE4FBE4FBE4FBE4FBE4FBE4FBE4FBD7
S11345E8E4FBE4FBE4FBE4FBE4FBE4FBE4FBE4FBC7
S11345F8E4FBFFFFE4FBE4FBE4FBE4FBE4FBE4FB98
S1134608E4FBE4FBE4FBE4FBE4FBE4FBE4FBE4FBA6
S1134618E4FBE4FBE4FBE4FBE4FBE4FBE4FBE4FB96
S1134628E4FBE4FBE4FBE4FBE4FBFFFFFFFFE4FB48
S1134638E4FBE4FBE4FBE4FBE4FBE4FBE4FBE4FB76
S1134648E4FBE4FBE4FBE4FBE4FBE4FBE4FBE4FB66
S1134658E4FBE4FBE4FBE4FBE4FBE4FBE4FBE4FB56
S1134668E4FBE4FBE4FBE4FBFFFFE4FBE4FBE4FB27
S1134678E4FBE4FBE4FBE4FBE4FBE4FBE4FBE4FB36
S1134688E4FBE4FBE4FBE4FBE4FBE4FBE4FBE4FB26
S1134698E4FBE4FBE4FBE4FBE4FBE4FBE4FBE4FB16
S11346A8E4FBE4FBE4FBFFFFE4FBE4FBE4FBE4FBE7
S11346B8E4FBE4FBE4FBE4FBE4FBE4FBE4FBE4FBF6
S11346C8E4FBE4FBE4FBE4FBE4FBE4FBE4FBE4FBE6
S11346D8E4FBE4FBE4FBE4FBE4FBE4FBE4FBFFFFB7
S11346E8FFFFE4FBE4FBE4FBE4FBE4FBE4FBE4FBA7
S11346F8E4FBE4FBE4FBE4FBE4FBE4FBE4FBE4FBB6
S1134708E4FBE4FBE4FBE4FBE4FBE4FBE4FBE4FBA5
S1134718E4FBE4FBE4FBE4FBE4FBE4FBFFFFE4FB76
S1134728E4FBE4FBE4FBE4FBE4FBE4FBE4FBE4FB85
S1134738E4FBE4FBE4FBE4FBE4FBE4FBE4FBE4FB75
S1134748E4FBE4FBE4FBE4FBE4FBE4FBE4FBE4FB65
S1134758E4FBE4FBE4FBE4FBE4FBFFFFE4FBE4FB36
S1134768E4FBE4FBE4FBE4FBE4FBE4FBE4FBE4FB45
S1134778E4FBE4FBE4FBE4FBE4FBE4FBE4FBE4FB35
S1134788E4FBE4FBE4FBE4FBE4FBE4FBE4FBE4FB25
S1134798E4FBFFFFFFFFE4FBE4FBE4FBE4FBE4FBD7
S11347A8E4FBE4FBE4FBE4FBE4FBE4FBE4FBE4FB05
S11347B8E4FBE4FBE4FBE4FBE4FBE4FBE4FBE4FBF5
S11347C8E4FBE4FBE4FBE4FBE4FBE4FBE4FBE4FBE5
S11347D8FFFFE4FBE4FBE4FBE4FBE4FBE4FBE4FBB6
S11347E8E4FBE4FBE4FBE4FBE4FBE4FBE4FBE4FBC5
S11347F8E4FBE4FBE4FBE4FBE4FBE4FBE4FBE4FBB5
S1134808E4FBE4FBE4FBE4FBE4FBE4FBE4FBFFFF85
S1134818E4FBE4FBE4FBE4FBE4FBE4FBE4FBE4FB94
S1134828E4FBE4FBE4FBE4FBE4FBE4FBE4FBE4FB84
S1134838E4FBE4FBE4FBE4FBE4FBE4FBE4FBE4FB74
S1134848E4FBE4FBE4FBFFFFFFFFE4FBE4FBE4FB26
S1134858E4FBE4FBE4FBE4FBE4FBE4FBE4FBE4FB54
S1134868E4FBE4FBE4FBE4FBE4FBE4FBE4FBE4FB44
S1134878E4FBE4FBE4FBE4FBE4FBE4FBE4FBE4FB34
S1134888E4FBE4FBFFFFE4FBE4FBE4FBE4FBE4FB05
S1134898E4FBE4FBE4FBE4FBE4FBE4FBE4FBE4FB14
S11348A8E4FBE4FBE4FBE4FBE4FBE4FBE4FBE4FB04
S11348B8E4FBE4FBE4FBE4FBE4FBE4FBE4FBE4FBF4
S11348C8E4FBFFFFE4FBE4FBE4FBE4FBE4FBE4FBC5
S11348D8E4FBE4FBE4FBE4FBE4FBE4FBE4FBE4FBD4
S11348E8E4FBE4FBE4FBE4FBE4FBE4FBE4FBE4FBC4
S11348F8E4FBE4FBE4FBE4FBE4FBFFFFFFFFE4FB76
S1134908E4FBE4FBE4FBE4FBE4FBE4FBE4FBE4FBA3
S1134918E4FBE4FBE4FBE4FBE4FBE4FBE4FBE4FB93
S1134928E4FBE4FBE4FBE4FBE4FBE4FBE4FBE4FB83
S1134938E4FBE4FBE4FBE4FBFFFFE4FBE4FBE4FB54
S1134948E4FBE4FBE4FBE4FBE4FBE4FBE4FBE4FB63
S1134958E4FBE4FBE4FBE4FBE4FBE4FBE4FBE4FB53
S1134968E4FBE4FBE4FBE4FBE4FBE4FBE4FBE4FB43
S1134978E4FBE4FBE4FBFFFFE4FBE4FBE4FBE4FB14
S1134988E4FBE4FBE4FBE4FBE4FBE4FBE4FBE4FB23
S1134998E4FBE4FBE4FBE4FBE4FBE4FBE4FBE4FB13
S11349A8E4FBE4FBE4FBE4FBE4FBE4FBE4FBFFFFE4
S11349B8FFFFE4FBE4FBE4FBE4FBE4FBE4FBE4FBD4
S11349C8E4FBE4FBE4FBE4FBE4FBE4FBE4FBE4FBE3
S11349D8E4FBE4FBE4FBE4FBE4FBE4FBE4FBE4FBD3
S11349E8E4FBE4FBE4FBE4FBE4FBE4FBFFFFE4FBA4
S11349F8E4FBE4FBE4FBE4FBE4FBE4FBE4FBE4FBB3
S1134A08E4FBE4FBE4FBE4FBE4FBE4FBE4FBE4FBA2
S1134A18E4FBE4FBE4FBE4FBE4FBE4FBE4FBE4FB92
S1134A28E4FBE4FBE4FBE4FBE4FBFFFFE4FBE4FB63
S1134A38E4FBE4FBE4FBE4FBE4FBE4FBE4FBE4FB72
S1134A48E4FBE4FBE4FBE4FBE4FBE4FBE4FBE4FB62
S1134A58E4FBE4FBE4FBE4FBE4FBE4FBE4FBE4FB52
S1134A68E4FBFFFFFFFFE4FBE4FBE4FBE4FBE4FB04
S1134A78E4FBE4FBE4FBE4FBE4FBE4FBE4FBE4FB32
S1134A88E4FBE4FBE4FBE4FBE4FBE4FBE4FBE4FB22
S1134A98E4FBE4FBE4FBE4FBE4FBE4FBE4FBE4FB12
S1134AA8FFFFE4FBE4FBE4FBE4FBE4FBE4FBE4FBE3
S1134AB8E4FBE4FBE4FBE4FBE4FBE4FBE4FBE4FBF2
S1134AC8E4FBE4FBE4FBE4FBE4FBE4FBE4FBE4FBE2
S1134AD8E4FBE4FBE4FBE4FBE4FBE4FBE4FBFFFFB3
S1134AE8E4FBE4FBE4FBE4FBE4FBE4FBE4FBE4FBC2
S1134AF8E4FBE4FBE4FBE4FBE4FBE4FBE4FBE4FBB2
S1134B08E4FBE4FBE4FBE4FBE4FBE4FBE4FBE4FBA1
S1134B18E4FBE4FBE4FBFFFFFFFFE4FBE4FBE4FB53
S1134B28E4FBE4FBE4FBE4FBE4FBE4FBE4FBE4FB81
S1134B38E4FBE4FBE4FBE4FBE4FBE4FBE4FBE4FB71
S1134B48E4FBE4FBE4FBE4FBE4FBE4FBE4FBE4FB61
S1134B58E4FBE4FBFFFFE4FBE4FBE4FBE4FBE4FB32
S1134B68E4FBE4FBE4FBE4FBE4FBE4FBE4FBE4FB41
S1134B78E4FBE4FBE4FBE4FBE4FBE4FBE4FBE4FB31
S1134B88E4FBE4FBE4FBE4FBE4FBE4FBE4FBE4FB21
S1134B98E4FBFFFFE4FBE4FBE4FBE4FBE4FBE4FBF2
S1134BA8E4FBE4FBE4FBE4FBE4FBE4FBE4FBE4FB01
S1134BB8E4FBE4FBE4FBE4FBE4FBE4FBE4FBE4FBF1
S1134BC8E4FBE4FBE4FBE4FBE4FBFFFFFFFFE4FBA3
S1134BD8E4FBE4FBE4FBE4FBE4FBE4FBE4FBE4FBD1
S1134BE8E4FBE4FBE4FBE4FBE4FBE4FBE4FBE4FBC1
S1134BF8E4FBE4FBE4FBE4FBE4FBE4FBE4FBE4FBB1
S1134C08E4FBE4FBE4FBE4FBFFFFE4FBE4FBE4FB81
S1134C18E4FBE4FBE4FBE4FBE4FBE4FBE4FBE4FB90
S1134C28E4FBE4FBE4FBE4FBE4FBE4FBE4FBE4FB80
S1134C38E4FBE4FBE4FBE4FBE4FBE4FBE4FBE4FB70
S1134C48E4FBE4FBE4FBFFFFE4FBE4FBE4FBE4FB41
S1134C58E4FBE4FBE4FBE4FBE4FBE4FBE4FBE4FB50
S1134C68E4FBE4FBE4FBE4FBE4FBE4FBE4FBE4FB40
S1134C78E4FBE4FBE4FBE4FBE4FBE4FBE4FBFFFF11
S1134C88FFFFE4FBE4FBE4FBE4FBE4FBE4FBE4FB01
S1134C98E4FBE4FBE4FBE4FBE4FBE4FBE4FBE4FB10
S1134CA8E4FBE4FBE4FBE4FBE4FBE4FBE4FBE4FB00
S1134CB8E4FBE4FBE4FBE4FBE4FBE4FBFFFFE4FBD1
S1134CC8E4FBE4FBE4FBE4FBE4FBE4FBE4FBE4FBE0
S1134CD8E4FBE4FBE4FBE4FBE4FBE4FBE4FBE4FBD0
S1134CE8E4FBE4FBE4FBE4FBE4FBE4FBE4FBE4FBC0
S1134CF8E4FBE4FBE4FBE4FBE4FBFFFFE4FBE4FB91
S1134D08E4FBE4FBE4FBE4FBE4FBE4FBE4FBE4FB9F
S1134D18E4FBE4FBE4FBE4FBE4FBE4FBE4FBE4FB8F
S1134D28E4FBE4FBE4FBE4FBE4FBE4FBE4FBE4FB7F
S1134D38E4FBFFFFFFFFFFFFFFFFFFFFFFFFFFFF96
S1134D48FFFFFFFFFFFFFFFFFFFFFFFFFFFFFFFF67
S1134D58FFFFFFFFFFFFFFFFFFFFFFFFFFFFFFFF57
S1134D68FFFFFFFFFFFFFFFFFFFFFFFFFFFFFFFF47
S1134D78FFFFFFFFFFFFFFFFFFFFFFFFFFFFFFFF37
S1134D88FFFFFFFFFFFFFFFFFFFFFFFFFFFFFFFF27
S1134D98FFFFFFFFFFFFFFFFFFFFFFFFFFFFFFFF17
S1134DA8FFFFFFFFFFFFFFFFFFFFFFFFFFFFFFFF07
S1134DB8FFFFFFFFFFFFFFFFFFFFFFFFFFFFFFFFF7
S1134DC8FFFFFFFFFFFFFFFFFFFFFFFFFFFFFFFFE7
S1134DD8FFFFFFFFFFFFFFFFFFFFFFFFFFFFFFFFD7
S1134DE80000000000000000E4FBE4FBE4FBE4FB3B
S1134DF8E4FBE4FBE4FBE4FBE4FBE4FBE4FB00008E
S1134E080000000000000000000000000000E4FBB7
S1134E18E4FBE4FBE4FBE4FBE4FBE4FBE4FBE4FB8E
S1134E28E4FBE4FBE4FBE4FBE4FBE4FBE4FBE4FB7E
S1134E38E4FBE4FBE4FB000000001D051D051D0563
S1134E481D051D051D051D051D0500000000E4FBCD
S1134E58E4FBE4FBE4FBE4FBE4FBE4FBE4FBE4FB4E
S1134E68E4FBE4FBE4FBE4FBE4FBE4FBE4FB00001D
S1134E7800001D051D051D051D051D051D051D0538
S1134E881D051D051D051D051D0500000000E4FB8D
S1134E98E4FBE4FBE4FBE4FBE4FBE4FBE4FBE4FB0E
S1134EA8E4FBE4FBE4FBE4FB00001D051D051D0514
S1134EB81D051D051D051D051D051D051D051D05D6
S1134EC81D051D051D051D051D050000E4FBE4FB6E
S1134ED8E4FBE4FBE4FBE4FBE4FBE4FBE4FBE4FBCE
S1134EE8E4FB00001D051D051D051D051D051D050B
S1134EF81D051D051D051D051D051D051D051D0596
S1134F081D051D051D051D050000E4FBE4FBE4FB70
S1134F18E4FBE4FBE4FBE4FBE4FBE4FB00001D0529
S1134F281D051D051D051D051D051D051D051D0565
S1134F381D051D051D051D051D051D051D051D0555
S1134F481D051D051D050000E4FBE4FBE4FBE4FB73
S1134F58E4FBE4FBE4FB00001D051D051D051D0520
S1134F681D051D051D051D051D051D051D051D0525
S1134F781D051D051D051D051D051D051D051D0515
S1134F881D051D050000E4FBE4FBE4FBE4FBE4FB76
S1134F9800001D051D051D051D051D051D051D0517
S1134FA81D051D051D051D051D051D051D051D05E5
S1134FB81D051D051D051D051D051D051D051D05D5
S1134FC81D050000E4FBE4FBE4FBE4FB00001D0515
S1134FD81D051D051D051D051D051D051D051D05B5
S1134FE8593A593A593A593A593A593A1D051D05FF
S1134FF81D051D051D051D051D051D051D050000B7
S1135008E4FBE4FBE4FB00001D051D051D051D056F
S11350181D051D051D051D051D05593A593A593A21
S1135028593A593A593A593A593A593A1D051D05BE
S11350381D051D051D051D051D051D050000E4FBB9
S1135048E4FB00001D051D051D051D051D051D05A9
S11350581D05593A593A593A593A593A593A593A1D
S1135068593A593A593A593A593A1D051D051D05EF
S11350781D051D051D051D050000E4FB00001D059B
S11350881D051D051D051D051D051D05593A593A22
S1135098593A593A593A593A593A593A593A593A6C
S11350A8593A593A593A1D051D051D051D051D0591
S11350B81D051D050000E4FB00001D051D051D055B
S11350C81D051D051D051D05593A593A593A593A00
S11350D8593A593A593A593A593A593A593A593A2C
S11350E8593A593A1D051D051D051D051D051D05C2
S11350F81D05000000001D051D051D051D051D05D8
S11351081D05593A593A593A593A593A593A593A6C
S1135118593A593A593A593A593A593A593A593AEB
S1135128593A1D051D051D051D051D051D05000014
S113513800001D051D051D051D051D051D05593A04
S1135148593A593A593A593A593A593A593A593ABB
S1135158593A593A593A593A593A593A593A1D051C
S11351681D051D051D051D051D05000000001D0567
S11351781D051D051D051D051D05593A593A593AC0
S1135188593A593A593A593A593A593A593A593A7B
S1135198593A593A593A593A593A1D051D051D05BE
S11351A81D051D051D05000000001D051D051D0527
S11351B81D051D051D05593A593A593A593A593A9E
S11351C8593A593A593A593A593A593A593A593A3B
S11351D8593A593A593A1D051D051D051D051D0560
S11351E81D05000000001D051D051D051D051D05E7
S11351F81D05593A593A593A593A593A593A593A7C
S1135208593A593A593A593A593A593A593A593AFA
S1135218593A1D051D051D051D051D051D05000023
S113522800001D051D051D051D051D051D051D0584
S1135238593A593A593A593A593A593A593A593ACA
S1135248593A593A593A593A593A593A1D051D059C
S11352581D051D051D051D050000E4FBE4FB0000FC
S11352681D051D051D051D051D051D05593A593A40
S1135278593A593A593A593A593A593A593A593A8A
S1135288593A593A593A593A1D051D051D051D053E
S11352981D051D050000E4FBE4FB00001D051D05BC
S11352A81D051D051D051D051D05593A593A593A8F
S11352B8593A593A593A593A593A593A593A593A4A
S11352C8593A1D051D051D051D051D051D051D0551
S11352D80000E4FBE4FBE4FB00001D051D051D05BF
S11352E81D051D051D051D051D05593A593A593A4F
S11352F8593A593A593A593A593A1D051D051D055D
S11353081D051D051D051D051D050000E4FBE4FB29
S1135318E4FBE4FB00001D051D051D051D051D0519
S11353281D051D051D051D051D05593A593A593A0E
S1135338593A1D051D051D051D051D051D051D05E0
S11353481D051D051D050000E4FBE4FBE4FBE4FB6F
S1135358E4FB00001D051D051D051D051D051D0596
S11353681D051D051D051D051D051D051D051D0521
S11353781D051D051D051D051D051D051D051D0511
S11353880000E4FBE4FBE4FBE4FBE4FBE4FBE4FBF8
S113539800001D051D051D051D051D051D051D0513
S11353A81D051D051D051D051D051D051D051D05E1
S11353B81D051D051D051D051D050000E4FBE4FB79
S11353C8E4FBE4FBE4FBE4FBE4FBE4FBE4FB0000B8
S11353D81D051D051D051D051D051D051D051D05B1
S11353E81D051D051D051D051D051D051D051D05A1
S11353F81D051D050000E4FBE4FBE4FBE4FBE4FB02
S1135408E4FBE4FBE4FBE4FBE4FBE4FB00001D0534
S11354181D051D051D051D051D051D051D051D0570
S11354281D051D051D051D051D051D051D05000082
S1135438E4FBE4FBE4FBE4FBE4FBE4FBE4FBE4FB68
S1135448E4FBE4FBE4FBE4FBE4FB000000001D05D3
S11354581D051D051D051D051D051D051D051D0530
S11354681D051D051D0500000000E4FBE4FBE4FB2D
S1135478E4FBE4FBE4FBE4FBE4FBE4FBE4FBE4FB28
S1135488E4FBE4FBE4FBE4FBE4FB000000000000B5
S11354981D051D051D051D051D051D050000000034
S11354A80000E4FBE4FBE4FBE4FBE4FBE4FBE4FBD7
S11354B8E4FBE4FBE4FBE4FBE4FBE4FBE4FBE4FBE8
S11354C8E4FBE4FBE4FBE4FBE4FBE4FB0000000096
S11354D80000000000000000E4FBE4FBE4FBE4FB44
S11354E8E4FBE4FBE4FBE4FB000000000000000034
S11354F8FFFFFFFFFFFFFFFFFFFFFFFFFFFFFFFFB0
S1135508FFFFFFFFFFFF0000000000000000000095
S1135518000000000000FFFFFFFFFFFFFFFFFFFF89
S1135528FFFFFFFFFFFFFFFFFFFFFFFFFFFFFFFF7F
S1135538FFFFFFFFFFFFFFFFFFFFFFFFFFFF00006D
S11355480000E4E8E4E8E4E8E4E8E4E8E4E8E4E8BB
S1135558E4E800000000FFFFFFFFFFFFFFFFFFFF7D
S1135568FFFFFFFFFFFFFFFFFFFFFFFFFFFFFFFF3F
S1135578FFFFFFFFFFFF00000000E4E8E4E8E4E8C1
S1135588E4E8E4E8E4E8E4E8E4E8E4E8E4E8E4E8AF
S1135598E4E800000000FFFFFFFFFFFFFFFFFFFF3D
S11355A8FFFFFFFFFFFFFFFFFFFFFFFFFFFFFFFFFF
S11355B80000E4E8E4E8E4E8E4E8E4E8E4E8E4E84B
S11355C8E4E8E4E8E4E8E4E8E4E8E4E8E4E8E4E86F
S11355D8E4E80000FFFFFFFFFFFFFFFFFFFFFFFFFF
S11355E8FFFFFFFFFFFFFFFFFFFF0000E4E8E4E821
S11355F8E4E8E4E8E4E8E4E8E4E8E4E8E4E8E4E83F
S1135608E4E8E4E8E4E8E4E8E4E8E4E8E4E8E4E82E
S11356180000FFFFFFFFFFFFFFFFFFFFFFFFFFFF8C
S1135628FFFFFFFF0000E4E8E4E8E4E8E4E8E4E876
S1135638E4E8E4E8E4E8E4E8E4E8E4E8E4E8E4E8FE
S1135648E4E8E4E8E4E8E4E8E4E8E4E8E4E80000BA
S1135658FFFFFFFFFFFFFFFFFFFFFFFFFFFF00004C
S1135668E4E8E4E8E4E8E4E8E4E8E4E8E4E8E4E8CE
S1135678E4E8E4E8E4E8E4E8E4E8E4E8E4E8E4E8BE
S1135688E4E8E4E8E4E8E4E8E4E8E4E80000FFFF48
S1135698FFFFFFFFFFFFFFFF0000E4E8E4E8E4E8A2
S11356A8E4E8E4E8E4E8E4E8E4E8E4E8E4E8E4E88E
S11356B8E4E8E4E8E4E8E4E8E4E8E4E8E4E8E4E87E
S11356C8E4E8E4E8E4E8E4E8E4E80000FFFFFFFFD6
S11356D8FFFFFFFF0000E4E8E4E8E4E8E4E8E4E8C6
S11356E8E4E8E4E8E4E8E4E8E4FBE4FBE4FBE4FB02
S11356F8E4FBE4FBE4E8E4E8E4E8E4E8E4E8E4E818
S1135708E4E8E4E8E4E80000FFFFFFFFFFFF00002F
S1135718E4E8E4E8E4E8E4E8E4E8E4E8E4E8E4E81D
S1135728E4E8E4FBE4FBE4FBE4FBE4FBE4FBE4FB88
S1135738E4FBE4FBE4E8E4E8E4E8E4E8E4E8E4E8D7
S1135748E4E8E4E80000FFFFFFFF0000E4E8E4E821
S1135758E4E8E4E8E4E8E4E8E4E8E4FBE4FBE4FBA4
S1135768E4FBE4FBE4FBE4FBE4FBE4FBE4FBE4FB35
S1135778E4FBE4E8E4E8E4E8E4E8E4E8E4E8E4E8AA
S11357880000FFFF0000E4E8E4E8E4E8E4E8E4E813
S1135798E4E8E4E8E4FBE4FBE4FBE4FBE4FBE4FB2B
S11357A8E4FBE4FBE4FBE4FBE4FBE4FBE4FBE4E808
S11357B8E4E8E4E8E4E8E4E8E4E8E4E80000FFFF17
S11357C80000E4E8E4E8E4E8E4E8E4E8E4E8E4E839
S11357D8E4FBE4FBE4FBE4FBE4FBE4FBE4FBE4FBC5
S11357E8E4FBE4FBE4FBE4FBE4FBE4FBE4E8E4E8DB
S11357F8E4E8E4E8E4E8E4E8E4E800000000E4E8D5
S1135808E4E8E4E8E4E8E4E8E4E8E4FBE4FBE4FBF3
S1135818E4FBE4FBE4FBE4FBE4FBE4FBE4FBE4FB84
S1135828E4FBE4FBE4FBE4FBE4FBE4E8E4E8E4E8AD
S1135838E4E8E4E8E4E800000000E4E8E4E8E4E894
S1135848E4E8E4E8E4E8E4FBE4FBE4FBE4FBE4FB8D
S1135858E4FBE4FBE4FBE4FBE4FBE4FBE4FBE4FB44
S1135868E4FBE4FBE4FBE4E8E4E8E4E8E4E8E4E893
S1135878E4E800000000E4E8E4E8E4E8E4E8E4E854
S1135888E4E8E4FBE4FBE4FBE4FBE4FBE4FBE4FB27
S1135898E4FBE4FBE4FBE4FBE4FBE4FBE4FBE4FB04
S11358A8E4FBE4E8E4E8E4E8E4E8E4E8E4E8000045
S11358B80000E4E8E4E8E4E8E4E8E4E8E4E8E4FB35
S11358C8E4FBE4FBE4FBE4FBE4FBE4FBE4FBE4FBD4
S11358D8E4FBE4FBE4FBE4FBE4FBE4FBE4FBE4E8D7
S11358E8E4E8E4E8E4E8E4E8E4E800000000E4E8E4
S11358F8E4E8E4E8E4E8E4E8E4E8E4FBE4FBE4FB03
S1135908E4FBE4FBE4FBE4FBE4FBE4FBE4FBE4FB93
S1135918E4FBE4FBE4FBE4FBE4FBE4E8E4E8E4E8BC
S1135928E4E8E4E8E4E800000000E4E8E4E8E4E8A3
S1135938E4E8E4E8E4E8E4E8E4FBE4FBE4FBE4FBAF
S1135948E4FBE4FBE4FBE4FBE4FBE4FBE4FBE4FB53
S1135958E4FBE4FBE4E8E4E8E4E8E4E8E4E8E4E8B5
S11359680000FFFFFFFF0000E4E8E4E8E4E8E4E8FF
S1135978E4E8E4E8E4FBE4FBE4FBE4FBE4FBE4FB49
S1135988E4FBE4FBE4FBE4FBE4FBE4FBE4FBE4FB13
S1135998E4E8E4E8E4E8E4E8E4E8E4E80000FFFF35
S11359A8FFFF0000E4E8E4E8E4E8E4E8E4E8E4E825
S11359B8E4E8E4FBE4FBE4FBE4FBE4FBE4FBE4FBF6
S11359C8E4FBE4FBE4FBE4FBE4FBE4E8E4E8E4E80C
S11359D8E4E8E4E8E4E8E4E80000FFFFFFFFFFFF91
S11359E80000E4E8E4E8E4E8E4E8E4E8E4E8E4E817
S11359F8E4E8E4FBE4FBE4FBE4FBE4FBE4FBE4FBB6
S1135A08E4FBE4E8E4E8E4E8E4E8E4E8E4E8E4E817
S1135A18E4E80000FFFFFFFFFFFFFFFF0000E4E8EA
S1135A28E4E8E4E8E4E8E4E8E4E8E4E8E4E8E4E80A
S1135A38E4E8E4FBE4FBE4FBE4FBE4E8E4E8E4E8AE
S1135A48E4E8E4E8E4E8E4E8E4E8E4E8E4E80000B6
S1135A58FFFFFFFFFFFFFFFFFFFF0000E4E8E4E8AC
S1135A68E4E8E4E8E4E8E4E8E4E8E4E8E4E8E4E8CA
S1135A78E4E8E4E8E4E8E4E8E4E8E4E8E4E8E4E8BA
S1135A88E4E8E4E8E4E8E4E80000FFFFFFFFFFFFE0
S1135A98FFFFFFFFFFFFFFFF0000E4E8E4E8E4E89E
S1135AA8E4E8E4E8E4E8E4E8E4E8E4E8E4E8E4E88A
S1135AB8E4E8E4E8E4E8E4E8E4E8E4E8E4E8E4E87A
S1135AC8E4E80000FFFFFFFFFFFFFFFFFFFFFFFF0A
S1135AD8FFFFFFFFFFFF0000E4E8E4E8E4E8E4E890
S1135AE8E4E8E4E8E4E8E4E8E4E8E4E8E4E8E4E84A
S1135AF8E4E8E4E8E4E8E4E8E4E8E4E80000FFFFD4
S1135B08FFFFFFFFFFFFFFFFFFFFFFFFFFFFFFFF99
S1135B18FFFFFFFF0000E4E8E4E8E4E8E4E8E4E881
S1135B28E4E8E4E8E4E8E4E8E4E8E4E8E4E8E4E809
S1135B38E4E8E4E8E4E80000FFFFFFFFFFFFFFFFFD
S1135B48FFFFFFFFFFFFFFFFFFFFFFFFFFFFFFFF59
S1135B58FFFF00000000E4E8E4E8E4E8E4E8E4E83F
S1135B68E4E8E4E8E4E8E4E8E4E8E4E8E4E8000095
S1135B780000FFFFFFFFFFFFFFFFFFFFFFFFFFFF27
S1135B88FFFFFFFFFFFFFFFFFFFFFFFFFFFFFFFF19
S1135B98FFFF000000000000E4E8E4E8E4E8E4E8CB
S1135BA8E4E8E4E8000000000000FFFFFFFFFFFF57
S1135BB8FFFFFFFFFFFFFFFFFFFFFFFFFFFFFFFFE9
S1135BC8FFFFFFFFFFFFFFFFFFFFFFFFFFFFFFFFD9
S1135BD8FFFFFFFF000000000000000000000000BD
S1135BE8FFFFFFFFFFFFFFFFFFFFFFFFFFFFFFFFB9
S1135BF80000000000000000705C0000430000008A
S1135C080DC0A0E1F8DF2DE904B04CE228D04BE246
S1135C18F06F9DE81EFF2FE1340D0000080200001C
S1135C280DC0A0E1F8DF2DE904B04CE228D04BE226
S1135C38F06F9DE81EFF2FE1C40100000000000082
S1135C480000000000000000A0600000E80200005E
S1135C580000000000000000010000000000000037
S1135C68705C000000000000000000005C5F0000A1
S1135C78C45F00002C600000000000000000000069
S1135C880000000000000000000000000000000008
S1135C98000000000000000000000000045C000098
S1135CA800000000000000000000000000000000E8
S1135CB800000000000000000000000000000000D8
S1135CC800000000000000000000000000000000C8
S1135CD800000000000000000000000000000000B8
